{
  "abi": [
    {
      "inputs": [
        {
          "internalType": "string",
          "name": "name",
          "type": "string"
        },
        {
          "internalType": "string",
          "name": "symbol",
          "type": "string"
        },
        {
          "internalType": "string",
          "name": "baseURI_",
          "type": "string"
        }
      ],
      "stateMutability": "nonpayable",
      "type": "constructor"
    },
    {
      "anonymous": false,
      "inputs": [
        {
          "indexed": true,
          "internalType": "address",
          "name": "owner",
          "type": "address"
        },
        {
          "indexed": true,
          "internalType": "address",
          "name": "approved",
          "type": "address"
        },
        {
          "indexed": true,
          "internalType": "uint256",
          "name": "tokenId",
          "type": "uint256"
        }
      ],
      "name": "Approval",
      "type": "event"
    },
    {
      "anonymous": false,
      "inputs": [
        {
          "indexed": true,
          "internalType": "address",
          "name": "owner",
          "type": "address"
        },
        {
          "indexed": true,
          "internalType": "address",
          "name": "operator",
          "type": "address"
        },
        {
          "indexed": false,
          "internalType": "bool",
          "name": "approved",
          "type": "bool"
        }
      ],
      "name": "ApprovalForAll",
      "type": "event"
    },
    {
      "anonymous": false,
      "inputs": [
        {
          "indexed": false,
          "internalType": "string",
          "name": "name",
          "type": "string"
        },
        {
          "indexed": false,
          "internalType": "string",
          "name": "symbol",
          "type": "string"
        },
        {
          "indexed": false,
          "internalType": "string",
          "name": "baseURI",
          "type": "string"
        }
      ],
      "name": "ERC721Initialized",
      "type": "event"
    },
    {
      "anonymous": false,
      "inputs": [
        {
          "indexed": true,
          "internalType": "address",
          "name": "from",
          "type": "address"
        },
        {
          "indexed": true,
          "internalType": "address",
          "name": "to",
          "type": "address"
        },
        {
          "indexed": true,
          "internalType": "uint256",
          "name": "tokenId",
          "type": "uint256"
        }
      ],
      "name": "Transfer",
      "type": "event"
    },
    {
      "inputs": [
        {
          "internalType": "address",
          "name": "to",
          "type": "address"
        },
        {
          "internalType": "uint256",
          "name": "tokenId",
          "type": "uint256"
        }
      ],
      "name": "approve",
      "outputs": [],
      "stateMutability": "nonpayable",
      "type": "function"
    },
    {
      "inputs": [
        {
          "internalType": "address",
          "name": "owner",
          "type": "address"
        }
      ],
      "name": "balanceOf",
      "outputs": [
        {
          "internalType": "uint256",
          "name": "",
          "type": "uint256"
        }
      ],
      "stateMutability": "view",
      "type": "function"
    },
    {
      "inputs": [],
      "name": "baseURI",
      "outputs": [
        {
          "internalType": "string",
          "name": "",
          "type": "string"
        }
      ],
      "stateMutability": "view",
      "type": "function"
    },
    {
      "inputs": [
        {
          "internalType": "uint256",
          "name": "tokenId",
          "type": "uint256"
        }
      ],
      "name": "getApproved",
      "outputs": [
        {
          "internalType": "address",
          "name": "",
          "type": "address"
        }
      ],
      "stateMutability": "view",
      "type": "function"
    },
    {
      "inputs": [
        {
          "internalType": "address",
          "name": "owner",
          "type": "address"
        },
        {
          "internalType": "address",
          "name": "operator",
          "type": "address"
        }
      ],
      "name": "isApprovedForAll",
      "outputs": [
        {
          "internalType": "bool",
          "name": "",
          "type": "bool"
        }
      ],
      "stateMutability": "view",
      "type": "function"
    },
    {
      "inputs": [
        {
          "internalType": "address",
          "name": "user",
          "type": "address"
        },
        {
          "internalType": "uint256",
          "name": "id",
          "type": "uint256"
        }
      ],
      "name": "mint",
      "outputs": [
        {
          "internalType": "address",
          "name": "",
          "type": "address"
        }
      ],
      "stateMutability": "nonpayable",
      "type": "function"
    },
    {
      "inputs": [],
      "name": "name",
      "outputs": [
        {
          "internalType": "string",
          "name": "",
          "type": "string"
        }
      ],
      "stateMutability": "view",
      "type": "function"
    },
    {
      "inputs": [
        {
          "internalType": "uint256",
          "name": "tokenId",
          "type": "uint256"
        }
      ],
      "name": "ownerOf",
      "outputs": [
        {
          "internalType": "address",
          "name": "",
          "type": "address"
        }
      ],
      "stateMutability": "view",
      "type": "function"
    },
    {
      "inputs": [
        {
          "internalType": "address",
          "name": "from",
          "type": "address"
        },
        {
          "internalType": "address",
          "name": "to",
          "type": "address"
        },
        {
          "internalType": "uint256",
          "name": "tokenId",
          "type": "uint256"
        }
      ],
      "name": "safeTransferFrom",
      "outputs": [],
      "stateMutability": "nonpayable",
      "type": "function"
    },
    {
      "inputs": [
        {
          "internalType": "address",
          "name": "from",
          "type": "address"
        },
        {
          "internalType": "address",
          "name": "to",
          "type": "address"
        },
        {
          "internalType": "uint256",
          "name": "tokenId",
          "type": "uint256"
        },
        {
          "internalType": "bytes",
          "name": "_data",
          "type": "bytes"
        }
      ],
      "name": "safeTransferFrom",
      "outputs": [],
      "stateMutability": "nonpayable",
      "type": "function"
    },
    {
      "inputs": [
        {
          "internalType": "address",
          "name": "operator",
          "type": "address"
        },
        {
          "internalType": "bool",
          "name": "approved",
          "type": "bool"
        }
      ],
      "name": "setApprovalForAll",
      "outputs": [],
      "stateMutability": "nonpayable",
      "type": "function"
    },
    {
      "inputs": [
        {
          "internalType": "bytes4",
          "name": "interfaceId",
          "type": "bytes4"
        }
      ],
      "name": "supportsInterface",
      "outputs": [
        {
          "internalType": "bool",
          "name": "",
          "type": "bool"
        }
      ],
      "stateMutability": "view",
      "type": "function"
    },
    {
      "inputs": [],
      "name": "symbol",
      "outputs": [
        {
          "internalType": "string",
          "name": "",
          "type": "string"
        }
      ],
      "stateMutability": "view",
      "type": "function"
    },
    {
      "inputs": [
        {
          "internalType": "uint256",
          "name": "index",
          "type": "uint256"
        }
      ],
      "name": "tokenByIndex",
      "outputs": [
        {
          "internalType": "uint256",
          "name": "",
          "type": "uint256"
        }
      ],
      "stateMutability": "view",
      "type": "function"
    },
    {
      "inputs": [
        {
          "internalType": "address",
          "name": "owner",
          "type": "address"
        },
        {
          "internalType": "uint256",
          "name": "index",
          "type": "uint256"
        }
      ],
      "name": "tokenOfOwnerByIndex",
      "outputs": [
        {
          "internalType": "uint256",
          "name": "",
          "type": "uint256"
        }
      ],
      "stateMutability": "view",
      "type": "function"
    },
    {
      "inputs": [
        {
          "internalType": "uint256",
          "name": "tokenId",
          "type": "uint256"
        }
      ],
      "name": "tokenURI",
      "outputs": [
        {
          "internalType": "string",
          "name": "",
          "type": "string"
        }
      ],
      "stateMutability": "view",
      "type": "function"
    },
    {
      "inputs": [],
      "name": "totalSupply",
      "outputs": [
        {
          "internalType": "uint256",
          "name": "",
          "type": "uint256"
        }
      ],
      "stateMutability": "view",
      "type": "function"
    },
    {
      "inputs": [
        {
          "internalType": "address",
          "name": "from",
          "type": "address"
        },
        {
          "internalType": "address",
          "name": "to",
          "type": "address"
        },
        {
          "internalType": "uint256",
          "name": "tokenId",
          "type": "uint256"
        }
      ],
      "name": "transferFrom",
      "outputs": [],
      "stateMutability": "nonpayable",
      "type": "function"
    }
  ],
  "address": "0x0F5963607bE6f255549cA684F01ff1D7FC6d3B0B",
  "args": [
    "test",
    "test",
    "hello.com"
  ],
  "solcInputHash": "0x26d11f31d042bea37634ef861cef78581f0050a16bb964acfb51cd61ac757ea2",
  "bytecode": "0x60806040523480156200001157600080fd5b50604051620034fd380380620034fd833981810160405260608110156200003757600080fd5b81019080805160405193929190846401000000008211156200005857600080fd5b838201915060208201858111156200006f57600080fd5b82518660018202830111640100000000821117156200008d57600080fd5b8083526020830192505050908051906020019080838360005b83811015620000c3578082015181840152602081019050620000a6565b50505050905090810190601f168015620000f15780820380516001836020036101000a031916815260200191505b50604052602001805160405193929190846401000000008211156200011557600080fd5b838201915060208201858111156200012c57600080fd5b82518660018202830111640100000000821117156200014a57600080fd5b8083526020830192505050908051906020019080838360005b838110156200018057808201518184015260208101905062000163565b50505050905090810190601f168015620001ae5780820380516001836020036101000a031916815260200191505b5060405260200180516040519392919084640100000000821115620001d257600080fd5b83820191506020820185811115620001e957600080fd5b82518660018202830111640100000000821117156200020757600080fd5b8083526020830192505050908051906020019080838360005b838110156200023d57808201518184015260208101905062000220565b50505050905090810190601f1680156200026b5780820380516001836020036101000a031916815260200191505b506040525050506200028483836200041d60201b60201c565b62000295816200055d60201b60201c565b7f841290ffa8e469bf6547a860880c6911b3bea8f36e0f01d660855bf7745b0e1083838360405180806020018060200180602001848103845287818151815260200191508051906020019080838360005b8381101562000303578082015181840152602081019050620002e6565b50505050905090810190601f168015620003315780820380516001836020036101000a031916815260200191505b50848103835286818151815260200191508051906020019080838360005b838110156200036c5780820151818401526020810190506200034f565b50505050905090810190601f1680156200039a5780820380516001836020036101000a031916815260200191505b50848103825285818151815260200191508051906020019080838360005b83811015620003d5578082015181840152602081019050620003b8565b50505050905090810190601f168015620004035780820380516001836020036101000a031916815260200191505b50965050505050505060405180910390a150505062000af8565b600060019054906101000a900460ff1680620004455750620004446200057960201b60201c565b5b806200045c575060008054906101000a900460ff16155b620004b3576040517f08c379a000000000000000000000000000000000000000000000000000000000815260040180806020018281038252602e815260200180620034cf602e913960400191505060405180910390fd5b60008060019054906101000a900460ff16159050801562000504576001600060016101000a81548160ff02191690831515021790555060016000806101000a81548160ff0219169083151502179055505b620005146200059060201b60201c565b620005246200069c60201b60201c565b620005368383620007c060201b60201c565b8015620005585760008060016101000a81548160ff0219169083151502179055505b505050565b80606d90805190602001906200057592919062000a52565b5050565b6000803090506000813b9050600081149250505090565b600060019054906101000a900460ff1680620005b85750620005b76200057960201b60201c565b5b80620005cf575060008054906101000a900460ff16155b62000626576040517f08c379a000000000000000000000000000000000000000000000000000000000815260040180806020018281038252602e815260200180620034cf602e913960400191505060405180910390fd5b60008060019054906101000a900460ff16159050801562000677576001600060016101000a81548160ff02191690831515021790555060016000806101000a81548160ff0219169083151502179055505b8015620006995760008060016101000a81548160ff0219169083151502179055505b50565b600060019054906101000a900460ff1680620006c45750620006c36200057960201b60201c565b5b80620006db575060008054906101000a900460ff16155b62000732576040517f08c379a000000000000000000000000000000000000000000000000000000000815260040180806020018281038252602e815260200180620034cf602e913960400191505060405180910390fd5b60008060019054906101000a900460ff16159050801562000783576001600060016101000a81548160ff02191690831515021790555060016000806101000a81548160ff0219169083151502179055505b6200079b6301ffc9a760e01b6200094860201b60201c565b8015620007bd5760008060016101000a81548160ff0219169083151502179055505b50565b600060019054906101000a900460ff1680620007e85750620007e76200057960201b60201c565b5b80620007ff575060008054906101000a900460ff16155b62000856576040517f08c379a000000000000000000000000000000000000000000000000000000000815260040180806020018281038252602e815260200180620034cf602e913960400191505060405180910390fd5b60008060019054906101000a900460ff161590508015620008a7576001600060016101000a81548160ff02191690831515021790555060016000806101000a81548160ff0219169083151502179055505b82606a9080519060200190620008bf92919062000a52565b5081606b9080519060200190620008d892919062000a52565b50620008f16380ac58cd60e01b6200094860201b60201c565b62000909635b5e139f60e01b6200094860201b60201c565b6200092163780e9d6360e01b6200094860201b60201c565b8015620009435760008060016101000a81548160ff0219169083151502179055505b505050565b63ffffffff60e01b817bffffffffffffffffffffffffffffffffffffffffffffffffffffffff19161415620009e5576040517f08c379a000000000000000000000000000000000000000000000000000000000815260040180806020018281038252601c8152602001807f4552433136353a20696e76616c696420696e746572666163652069640000000081525060200191505060405180910390fd5b600160336000837bffffffffffffffffffffffffffffffffffffffffffffffffffffffff19167bffffffffffffffffffffffffffffffffffffffffffffffffffffffff1916815260200190815260200160002060006101000a81548160ff02191690831515021790555050565b828054600181600116156101000203166002900490600052602060002090601f016020900481019282601f1062000a9557805160ff191683800117855562000ac6565b8280016001018555821562000ac6579182015b8281111562000ac557825182559160200191906001019062000aa8565b5b50905062000ad5919062000ad9565b5090565b5b8082111562000af457600081600090555060010162000ada565b5090565b6129c78062000b086000396000f3fe608060405234801561001057600080fd5b50600436106101165760003560e01c80634f6ccce7116100a257806395d89b411161007157806395d89b41146105f0578063a22cb46514610673578063b88d4fde146106c3578063c87b56dd146107c8578063e985e9c51461086f57610116565b80634f6ccce71461047b5780636352211e146104bd5780636c0360eb1461051557806370a082311461059857610116565b806318160ddd116100e957806318160ddd146102a757806323b872dd146102c55780632f745c591461033357806340c10f191461039557806342842e0e1461040d57610116565b806301ffc9a71461011b57806306fdde031461017e578063081812fc14610201578063095ea7b314610259575b600080fd5b6101666004803603602081101561013157600080fd5b8101908080357bffffffffffffffffffffffffffffffffffffffffffffffffffffffff191690602001909291905050506108e9565b60405180821515815260200191505060405180910390f35b610186610951565b6040518080602001828103825283818151815260200191508051906020019080838360005b838110156101c65780820151818401526020810190506101ab565b50505050905090810190601f1680156101f35780820380516001836020036101000a031916815260200191505b509250505060405180910390f35b61022d6004803603602081101561021757600080fd5b81019080803590602001909291905050506109f3565b604051808273ffffffffffffffffffffffffffffffffffffffff16815260200191505060405180910390f35b6102a56004803603604081101561026f57600080fd5b81019080803573ffffffffffffffffffffffffffffffffffffffff16906020019092919080359060200190929190505050610a8e565b005b6102af610bd2565b6040518082815260200191505060405180910390f35b610331600480360360608110156102db57600080fd5b81019080803573ffffffffffffffffffffffffffffffffffffffff169060200190929190803573ffffffffffffffffffffffffffffffffffffffff16906020019092919080359060200190929190505050610be3565b005b61037f6004803603604081101561034957600080fd5b81019080803573ffffffffffffffffffffffffffffffffffffffff16906020019092919080359060200190929190505050610c59565b6040518082815260200191505060405180910390f35b6103e1600480360360408110156103ab57600080fd5b81019080803573ffffffffffffffffffffffffffffffffffffffff16906020019092919080359060200190929190505050610cb4565b604051808273ffffffffffffffffffffffffffffffffffffffff16815260200191505060405180910390f35b6104796004803603606081101561042357600080fd5b81019080803573ffffffffffffffffffffffffffffffffffffffff169060200190929190803573ffffffffffffffffffffffffffffffffffffffff16906020019092919080359060200190929190505050610cc6565b005b6104a76004803603602081101561049157600080fd5b8101908080359060200190929190505050610ce6565b6040518082815260200191505060405180910390f35b6104e9600480360360208110156104d357600080fd5b8101908080359060200190929190505050610d09565b604051808273ffffffffffffffffffffffffffffffffffffffff16815260200191505060405180910390f35b61051d610d40565b6040518080602001828103825283818151815260200191508051906020019080838360005b8381101561055d578082015181840152602081019050610542565b50505050905090810190601f16801561058a5780820380516001836020036101000a031916815260200191505b509250505060405180910390f35b6105da600480360360208110156105ae57600080fd5b81019080803573ffffffffffffffffffffffffffffffffffffffff169060200190929190505050610de2565b6040518082815260200191505060405180910390f35b6105f8610eb7565b6040518080602001828103825283818151815260200191508051906020019080838360005b8381101561063857808201518184015260208101905061061d565b50505050905090810190601f1680156106655780820380516001836020036101000a031916815260200191505b509250505060405180910390f35b6106c16004803603604081101561068957600080fd5b81019080803573ffffffffffffffffffffffffffffffffffffffff169060200190929190803515159060200190929190505050610f59565b005b6107c6600480360360808110156106d957600080fd5b81019080803573ffffffffffffffffffffffffffffffffffffffff169060200190929190803573ffffffffffffffffffffffffffffffffffffffff169060200190929190803590602001909291908035906020019064010000000081111561074057600080fd5b82018360208201111561075257600080fd5b8035906020019184600183028401116401000000008311171561077457600080fd5b91908080601f016020809104026020016040519081016040528093929190818152602001838380828437600081840152601f19601f82011690508083019250505050505050919291929050505061110f565b005b6107f4600480360360208110156107de57600080fd5b8101908080359060200190929190505050611187565b6040518080602001828103825283818151815260200191508051906020019080838360005b83811015610834578082015181840152602081019050610819565b50505050905090810190601f1680156108615780820380516001836020036101000a031916815260200191505b509250505060405180910390f35b6108d16004803603604081101561088557600080fd5b81019080803573ffffffffffffffffffffffffffffffffffffffff169060200190929190803573ffffffffffffffffffffffffffffffffffffffff169060200190929190505050611470565b60405180821515815260200191505060405180910390f35b600060336000837bffffffffffffffffffffffffffffffffffffffffffffffffffffffff19167bffffffffffffffffffffffffffffffffffffffffffffffffffffffff1916815260200190815260200160002060009054906101000a900460ff169050919050565b6060606a8054600181600116156101000203166002900480601f0160208091040260200160405190810160405280929190818152602001828054600181600116156101000203166002900480156109e95780601f106109be576101008083540402835291602001916109e9565b820191906000526020600020905b8154815290600101906020018083116109cc57829003601f168201915b5050505050905090565b60006109fe82611504565b610a53576040517f08c379a000000000000000000000000000000000000000000000000000000000815260040180806020018281038252602c8152602001806128bc602c913960400191505060405180910390fd5b6068600083815260200190815260200160002060009054906101000a900473ffffffffffffffffffffffffffffffffffffffff169050919050565b6000610a9982610d09565b90508073ffffffffffffffffffffffffffffffffffffffff168373ffffffffffffffffffffffffffffffffffffffff161415610b20576040517f08c379a00000000000000000000000000000000000000000000000000000000081526004018080602001828103825260218152602001806129406021913960400191505060405180910390fd5b8073ffffffffffffffffffffffffffffffffffffffff16610b3f611521565b73ffffffffffffffffffffffffffffffffffffffff161480610b6e5750610b6d81610b68611521565b611470565b5b610bc3576040517f08c379a000000000000000000000000000000000000000000000000000000000815260040180806020018281038252603881526020018061280f6038913960400191505060405180910390fd5b610bcd8383611529565b505050565b6000610bde60666115e2565b905090565b610bf4610bee611521565b826115f7565b610c49576040517f08c379a00000000000000000000000000000000000000000000000000000000081526004018080602001828103825260318152602001806129616031913960400191505060405180910390fd5b610c548383836116eb565b505050565b6000610cac82606560008673ffffffffffffffffffffffffffffffffffffffff1673ffffffffffffffffffffffffffffffffffffffff16815260200190815260200160002061192e90919063ffffffff16565b905092915050565b6000610cc08383611948565b92915050565b610ce18383836040518060200160405280600081525061110f565b505050565b600080610cfd836066611b3c90919063ffffffff16565b50905080915050919050565b6000610d3982604051806060016040528060298152602001612871602991396066611b689092919063ffffffff16565b9050919050565b6060606d8054600181600116156101000203166002900480601f016020809104026020016040519081016040528092919081815260200182805460018160011615610100020316600290048015610dd85780601f10610dad57610100808354040283529160200191610dd8565b820191906000526020600020905b815481529060010190602001808311610dbb57829003601f168201915b5050505050905090565b60008073ffffffffffffffffffffffffffffffffffffffff168273ffffffffffffffffffffffffffffffffffffffff161415610e69576040517f08c379a000000000000000000000000000000000000000000000000000000000815260040180806020018281038252602a815260200180612847602a913960400191505060405180910390fd5b610eb0606560008473ffffffffffffffffffffffffffffffffffffffff1673ffffffffffffffffffffffffffffffffffffffff168152602001908152602001600020611b87565b9050919050565b6060606b8054600181600116156101000203166002900480601f016020809104026020016040519081016040528092919081815260200182805460018160011615610100020316600290048015610f4f5780601f10610f2457610100808354040283529160200191610f4f565b820191906000526020600020905b815481529060010190602001808311610f3257829003601f168201915b5050505050905090565b610f61611521565b73ffffffffffffffffffffffffffffffffffffffff168273ffffffffffffffffffffffffffffffffffffffff161415611002576040517f08c379a00000000000000000000000000000000000000000000000000000000081526004018080602001828103825260198152602001807f4552433732313a20617070726f766520746f2063616c6c65720000000000000081525060200191505060405180910390fd5b806069600061100f611521565b73ffffffffffffffffffffffffffffffffffffffff1673ffffffffffffffffffffffffffffffffffffffff16815260200190815260200160002060008473ffffffffffffffffffffffffffffffffffffffff1673ffffffffffffffffffffffffffffffffffffffff16815260200190815260200160002060006101000a81548160ff0219169083151502179055508173ffffffffffffffffffffffffffffffffffffffff166110bc611521565b73ffffffffffffffffffffffffffffffffffffffff167f17307eab39ab6107e8899845ad3d59bd9653f200f220920489ca2b5937696c318360405180821515815260200191505060405180910390a35050565b61112061111a611521565b836115f7565b611175576040517f08c379a00000000000000000000000000000000000000000000000000000000081526004018080602001828103825260318152602001806129616031913960400191505060405180910390fd5b61118184848484611b9c565b50505050565b606061119282611504565b6111e7576040517f08c379a000000000000000000000000000000000000000000000000000000000815260040180806020018281038252602f815260200180612911602f913960400191505060405180910390fd5b6060606c60008481526020019081526020016000208054600181600116156101000203166002900480601f0160208091040260200160405190810160405280929190818152602001828054600181600116156101000203166002900480156112905780601f1061126557610100808354040283529160200191611290565b820191906000526020600020905b81548152906001019060200180831161127357829003601f168201915b505050505090506000606d80546001816001161561010002031660029004905014156112bf578091505061146b565b60008151111561139857606d81604051602001808380546001816001161561010002031660029004801561132a5780601f1061130857610100808354040283529182019161132a565b820191906000526020600020905b815481529060010190602001808311611316575b505082805190602001908083835b6020831061135b5780518252602082019150602081019050602083039250611338565b6001836020036101000a0380198251168184511680821785525050505050509050019250505060405160208183030381529060405291505061146b565b606d6113a384611c0e565b60405160200180838054600181600116156101000203166002900480156114015780601f106113df576101008083540402835291820191611401565b820191906000526020600020905b8154815290600101906020018083116113ed575b505082805190602001908083835b60208310611432578051825260208201915060208101905060208303925061140f565b6001836020036101000a038019825116818451168082178552505050505050905001925050506040516020818303038152906040529150505b919050565b6000606960008473ffffffffffffffffffffffffffffffffffffffff1673ffffffffffffffffffffffffffffffffffffffff16815260200190815260200160002060008373ffffffffffffffffffffffffffffffffffffffff1673ffffffffffffffffffffffffffffffffffffffff16815260200190815260200160002060009054906101000a900460ff16905092915050565b600061151a826066611d5590919063ffffffff16565b9050919050565b600033905090565b816068600083815260200190815260200160002060006101000a81548173ffffffffffffffffffffffffffffffffffffffff021916908373ffffffffffffffffffffffffffffffffffffffff160217905550808273ffffffffffffffffffffffffffffffffffffffff1661159c83610d09565b73ffffffffffffffffffffffffffffffffffffffff167f8c5be1e5ebec7d5bd14f71427d1e84f3dd0314c0f7b2291e5b200ac8c7c3b92560405160405180910390a45050565b60006115f082600001611d6f565b9050919050565b600061160282611504565b611657576040517f08c379a000000000000000000000000000000000000000000000000000000000815260040180806020018281038252602c8152602001806127e3602c913960400191505060405180910390fd5b600061166283610d09565b90508073ffffffffffffffffffffffffffffffffffffffff168473ffffffffffffffffffffffffffffffffffffffff1614806116d157508373ffffffffffffffffffffffffffffffffffffffff166116b9846109f3565b73ffffffffffffffffffffffffffffffffffffffff16145b806116e257506116e18185611470565b5b91505092915050565b8273ffffffffffffffffffffffffffffffffffffffff1661170b82610d09565b73ffffffffffffffffffffffffffffffffffffffff1614611777576040517f08c379a00000000000000000000000000000000000000000000000000000000081526004018080602001828103825260298152602001806128e86029913960400191505060405180910390fd5b600073ffffffffffffffffffffffffffffffffffffffff168273ffffffffffffffffffffffffffffffffffffffff1614156117fd576040517f08c379a00000000000000000000000000000000000000000000000000000000081526004018080602001828103825260248152602001806127996024913960400191505060405180910390fd5b611808838383611d80565b611813600082611529565b61186481606560008673ffffffffffffffffffffffffffffffffffffffff1673ffffffffffffffffffffffffffffffffffffffff168152602001908152602001600020611d8590919063ffffffff16565b506118b681606560008573ffffffffffffffffffffffffffffffffffffffff1673ffffffffffffffffffffffffffffffffffffffff168152602001908152602001600020611d9f90919063ffffffff16565b506118cd81836066611db99092919063ffffffff16565b50808273ffffffffffffffffffffffffffffffffffffffff168473ffffffffffffffffffffffffffffffffffffffff167fddf252ad1be2c89b69c2b068fc378daa952ba7f163c4a11628f55a4df523b3ef60405160405180910390a4505050565b600061193d8360000183611dee565b60001c905092915050565b600073ffffffffffffffffffffffffffffffffffffffff168273ffffffffffffffffffffffffffffffffffffffff1614156119eb576040517f08c379a00000000000000000000000000000000000000000000000000000000081526004018080602001828103825260208152602001807f4552433732313a206d696e7420746f20746865207a65726f206164647265737381525060200191505060405180910390fd5b6119f481611504565b15611a67576040517f08c379a000000000000000000000000000000000000000000000000000000000815260040180806020018281038252601c8152602001807f4552433732313a20746f6b656e20616c7265616479206d696e7465640000000081525060200191505060405180910390fd5b611a7360008383611d80565b611ac481606560008573ffffffffffffffffffffffffffffffffffffffff1673ffffffffffffffffffffffffffffffffffffffff168152602001908152602001600020611d9f90919063ffffffff16565b50611adb81836066611db99092919063ffffffff16565b50808273ffffffffffffffffffffffffffffffffffffffff16600073ffffffffffffffffffffffffffffffffffffffff167fddf252ad1be2c89b69c2b068fc378daa952ba7f163c4a11628f55a4df523b3ef60405160405180910390a45050565b600080600080611b4f8660000186611e71565b915091508160001c8160001c9350935050509250929050565b6000611b7b846000018460001b84611f0a565b60001c90509392505050565b6000611b9582600001612000565b9050919050565b611ba78484846116eb565b611bb384848484612011565b611c08576040517f08c379a00000000000000000000000000000000000000000000000000000000081526004018080602001828103825260328152602001806127676032913960400191505060405180910390fd5b50505050565b60606000821415611c56576040518060400160405280600181526020017f30000000000000000000000000000000000000000000000000000000000000008152509050611d50565b600082905060005b60008214611c80578080600101915050600a8281611c7857fe5b049150611c5e565b60608167ffffffffffffffff81118015611c9957600080fd5b506040519080825280601f01601f191660200182016040528015611ccc5781602001600182028036833780820191505090505b50905060006001830390508593505b60008414611d4857600a8481611ced57fe5b0660300160f81b82828060019003935081518110611d0757fe5b60200101907effffffffffffffffffffffffffffffffffffffffffffffffffffffffffffff1916908160001a905350600a8481611d4057fe5b049350611cdb565b819450505050505b919050565b6000611d67836000018360001b61222a565b905092915050565b600081600001805490509050919050565b505050565b6000611d97836000018360001b61224d565b905092915050565b6000611db1836000018360001b612335565b905092915050565b6000611de5846000018460001b8473ffffffffffffffffffffffffffffffffffffffff1660001b6123a5565b90509392505050565b600081836000018054905011611e4f576040517f08c379a00000000000000000000000000000000000000000000000000000000081526004018080602001828103825260228152602001806127456022913960400191505060405180910390fd5b826000018281548110611e5e57fe5b9060005260206000200154905092915050565b60008082846000018054905011611ed3576040517f08c379a000000000000000000000000000000000000000000000000000000000815260040180806020018281038252602281526020018061289a6022913960400191505060405180910390fd5b6000846000018481548110611ee457fe5b906000526020600020906002020190508060000154816001015492509250509250929050565b60008084600101600085815260200190815260200160002054905060008114158390611fd1576040517f08c379a00000000000000000000000000000000000000000000000000000000081526004018080602001828103825283818151815260200191508051906020019080838360005b83811015611f96578082015181840152602081019050611f7b565b50505050905090810190601f168015611fc35780820380516001836020036101000a031916815260200191505b509250505060405180910390fd5b50846000016001820381548110611fe457fe5b9060005260206000209060020201600101549150509392505050565b600081600001805490509050919050565b60006120328473ffffffffffffffffffffffffffffffffffffffff16612481565b61203f5760019050612222565b60606121a963150b7a0260e01b612054611521565b888787604051602401808573ffffffffffffffffffffffffffffffffffffffff1681526020018473ffffffffffffffffffffffffffffffffffffffff16815260200183815260200180602001828103825283818151815260200191508051906020019080838360005b838110156120d85780820151818401526020810190506120bd565b50505050905090810190601f1680156121055780820380516001836020036101000a031916815260200191505b5095505050505050604051602081830303815290604052907bffffffffffffffffffffffffffffffffffffffffffffffffffffffff19166020820180517bffffffffffffffffffffffffffffffffffffffffffffffffffffffff8381831617835250505050604051806060016040528060328152602001612767603291398773ffffffffffffffffffffffffffffffffffffffff166124949092919063ffffffff16565b905060008180602001905160208110156121c257600080fd5b8101908080519060200190929190505050905063150b7a0260e01b7bffffffffffffffffffffffffffffffffffffffffffffffffffffffff1916817bffffffffffffffffffffffffffffffffffffffffffffffffffffffff191614925050505b949350505050565b600080836001016000848152602001908152602001600020541415905092915050565b60008083600101600084815260200190815260200160002054905060008114612329576000600182039050600060018660000180549050039050600086600001828154811061229857fe5b90600052602060002001549050808760000184815481106122b557fe5b90600052602060002001819055506001830187600101600083815260200190815260200160002081905550866000018054806122ed57fe5b6001900381819060005260206000200160009055905586600101600087815260200190815260200160002060009055600194505050505061232f565b60009150505b92915050565b600061234183836124ac565b61239a57826000018290806001815401808255809150506001900390600052602060002001600090919091909150558260000180549050836001016000848152602001908152602001600020819055506001905061239f565b600090505b92915050565b600080846001016000858152602001908152602001600020549050600081141561244c5784600001604051806040016040528086815260200185815250908060018154018082558091505060019003906000526020600020906002020160009091909190915060008201518160000155602082015181600101555050846000018054905085600101600086815260200190815260200160002081905550600191505061247a565b8285600001600183038154811061245f57fe5b90600052602060002090600202016001018190555060009150505b9392505050565b600080823b905060008111915050919050565b60606124a384846000856124cf565b90509392505050565b600080836001016000848152602001908152602001600020541415905092915050565b60608247101561252a576040517f08c379a00000000000000000000000000000000000000000000000000000000081526004018080602001828103825260268152602001806127bd6026913960400191505060405180910390fd5b61253385612481565b6125a5576040517f08c379a000000000000000000000000000000000000000000000000000000000815260040180806020018281038252601d8152602001807f416464726573733a2063616c6c20746f206e6f6e2d636f6e747261637400000081525060200191505060405180910390fd5b600060608673ffffffffffffffffffffffffffffffffffffffff1685876040518082805190602001908083835b602083106125f557805182526020820191506020810190506020830392506125d2565b6001836020036101000a03801982511681845116808217855250505050505090500191505060006040518083038185875af1925050503d8060008114612657576040519150601f19603f3d011682016040523d82523d6000602084013e61265c565b606091505b509150915061266c828286612678565b92505050949350505050565b606083156126885782905061273d565b60008351111561269b5782518084602001fd5b816040517f08c379a00000000000000000000000000000000000000000000000000000000081526004018080602001828103825283818151815260200191508051906020019080838360005b838110156127025780820151818401526020810190506126e7565b50505050905090810190601f16801561272f5780820380516001836020036101000a031916815260200191505b509250505060405180910390fd5b939250505056fe456e756d657261626c655365743a20696e646578206f7574206f6620626f756e64734552433732313a207472616e7366657220746f206e6f6e20455243373231526563656976657220696d706c656d656e7465724552433732313a207472616e7366657220746f20746865207a65726f2061646472657373416464726573733a20696e73756666696369656e742062616c616e636520666f722063616c6c4552433732313a206f70657261746f7220717565727920666f72206e6f6e6578697374656e7420746f6b656e4552433732313a20617070726f76652063616c6c6572206973206e6f74206f776e6572206e6f7220617070726f76656420666f7220616c6c4552433732313a2062616c616e636520717565727920666f7220746865207a65726f20616464726573734552433732313a206f776e657220717565727920666f72206e6f6e6578697374656e7420746f6b656e456e756d657261626c654d61703a20696e646578206f7574206f6620626f756e64734552433732313a20617070726f76656420717565727920666f72206e6f6e6578697374656e7420746f6b656e4552433732313a207472616e73666572206f6620746f6b656e2074686174206973206e6f74206f776e4552433732314d657461646174613a2055524920717565727920666f72206e6f6e6578697374656e7420746f6b656e4552433732313a20617070726f76616c20746f2063757272656e74206f776e65724552433732313a207472616e736665722063616c6c6572206973206e6f74206f776e6572206e6f7220617070726f766564a2646970667358221220c3564b74df16c9c4c6d16d001415c1c9d8493afaadcb0ce43d7783b71e4f104e64736f6c634300060c0033496e697469616c697a61626c653a20636f6e747261637420697320616c726561647920696e697469616c697a6564",
  "devdoc": {
    "kind": "dev",
    "methods": {
      "approve(address,uint256)": {
        "details": "See {IERC721-approve}."
      },
      "balanceOf(address)": {
        "details": "See {IERC721-balanceOf}."
      },
      "baseURI()": {
        "details": "Returns the base URI set via {_setBaseURI}. This will be automatically added as a prefix in {tokenURI} to each token's URI, or to the token ID if no specific URI is set for that token ID."
      },
      "getApproved(uint256)": {
        "details": "See {IERC721-getApproved}."
      },
      "isApprovedForAll(address,address)": {
        "details": "See {IERC721-isApprovedForAll}."
      },
      "name()": {
        "details": "See {IERC721Metadata-name}."
      },
      "ownerOf(uint256)": {
        "details": "See {IERC721-ownerOf}."
      },
      "safeTransferFrom(address,address,uint256)": {
        "details": "See {IERC721-safeTransferFrom}."
      },
      "safeTransferFrom(address,address,uint256,bytes)": {
        "details": "See {IERC721-safeTransferFrom}."
      },
      "setApprovalForAll(address,bool)": {
        "details": "See {IERC721-setApprovalForAll}."
      },
      "supportsInterface(bytes4)": {
        "details": "See {IERC165-supportsInterface}. Time complexity O(1), guaranteed to always use less than 30 000 gas."
      },
      "symbol()": {
        "details": "See {IERC721Metadata-symbol}."
      },
      "tokenByIndex(uint256)": {
        "details": "See {IERC721Enumerable-tokenByIndex}."
      },
      "tokenOfOwnerByIndex(address,uint256)": {
        "details": "See {IERC721Enumerable-tokenOfOwnerByIndex}."
      },
      "tokenURI(uint256)": {
        "details": "See {IERC721Metadata-tokenURI}."
      },
      "totalSupply()": {
        "details": "See {IERC721Enumerable-totalSupply}."
      },
      "transferFrom(address,address,uint256)": {
        "details": "See {IERC721-transferFrom}."
      }
    },
    "version": 1
  },
  "userdoc": {
    "kind": "user",
    "methods": {},
    "version": 1
  },
  "storageLayout": {
    "storage": [
      {
        "astId": 1033,
        "contract": "contracts/test/ERC721Mintable.sol:ERC721Mintable",
        "label": "_initialized",
        "offset": 0,
        "slot": "0",
        "type": "t_bool"
      },
      {
        "astId": 1036,
        "contract": "contracts/test/ERC721Mintable.sol:ERC721Mintable",
        "label": "_initializing",
        "offset": 1,
        "slot": "0",
        "type": "t_bool"
      },
      {
        "astId": 43,
        "contract": "contracts/test/ERC721Mintable.sol:ERC721Mintable",
        "label": "__gap",
        "offset": 0,
        "slot": "1",
        "type": "t_array(t_uint256)50_storage"
      },
      {
        "astId": 671,
        "contract": "contracts/test/ERC721Mintable.sol:ERC721Mintable",
        "label": "_supportedInterfaces",
        "offset": 0,
        "slot": "51",
        "type": "t_mapping(t_bytes4,t_bool)"
      },
      {
        "astId": 728,
        "contract": "contracts/test/ERC721Mintable.sol:ERC721Mintable",
        "label": "__gap",
        "offset": 0,
        "slot": "52",
        "type": "t_array(t_uint256)49_storage"
      },
      {
        "astId": 3194,
        "contract": "contracts/test/ERC721Mintable.sol:ERC721Mintable",
        "label": "_holderTokens",
        "offset": 0,
        "slot": "101",
        "type": "t_mapping(t_address,t_struct(UintSet)6820_storage)"
      },
      {
        "astId": 3196,
        "contract": "contracts/test/ERC721Mintable.sol:ERC721Mintable",
        "label": "_tokenOwners",
        "offset": 0,
        "slot": "102",
        "type": "t_struct(UintToAddressMap)6260_storage"
      },
      {
        "astId": 3200,
        "contract": "contracts/test/ERC721Mintable.sol:ERC721Mintable",
        "label": "_tokenApprovals",
        "offset": 0,
        "slot": "104",
        "type": "t_mapping(t_uint256,t_address)"
      },
      {
        "astId": 3206,
        "contract": "contracts/test/ERC721Mintable.sol:ERC721Mintable",
        "label": "_operatorApprovals",
        "offset": 0,
        "slot": "105",
        "type": "t_mapping(t_address,t_mapping(t_address,t_bool))"
      },
      {
        "astId": 3208,
        "contract": "contracts/test/ERC721Mintable.sol:ERC721Mintable",
        "label": "_name",
        "offset": 0,
        "slot": "106",
        "type": "t_string_storage"
      },
      {
        "astId": 3210,
        "contract": "contracts/test/ERC721Mintable.sol:ERC721Mintable",
        "label": "_symbol",
        "offset": 0,
        "slot": "107",
        "type": "t_string_storage"
      },
      {
        "astId": 3214,
        "contract": "contracts/test/ERC721Mintable.sol:ERC721Mintable",
        "label": "_tokenURIs",
        "offset": 0,
        "slot": "108",
        "type": "t_mapping(t_uint256,t_string_storage)"
      },
      {
        "astId": 3216,
        "contract": "contracts/test/ERC721Mintable.sol:ERC721Mintable",
        "label": "_baseURI",
        "offset": 0,
        "slot": "109",
        "type": "t_string_storage"
      },
      {
        "astId": 4105,
        "contract": "contracts/test/ERC721Mintable.sol:ERC721Mintable",
        "label": "__gap",
        "offset": 0,
        "slot": "110",
        "type": "t_array(t_uint256)41_storage"
      }
    ],
    "types": {
      "t_address": {
        "encoding": "inplace",
        "label": "address",
        "numberOfBytes": "20"
      },
      "t_array(t_bytes32)dyn_storage": {
        "base": "t_bytes32",
        "encoding": "dynamic_array",
        "label": "bytes32[]",
        "numberOfBytes": "32"
      },
      "t_array(t_struct(MapEntry)5988_storage)dyn_storage": {
        "base": "t_struct(MapEntry)5988_storage",
        "encoding": "dynamic_array",
        "label": "struct EnumerableMapUpgradeable.MapEntry[]",
        "numberOfBytes": "32"
      },
      "t_array(t_uint256)41_storage": {
        "base": "t_uint256",
        "encoding": "inplace",
        "label": "uint256[41]",
        "numberOfBytes": "1312"
      },
      "t_array(t_uint256)49_storage": {
        "base": "t_uint256",
        "encoding": "inplace",
        "label": "uint256[49]",
        "numberOfBytes": "1568"
      },
      "t_array(t_uint256)50_storage": {
        "base": "t_uint256",
        "encoding": "inplace",
        "label": "uint256[50]",
        "numberOfBytes": "1600"
      },
      "t_bool": {
        "encoding": "inplace",
        "label": "bool",
        "numberOfBytes": "1"
      },
      "t_bytes32": {
        "encoding": "inplace",
        "label": "bytes32",
        "numberOfBytes": "32"
      },
      "t_bytes4": {
        "encoding": "inplace",
        "label": "bytes4",
        "numberOfBytes": "4"
      },
      "t_mapping(t_address,t_bool)": {
        "encoding": "mapping",
        "key": "t_address",
        "label": "mapping(address => bool)",
        "numberOfBytes": "32",
        "value": "t_bool"
      },
      "t_mapping(t_address,t_mapping(t_address,t_bool))": {
        "encoding": "mapping",
        "key": "t_address",
        "label": "mapping(address => mapping(address => bool))",
        "numberOfBytes": "32",
        "value": "t_mapping(t_address,t_bool)"
      },
      "t_mapping(t_address,t_struct(UintSet)6820_storage)": {
        "encoding": "mapping",
        "key": "t_address",
        "label": "mapping(address => struct EnumerableSetUpgradeable.UintSet)",
        "numberOfBytes": "32",
        "value": "t_struct(UintSet)6820_storage"
      },
      "t_mapping(t_bytes32,t_uint256)": {
        "encoding": "mapping",
        "key": "t_bytes32",
        "label": "mapping(bytes32 => uint256)",
        "numberOfBytes": "32",
        "value": "t_uint256"
      },
      "t_mapping(t_bytes4,t_bool)": {
        "encoding": "mapping",
        "key": "t_bytes4",
        "label": "mapping(bytes4 => bool)",
        "numberOfBytes": "32",
        "value": "t_bool"
      },
      "t_mapping(t_uint256,t_address)": {
        "encoding": "mapping",
        "key": "t_uint256",
        "label": "mapping(uint256 => address)",
        "numberOfBytes": "32",
        "value": "t_address"
      },
      "t_mapping(t_uint256,t_string_storage)": {
        "encoding": "mapping",
        "key": "t_uint256",
        "label": "mapping(uint256 => string)",
        "numberOfBytes": "32",
        "value": "t_string_storage"
      },
      "t_string_storage": {
        "encoding": "bytes",
        "label": "string",
        "numberOfBytes": "32"
      },
      "t_struct(Map)5996_storage": {
        "encoding": "inplace",
        "label": "struct EnumerableMapUpgradeable.Map",
        "members": [
          {
            "astId": 5991,
            "contract": "contracts/test/ERC721Mintable.sol:ERC721Mintable",
            "label": "_entries",
            "offset": 0,
            "slot": "0",
            "type": "t_array(t_struct(MapEntry)5988_storage)dyn_storage"
          },
          {
            "astId": 5995,
            "contract": "contracts/test/ERC721Mintable.sol:ERC721Mintable",
            "label": "_indexes",
            "offset": 0,
            "slot": "1",
            "type": "t_mapping(t_bytes32,t_uint256)"
          }
        ],
        "numberOfBytes": "64"
      },
      "t_struct(MapEntry)5988_storage": {
        "encoding": "inplace",
        "label": "struct EnumerableMapUpgradeable.MapEntry",
        "members": [
          {
            "astId": 5985,
            "contract": "contracts/test/ERC721Mintable.sol:ERC721Mintable",
            "label": "_key",
            "offset": 0,
            "slot": "0",
            "type": "t_bytes32"
          },
          {
            "astId": 5987,
            "contract": "contracts/test/ERC721Mintable.sol:ERC721Mintable",
            "label": "_value",
            "offset": 0,
            "slot": "1",
            "type": "t_bytes32"
          }
        ],
        "numberOfBytes": "64"
      },
      "t_struct(Set)6446_storage": {
        "encoding": "inplace",
        "label": "struct EnumerableSetUpgradeable.Set",
        "members": [
          {
            "astId": 6441,
            "contract": "contracts/test/ERC721Mintable.sol:ERC721Mintable",
            "label": "_values",
            "offset": 0,
            "slot": "0",
            "type": "t_array(t_bytes32)dyn_storage"
          },
          {
            "astId": 6445,
            "contract": "contracts/test/ERC721Mintable.sol:ERC721Mintable",
            "label": "_indexes",
            "offset": 0,
            "slot": "1",
            "type": "t_mapping(t_bytes32,t_uint256)"
          }
        ],
        "numberOfBytes": "64"
      },
      "t_struct(UintSet)6820_storage": {
        "encoding": "inplace",
        "label": "struct EnumerableSetUpgradeable.UintSet",
        "members": [
          {
            "astId": 6819,
            "contract": "contracts/test/ERC721Mintable.sol:ERC721Mintable",
            "label": "_inner",
            "offset": 0,
            "slot": "0",
            "type": "t_struct(Set)6446_storage"
          }
        ],
        "numberOfBytes": "64"
      },
      "t_struct(UintToAddressMap)6260_storage": {
        "encoding": "inplace",
        "label": "struct EnumerableMapUpgradeable.UintToAddressMap",
        "members": [
          {
            "astId": 6259,
            "contract": "contracts/test/ERC721Mintable.sol:ERC721Mintable",
            "label": "_inner",
            "offset": 0,
            "slot": "0",
            "type": "t_struct(Map)5996_storage"
          }
        ],
        "numberOfBytes": "64"
      },
      "t_uint256": {
        "encoding": "inplace",
        "label": "uint256",
        "numberOfBytes": "32"
      }
    }
  },
  "gasEstimates": {
    "creation": {
      "codeDepositCost": "2139000",
      "executionCost": "infinite",
      "totalCost": "infinite"
    },
    "external": {
      "approve(address,uint256)": "infinite",
      "balanceOf(address)": "infinite",
      "baseURI()": "infinite",
      "getApproved(uint256)": "infinite",
      "isApprovedForAll(address,address)": "1473",
      "mint(address,uint256)": "infinite",
      "name()": "infinite",
      "ownerOf(uint256)": "infinite",
      "safeTransferFrom(address,address,uint256)": "infinite",
      "safeTransferFrom(address,address,uint256,bytes)": "infinite",
      "setApprovalForAll(address,bool)": "infinite",
      "supportsInterface(bytes4)": "1271",
      "symbol()": "infinite",
      "tokenByIndex(uint256)": "infinite",
      "tokenOfOwnerByIndex(address,uint256)": "infinite",
      "tokenURI(uint256)": "infinite",
      "totalSupply()": "1142",
      "transferFrom(address,address,uint256)": "infinite"
    }
  }
}