{
  "abi": [
    {
      "anonymous": false,
      "inputs": [
        {
          "indexed": true,
          "internalType": "address",
          "name": "token",
          "type": "address"
        }
      ],
      "name": "ERC721ControlledCreated",
      "type": "event"
    },
    {
      "inputs": [
        {
          "internalType": "string",
          "name": "name",
          "type": "string"
        },
        {
          "internalType": "string",
          "name": "symbol",
          "type": "string"
        },
        {
          "internalType": "string",
          "name": "baseURI",
          "type": "string"
        }
      ],
      "name": "createERC721Controlled",
      "outputs": [
        {
          "internalType": "contract ERC721Controlled",
          "name": "",
          "type": "address"
        }
      ],
      "stateMutability": "nonpayable",
      "type": "function"
    }
  ],
  "address": "0x166F6240a5560a34352b054468Deb85042c85142",
  "args": [],
  "solcInputHash": "0x9935d76dcae70f9ee241a02af1b14051409570f63b0d6f5c14f97e4eb1a03b3e",
  "bytecode": "0x608060405234801561001057600080fd5b50613fcb806100206000396000f3fe608060405234801561001057600080fd5b506004361061002b5760003560e01c80630154b81714610030575b600080fd5b6102176004803603606081101561004657600080fd5b810190808035906020019064010000000081111561006357600080fd5b82018360208201111561007557600080fd5b8035906020019184600183028401116401000000008311171561009757600080fd5b91908080601f016020809104026020016040519081016040528093929190818152602001838380828437600081840152601f19601f820116905080830192505050505050509192919290803590602001906401000000008111156100fa57600080fd5b82018360208201111561010c57600080fd5b8035906020019184600183028401116401000000008311171561012e57600080fd5b91908080601f016020809104026020016040519081016040528093929190818152602001838380828437600081840152601f19601f8201169050808301925050505050505091929192908035906020019064010000000081111561019157600080fd5b8201836020820111156101a357600080fd5b803590602001918460018302840111640100000000831117156101c557600080fd5b91908080601f016020809104026020016040519081016040528093929190818152602001838380828437600081840152601f19601f820116905080830192505050505050509192919290505050610243565b604051808273ffffffffffffffffffffffffffffffffffffffff16815260200191505060405180910390f35b60008060405161025290610487565b604051809103906000f08015801561026e573d6000803e3d6000fd5b5090508073ffffffffffffffffffffffffffffffffffffffff16635c6d8da1868686336040518563ffffffff1660e01b8152600401808060200180602001806020018573ffffffffffffffffffffffffffffffffffffffff168152602001848103845288818151815260200191508051906020019080838360005b838110156103045780820151818401526020810190506102e9565b50505050905090810190601f1680156103315780820380516001836020036101000a031916815260200191505b50848103835287818151815260200191508051906020019080838360005b8381101561036a57808201518184015260208101905061034f565b50505050905090810190601f1680156103975780820380516001836020036101000a031916815260200191505b50848103825286818151815260200191508051906020019080838360005b838110156103d05780820151818401526020810190506103b5565b50505050905090810190601f1680156103fd5780820380516001836020036101000a031916815260200191505b50975050505050505050600060405180830381600087803b15801561042157600080fd5b505af1158015610435573d6000803e3d6000fd5b505050508073ffffffffffffffffffffffffffffffffffffffff167fc23b9b260b803fee172e6b5e46501ed00704743403d3c1fb40f37020f51e66bf60405160405180910390a2809150509392505050565b613b01806104958339019056fe608060405234801561001057600080fd5b50613ae1806100206000396000f3fe608060405234801561001057600080fd5b50600436106101a95760003560e01c80636352211e116100f9578063a217fddf11610097578063c87b56dd11610071578063c87b56dd14610d6f578063ca15c87314610e16578063d547741f14610e58578063e985e9c514610ea6576101a9565b8063a217fddf14610bfc578063a22cb46514610c1a578063b88d4fde14610c6a576101a9565b806370a08231116100d357806370a0823114610a5b5780639010d07c14610ab357806391d1485414610b1557806395d89b4114610b79576101a9565b80636352211e146109285780636a627842146109805780636c0360eb146109d8576101a9565b8063248a9ca31161016657806342842e0e1161014057806342842e0e146104a45780634cd88b761461051257806355f804b3146106645780635c6d8da11461071f576101a9565b8063248a9ca3146103c65780632f2ff15d1461040857806336568abe14610456576101a9565b806301ffc9a7146101ae57806306fdde0314610211578063081812fc14610294578063095ea7b3146102ec57806318160ddd1461033a57806323b872dd14610358575b600080fd5b6101f9600480360360208110156101c457600080fd5b8101908080357bffffffffffffffffffffffffffffffffffffffffffffffffffffffff19169060200190929190505050610f20565b60405180821515815260200191505060405180910390f35b610219610f88565b6040518080602001828103825283818151815260200191508051906020019080838360005b8381101561025957808201518184015260208101905061023e565b50505050905090810190601f1680156102865780820380516001836020036101000a031916815260200191505b509250505060405180910390f35b6102c0600480360360208110156102aa57600080fd5b810190808035906020019092919050505061102a565b604051808273ffffffffffffffffffffffffffffffffffffffff16815260200191505060405180910390f35b6103386004803603604081101561030257600080fd5b81019080803573ffffffffffffffffffffffffffffffffffffffff169060200190929190803590602001909291905050506110c5565b005b610342611209565b6040518082815260200191505060405180910390f35b6103c46004803603606081101561036e57600080fd5b81019080803573ffffffffffffffffffffffffffffffffffffffff169060200190929190803573ffffffffffffffffffffffffffffffffffffffff16906020019092919080359060200190929190505050611213565b005b6103f2600480360360208110156103dc57600080fd5b8101908080359060200190929190505050611289565b6040518082815260200191505060405180910390f35b6104546004803603604081101561041e57600080fd5b8101908080359060200190929190803573ffffffffffffffffffffffffffffffffffffffff1690602001909291905050506112a9565b005b6104a26004803603604081101561046c57600080fd5b8101908080359060200190929190803573ffffffffffffffffffffffffffffffffffffffff169060200190929190505050611333565b005b610510600480360360608110156104ba57600080fd5b81019080803573ffffffffffffffffffffffffffffffffffffffff169060200190929190803573ffffffffffffffffffffffffffffffffffffffff169060200190929190803590602001909291905050506113cc565b005b6106626004803603604081101561052857600080fd5b810190808035906020019064010000000081111561054557600080fd5b82018360208201111561055757600080fd5b8035906020019184600183028401116401000000008311171561057957600080fd5b91908080601f016020809104026020016040519081016040528093929190818152602001838380828437600081840152601f19601f820116905080830192505050505050509192919290803590602001906401000000008111156105dc57600080fd5b8201836020820111156105ee57600080fd5b8035906020019184600183028401116401000000008311171561061057600080fd5b91908080601f016020809104026020016040519081016040528093929190818152602001838380828437600081840152601f19601f8201169050808301925050505050505091929192905050506113ec565b005b61071d6004803603602081101561067a57600080fd5b810190808035906020019064010000000081111561069757600080fd5b8201836020820111156106a957600080fd5b803590602001918460018302840111640100000000831117156106cb57600080fd5b91908080601f016020809104026020016040519081016040528093929190818152602001838380828437600081840152601f19601f82011690508083019250505050505050919291929050505061153a565b005b6109266004803603608081101561073557600080fd5b810190808035906020019064010000000081111561075257600080fd5b82018360208201111561076457600080fd5b8035906020019184600183028401116401000000008311171561078657600080fd5b91908080601f016020809104026020016040519081016040528093929190818152602001838380828437600081840152601f19601f820116905080830192505050505050509192919290803590602001906401000000008111156107e957600080fd5b8201836020820111156107fb57600080fd5b8035906020019184600183028401116401000000008311171561081d57600080fd5b91908080601f016020809104026020016040519081016040528093929190818152602001838380828437600081840152601f19601f8201169050808301925050505050505091929192908035906020019064010000000081111561088057600080fd5b82018360208201111561089257600080fd5b803590602001918460018302840111640100000000831117156108b457600080fd5b91908080601f016020809104026020016040519081016040528093929190818152602001838380828437600081840152601f19601f820116905080830192505050505050509192919290803573ffffffffffffffffffffffffffffffffffffffff1690602001909291905050506115cc565b005b6109546004803603602081101561093e57600080fd5b81019080803590602001909291905050506117f7565b604051808273ffffffffffffffffffffffffffffffffffffffff16815260200191505060405180910390f35b6109c26004803603602081101561099657600080fd5b81019080803573ffffffffffffffffffffffffffffffffffffffff169060200190929190505050611834565b6040518082815260200191505060405180910390f35b6109e06118ee565b6040518080602001828103825283818151815260200191508051906020019080838360005b83811015610a20578082015181840152602081019050610a05565b50505050905090810190601f168015610a4d5780820380516001836020036101000a031916815260200191505b509250505060405180910390f35b610a9d60048036036020811015610a7157600080fd5b81019080803573ffffffffffffffffffffffffffffffffffffffff169060200190929190505050611990565b6040518082815260200191505060405180910390f35b610ae960048036036040811015610ac957600080fd5b810190808035906020019092919080359060200190929190505050611a5e565b604051808273ffffffffffffffffffffffffffffffffffffffff16815260200191505060405180910390f35b610b6160048036036040811015610b2b57600080fd5b8101908080359060200190929190803573ffffffffffffffffffffffffffffffffffffffff169060200190929190505050611a90565b60405180821515815260200191505060405180910390f35b610b81611ac2565b6040518080602001828103825283818151815260200191508051906020019080838360005b83811015610bc1578082015181840152602081019050610ba6565b50505050905090810190601f168015610bee5780820380516001836020036101000a031916815260200191505b509250505060405180910390f35b610c04611b64565b6040518082815260200191505060405180910390f35b610c6860048036036040811015610c3057600080fd5b81019080803573ffffffffffffffffffffffffffffffffffffffff169060200190929190803515159060200190929190505050611b6b565b005b610d6d60048036036080811015610c8057600080fd5b81019080803573ffffffffffffffffffffffffffffffffffffffff169060200190929190803573ffffffffffffffffffffffffffffffffffffffff1690602001909291908035906020019092919080359060200190640100000000811115610ce757600080fd5b820183602082011115610cf957600080fd5b80359060200191846001830284011164010000000083111715610d1b57600080fd5b91908080601f016020809104026020016040519081016040528093929190818152602001838380828437600081840152601f19601f820116905080830192505050505050509192919290505050611d21565b005b610d9b60048036036020811015610d8557600080fd5b8101908080359060200190929190505050611d99565b6040518080602001828103825283818151815260200191508051906020019080838360005b83811015610ddb578082015181840152602081019050610dc0565b50505050905090810190601f168015610e085780820380516001836020036101000a031916815260200191505b509250505060405180910390f35b610e4260048036036020811015610e2c57600080fd5b8101908080359060200190929190505050612082565b6040518082815260200191505060405180910390f35b610ea460048036036040811015610e6e57600080fd5b8101908080359060200190929190803573ffffffffffffffffffffffffffffffffffffffff1690602001909291905050506120a9565b005b610f0860048036036040811015610ebc57600080fd5b81019080803573ffffffffffffffffffffffffffffffffffffffff169060200190929190803573ffffffffffffffffffffffffffffffffffffffff169060200190929190505050612133565b60405180821515815260200191505060405180910390f35b600060336000837bffffffffffffffffffffffffffffffffffffffffffffffffffffffff19167bffffffffffffffffffffffffffffffffffffffffffffffffffffffff1916815260200190815260200160002060009054906101000a900460ff169050919050565b606060698054600181600116156101000203166002900480601f0160208091040260200160405190810160405280929190818152602001828054600181600116156101000203166002900480156110205780601f10610ff557610100808354040283529160200191611020565b820191906000526020600020905b81548152906001019060200180831161100357829003601f168201915b5050505050905090565b6000611035826121c7565b61108a576040517f08c379a000000000000000000000000000000000000000000000000000000000815260040180806020018281038252602c8152602001806139a7602c913960400191505060405180910390fd5b6067600083815260200190815260200160002060009054906101000a900473ffffffffffffffffffffffffffffffffffffffff169050919050565b60006110d0826117f7565b90508073ffffffffffffffffffffffffffffffffffffffff168373ffffffffffffffffffffffffffffffffffffffff161415611157576040517f08c379a0000000000000000000000000000000000000000000000000000000008152600401808060200182810382526021815260200180613a2b6021913960400191505060405180910390fd5b8073ffffffffffffffffffffffffffffffffffffffff16611176612233565b73ffffffffffffffffffffffffffffffffffffffff1614806111a557506111a48161119f612233565b612133565b5b6111fa576040517f08c379a00000000000000000000000000000000000000000000000000000000081526004018080602001828103825260388152602001806139176038913960400191505060405180910390fd5b611204838361223b565b505050565b6000609f54905090565b61122461121e612233565b826122f4565b611279576040517f08c379a0000000000000000000000000000000000000000000000000000000008152600401808060200182810382526031815260200180613a4c6031913960400191505060405180910390fd5b6112848383836123e8565b505050565b6000606d6000838152602001908152602001600020600201549050919050565b6112d0606d6000848152602001908152602001600020600201546112cb612233565b611a90565b611325576040517f08c379a000000000000000000000000000000000000000000000000000000000815260040180806020018281038252602f815260200180613810602f913960400191505060405180910390fd5b61132f82826126ee565b5050565b61133b612233565b73ffffffffffffffffffffffffffffffffffffffff168173ffffffffffffffffffffffffffffffffffffffff16146113be576040517f08c379a000000000000000000000000000000000000000000000000000000000815260040180806020018281038252602f815260200180613a7d602f913960400191505060405180910390fd5b6113c88282612782565b5050565b6113e783838360405180602001604052806000815250611d21565b505050565b600060019054906101000a900460ff168061140b575061140a612816565b5b80611421575060008054906101000a900460ff16155b611476576040517f08c379a000000000000000000000000000000000000000000000000000000000815260040180806020018281038252602e815260200180613979602e913960400191505060405180910390fd5b60008060019054906101000a900460ff1615905080156114c6576001600060016101000a81548160ff02191690831515021790555060016000806101000a81548160ff0219169083151502179055505b82606990805190602001906114dc929190613750565b5081606a90805190602001906114f3929190613750565b506115046380ac58cd60e01b61282d565b611514635b5e139f60e01b61282d565b80156115355760008060016101000a81548160ff0219169083151502179055505b505050565b61154e6000801b611549612233565b611a90565b6115c0576040517f08c379a000000000000000000000000000000000000000000000000000000000815260040180806020018281038252601b8152602001807f455243373231436f6e74726f6c6c65642f6f6e6c792d61646d696e000000000081525060200191505060405180910390fd5b6115c981612936565b50565b600060019054906101000a900460ff16806115eb57506115ea612816565b5b80611601575060008054906101000a900460ff16155b611656576040517f08c379a000000000000000000000000000000000000000000000000000000000815260040180806020018281038252602e815260200180613979602e913960400191505060405180910390fd5b60008060019054906101000a900460ff1615905080156116a6576001600060016101000a81548160ff02191690831515021790555060016000806101000a81548160ff0219169083151502179055505b6116b085856113ec565b6116b983612936565b6116c66000801b836129de565b7fe9d29247c29487d59c9ceaa4d485328d669ffeb8a859c898d37d91d0f845e0ef8585604051808060200180602001838103835285818151815260200191508051906020019080838360005b8381101561172d578082015181840152602081019050611712565b50505050905090810190601f16801561175a5780820380516001836020036101000a031916815260200191505b50838103825284818151815260200191508051906020019080838360005b83811015611793578082015181840152602081019050611778565b50505050905090810190601f1680156117c05780820380516001836020036101000a031916815260200191505b5094505050505060405180910390a180156117f05760008060016101000a81548160ff0219169083151502179055505b5050505050565b60006066600083815260200190815260200160002060009054906101000a900473ffffffffffffffffffffffffffffffffffffffff169050919050565b600061184a6000801b611845612233565b611a90565b6118bc576040517f08c379a000000000000000000000000000000000000000000000000000000000815260040180806020018281038252601b8152602001807f455243373231436f6e74726f6c6c65642f6f6e6c792d61646d696e000000000081525060200191505060405180910390fd5b6118d26001609f546129ec90919063ffffffff16565b609f819055506118e482609f54612a74565b609f549050919050565b6060606c8054600181600116156101000203166002900480601f0160208091040260200160405190810160405280929190818152602001828054600181600116156101000203166002900480156119865780601f1061195b57610100808354040283529160200191611986565b820191906000526020600020905b81548152906001019060200180831161196957829003601f168201915b5050505050905090565b60008073ffffffffffffffffffffffffffffffffffffffff168273ffffffffffffffffffffffffffffffffffffffff161415611a17576040517f08c379a000000000000000000000000000000000000000000000000000000000815260040180806020018281038252602a81526020018061394f602a913960400191505060405180910390fd5b606560008373ffffffffffffffffffffffffffffffffffffffff1673ffffffffffffffffffffffffffffffffffffffff168152602001908152602001600020549050919050565b6000611a8882606d6000868152602001908152602001600020600001612ce790919063ffffffff16565b905092915050565b6000611aba82606d6000868152602001908152602001600020600001612d0190919063ffffffff16565b905092915050565b6060606a8054600181600116156101000203166002900480601f016020809104026020016040519081016040528092919081815260200182805460018160011615610100020316600290048015611b5a5780601f10611b2f57610100808354040283529160200191611b5a565b820191906000526020600020905b815481529060010190602001808311611b3d57829003601f168201915b5050505050905090565b6000801b81565b611b73612233565b73ffffffffffffffffffffffffffffffffffffffff168273ffffffffffffffffffffffffffffffffffffffff161415611c14576040517f08c379a00000000000000000000000000000000000000000000000000000000081526004018080602001828103825260198152602001807f4552433732313a20617070726f766520746f2063616c6c65720000000000000081525060200191505060405180910390fd5b8060686000611c21612233565b73ffffffffffffffffffffffffffffffffffffffff1673ffffffffffffffffffffffffffffffffffffffff16815260200190815260200160002060008473ffffffffffffffffffffffffffffffffffffffff1673ffffffffffffffffffffffffffffffffffffffff16815260200190815260200160002060006101000a81548160ff0219169083151502179055508173ffffffffffffffffffffffffffffffffffffffff16611cce612233565b73ffffffffffffffffffffffffffffffffffffffff167f17307eab39ab6107e8899845ad3d59bd9653f200f220920489ca2b5937696c318360405180821515815260200191505060405180910390a35050565b611d32611d2c612233565b836122f4565b611d87576040517f08c379a0000000000000000000000000000000000000000000000000000000008152600401808060200182810382526031815260200180613a4c6031913960400191505060405180910390fd5b611d9384848484612d31565b50505050565b6060611da4826121c7565b611df9576040517f08c379a000000000000000000000000000000000000000000000000000000000815260040180806020018281038252602f8152602001806139fc602f913960400191505060405180910390fd5b6060606b60008481526020019081526020016000208054600181600116156101000203166002900480601f016020809104026020016040519081016040528092919081815260200182805460018160011615610100020316600290048015611ea25780601f10611e7757610100808354040283529160200191611ea2565b820191906000526020600020905b815481529060010190602001808311611e8557829003601f168201915b505050505090506000606c8054600181600116156101000203166002900490501415611ed1578091505061207d565b600081511115611faa57606c816040516020018083805460018160011615610100020316600290048015611f3c5780601f10611f1a576101008083540402835291820191611f3c565b820191906000526020600020905b815481529060010190602001808311611f28575b505082805190602001908083835b60208310611f6d5780518252602082019150602081019050602083039250611f4a565b6001836020036101000a0380198251168184511680821785525050505050509050019250505060405160208183030381529060405291505061207d565b606c611fb584612da3565b60405160200180838054600181600116156101000203166002900480156120135780601f10611ff1576101008083540402835291820191612013565b820191906000526020600020905b815481529060010190602001808311611fff575b505082805190602001908083835b602083106120445780518252602082019150602081019050602083039250612021565b6001836020036101000a038019825116818451168082178552505050505050905001925050506040516020818303038152906040529150505b919050565b60006120a2606d6000848152602001908152602001600020600001612eea565b9050919050565b6120d0606d6000848152602001908152602001600020600201546120cb612233565b611a90565b612125576040517f08c379a00000000000000000000000000000000000000000000000000000000081526004018080602001828103825260308152602001806138e76030913960400191505060405180910390fd5b61212f8282612782565b5050565b6000606860008473ffffffffffffffffffffffffffffffffffffffff1673ffffffffffffffffffffffffffffffffffffffff16815260200190815260200160002060008373ffffffffffffffffffffffffffffffffffffffff1673ffffffffffffffffffffffffffffffffffffffff16815260200190815260200160002060009054906101000a900460ff16905092915050565b60008073ffffffffffffffffffffffffffffffffffffffff166066600084815260200190815260200160002060009054906101000a900473ffffffffffffffffffffffffffffffffffffffff1673ffffffffffffffffffffffffffffffffffffffff1614159050919050565b600033905090565b816067600083815260200190815260200160002060006101000a81548173ffffffffffffffffffffffffffffffffffffffff021916908373ffffffffffffffffffffffffffffffffffffffff160217905550808273ffffffffffffffffffffffffffffffffffffffff166122ae836117f7565b73ffffffffffffffffffffffffffffffffffffffff167f8c5be1e5ebec7d5bd14f71427d1e84f3dd0314c0f7b2291e5b200ac8c7c3b92560405160405180910390a45050565b60006122ff826121c7565b612354576040517f08c379a000000000000000000000000000000000000000000000000000000000815260040180806020018281038252602c8152602001806138bb602c913960400191505060405180910390fd5b600061235f836117f7565b90508073ffffffffffffffffffffffffffffffffffffffff168473ffffffffffffffffffffffffffffffffffffffff1614806123ce57508373ffffffffffffffffffffffffffffffffffffffff166123b68461102a565b73ffffffffffffffffffffffffffffffffffffffff16145b806123df57506123de8185612133565b5b91505092915050565b8273ffffffffffffffffffffffffffffffffffffffff16612408826117f7565b73ffffffffffffffffffffffffffffffffffffffff1614612474576040517f08c379a00000000000000000000000000000000000000000000000000000000081526004018080602001828103825260298152602001806139d36029913960400191505060405180910390fd5b600073ffffffffffffffffffffffffffffffffffffffff168273ffffffffffffffffffffffffffffffffffffffff1614156124fa576040517f08c379a00000000000000000000000000000000000000000000000000000000081526004018080602001828103825260248152602001806138716024913960400191505060405180910390fd5b612505838383612eff565b61251060008261223b565b6125636001606560008673ffffffffffffffffffffffffffffffffffffffff1673ffffffffffffffffffffffffffffffffffffffff16815260200190815260200160002054612f0490919063ffffffff16565b606560008573ffffffffffffffffffffffffffffffffffffffff1673ffffffffffffffffffffffffffffffffffffffff168152602001908152602001600020819055506125f96001606560008573ffffffffffffffffffffffffffffffffffffffff1673ffffffffffffffffffffffffffffffffffffffff168152602001908152602001600020546129ec90919063ffffffff16565b606560008473ffffffffffffffffffffffffffffffffffffffff1673ffffffffffffffffffffffffffffffffffffffff16815260200190815260200160002081905550816066600083815260200190815260200160002060006101000a81548173ffffffffffffffffffffffffffffffffffffffff021916908373ffffffffffffffffffffffffffffffffffffffff160217905550808273ffffffffffffffffffffffffffffffffffffffff168473ffffffffffffffffffffffffffffffffffffffff167fddf252ad1be2c89b69c2b068fc378daa952ba7f163c4a11628f55a4df523b3ef60405160405180910390a4505050565b61271681606d6000858152602001908152602001600020600001612f4e90919063ffffffff16565b1561277e57612723612233565b73ffffffffffffffffffffffffffffffffffffffff168173ffffffffffffffffffffffffffffffffffffffff16837f2f8788117e7eff1d82e926ec794901d17c78024a50270940304540a733656f0d60405160405180910390a45b5050565b6127aa81606d6000858152602001908152602001600020600001612f7e90919063ffffffff16565b15612812576127b7612233565b73ffffffffffffffffffffffffffffffffffffffff168173ffffffffffffffffffffffffffffffffffffffff16837ff6391f5c32d9c69d2a47ea670b442974b53935d1edc7fd64eb21e047a839171b60405160405180910390a45b5050565b6000803090506000813b9050600081149250505090565b63ffffffff60e01b817bffffffffffffffffffffffffffffffffffffffffffffffffffffffff191614156128c9576040517f08c379a000000000000000000000000000000000000000000000000000000000815260040180806020018281038252601c8152602001807f4552433136353a20696e76616c696420696e746572666163652069640000000081525060200191505060405180910390fd5b600160336000837bffffffffffffffffffffffffffffffffffffffffffffffffffffffff19167bffffffffffffffffffffffffffffffffffffffffffffffffffffffff1916815260200190815260200160002060006101000a81548160ff02191690831515021790555050565b61293f81612fae565b7f30bdcf23002cf602da83b188394bcc301ab4d549a416248466c09fc88e2252ae816040518080602001828103825283818151815260200191508051906020019080838360005b838110156129a1578082015181840152602081019050612986565b50505050905090810190601f1680156129ce5780820380516001836020036101000a031916815260200191505b509250505060405180910390a150565b6129e882826126ee565b5050565b600080828401905083811015612a6a576040517f08c379a000000000000000000000000000000000000000000000000000000000815260040180806020018281038252601b8152602001807f536166654d6174683a206164646974696f6e206f766572666c6f77000000000081525060200191505060405180910390fd5b8091505092915050565b600073ffffffffffffffffffffffffffffffffffffffff168273ffffffffffffffffffffffffffffffffffffffff161415612b17576040517f08c379a00000000000000000000000000000000000000000000000000000000081526004018080602001828103825260208152602001807f4552433732313a206d696e7420746f20746865207a65726f206164647265737381525060200191505060405180910390fd5b612b20816121c7565b15612b93576040517f08c379a000000000000000000000000000000000000000000000000000000000815260040180806020018281038252601c8152602001807f4552433732313a20746f6b656e20616c7265616479206d696e7465640000000081525060200191505060405180910390fd5b612b9f60008383612eff565b612bf26001606560008573ffffffffffffffffffffffffffffffffffffffff1673ffffffffffffffffffffffffffffffffffffffff168152602001908152602001600020546129ec90919063ffffffff16565b606560008473ffffffffffffffffffffffffffffffffffffffff1673ffffffffffffffffffffffffffffffffffffffff16815260200190815260200160002081905550816066600083815260200190815260200160002060006101000a81548173ffffffffffffffffffffffffffffffffffffffff021916908373ffffffffffffffffffffffffffffffffffffffff160217905550808273ffffffffffffffffffffffffffffffffffffffff16600073ffffffffffffffffffffffffffffffffffffffff167fddf252ad1be2c89b69c2b068fc378daa952ba7f163c4a11628f55a4df523b3ef60405160405180910390a45050565b6000612cf68360000183612fc8565b60001c905092915050565b6000612d29836000018373ffffffffffffffffffffffffffffffffffffffff1660001b61304b565b905092915050565b612d3c8484846123e8565b612d488484848461306e565b612d9d576040517f08c379a000000000000000000000000000000000000000000000000000000000815260040180806020018281038252603281526020018061383f6032913960400191505060405180910390fd5b50505050565b60606000821415612deb576040518060400160405280600181526020017f30000000000000000000000000000000000000000000000000000000000000008152509050612ee5565b600082905060005b60008214612e15578080600101915050600a8281612e0d57fe5b049150612df3565b60608167ffffffffffffffff81118015612e2e57600080fd5b506040519080825280601f01601f191660200182016040528015612e615781602001600182028036833780820191505090505b50905060006001830390508593505b60008414612edd57600a8481612e8257fe5b0660300160f81b82828060019003935081518110612e9c57fe5b60200101907effffffffffffffffffffffffffffffffffffffffffffffffffffffffffffff1916908160001a905350600a8481612ed557fe5b049350612e70565b819450505050505b919050565b6000612ef882600001613287565b9050919050565b505050565b6000612f4683836040518060400160405280601e81526020017f536166654d6174683a207375627472616374696f6e206f766572666c6f770000815250613298565b905092915050565b6000612f76836000018373ffffffffffffffffffffffffffffffffffffffff1660001b613358565b905092915050565b6000612fa6836000018373ffffffffffffffffffffffffffffffffffffffff1660001b6133c8565b905092915050565b80606c9080519060200190612fc4929190613750565b5050565b600081836000018054905011613029576040517f08c379a00000000000000000000000000000000000000000000000000000000081526004018080602001828103825260228152602001806137ee6022913960400191505060405180910390fd5b82600001828154811061303857fe5b9060005260206000200154905092915050565b600080836001016000848152602001908152602001600020541415905092915050565b600061308f8473ffffffffffffffffffffffffffffffffffffffff166134b0565b61309c576001905061327f565b606061320663150b7a0260e01b6130b1612233565b888787604051602401808573ffffffffffffffffffffffffffffffffffffffff1681526020018473ffffffffffffffffffffffffffffffffffffffff16815260200183815260200180602001828103825283818151815260200191508051906020019080838360005b8381101561313557808201518184015260208101905061311a565b50505050905090810190601f1680156131625780820380516001836020036101000a031916815260200191505b5095505050505050604051602081830303815290604052907bffffffffffffffffffffffffffffffffffffffffffffffffffffffff19166020820180517bffffffffffffffffffffffffffffffffffffffffffffffffffffffff838183161783525050505060405180606001604052806032815260200161383f603291398773ffffffffffffffffffffffffffffffffffffffff166134c39092919063ffffffff16565b9050600081806020019051602081101561321f57600080fd5b8101908080519060200190929190505050905063150b7a0260e01b7bffffffffffffffffffffffffffffffffffffffffffffffffffffffff1916817bffffffffffffffffffffffffffffffffffffffffffffffffffffffff191614925050505b949350505050565b600081600001805490509050919050565b6000838311158290613345576040517f08c379a00000000000000000000000000000000000000000000000000000000081526004018080602001828103825283818151815260200191508051906020019080838360005b8381101561330a5780820151818401526020810190506132ef565b50505050905090810190601f1680156133375780820380516001836020036101000a031916815260200191505b509250505060405180910390fd5b5060008385039050809150509392505050565b6000613364838361304b565b6133bd5782600001829080600181540180825580915050600190039060005260206000200160009091909190915055826000018054905083600101600084815260200190815260200160002081905550600190506133c2565b600090505b92915050565b600080836001016000848152602001908152602001600020549050600081146134a4576000600182039050600060018660000180549050039050600086600001828154811061341357fe5b906000526020600020015490508087600001848154811061343057fe5b906000526020600020018190555060018301876001016000838152602001908152602001600020819055508660000180548061346857fe5b600190038181906000526020600020016000905590558660010160008781526020019081526020016000206000905560019450505050506134aa565b60009150505b92915050565b600080823b905060008111915050919050565b60606134d284846000856134db565b90509392505050565b606082471015613536576040517f08c379a00000000000000000000000000000000000000000000000000000000081526004018080602001828103825260268152602001806138956026913960400191505060405180910390fd5b61353f856134b0565b6135b1576040517f08c379a000000000000000000000000000000000000000000000000000000000815260040180806020018281038252601d8152602001807f416464726573733a2063616c6c20746f206e6f6e2d636f6e747261637400000081525060200191505060405180910390fd5b600060608673ffffffffffffffffffffffffffffffffffffffff1685876040518082805190602001908083835b6020831061360157805182526020820191506020810190506020830392506135de565b6001836020036101000a03801982511681845116808217855250505050505090500191505060006040518083038185875af1925050503d8060008114613663576040519150601f19603f3d011682016040523d82523d6000602084013e613668565b606091505b5091509150613678828286613684565b92505050949350505050565b6060831561369457829050613749565b6000835111156136a75782518084602001fd5b816040517f08c379a00000000000000000000000000000000000000000000000000000000081526004018080602001828103825283818151815260200191508051906020019080838360005b8381101561370e5780820151818401526020810190506136f3565b50505050905090810190601f16801561373b5780820380516001836020036101000a031916815260200191505b509250505060405180910390fd5b9392505050565b828054600181600116156101000203166002900490600052602060002090601f016020900481019282601f1061379157805160ff19168380011785556137bf565b828001600101855582156137bf579182015b828111156137be5782518255916020019190600101906137a3565b5b5090506137cc91906137d0565b5090565b5b808211156137e95760008160009055506001016137d1565b509056fe456e756d657261626c655365743a20696e646578206f7574206f6620626f756e6473416363657373436f6e74726f6c3a2073656e646572206d75737420626520616e2061646d696e20746f206772616e744552433732313a207472616e7366657220746f206e6f6e20455243373231526563656976657220696d706c656d656e7465724552433732313a207472616e7366657220746f20746865207a65726f2061646472657373416464726573733a20696e73756666696369656e742062616c616e636520666f722063616c6c4552433732313a206f70657261746f7220717565727920666f72206e6f6e6578697374656e7420746f6b656e416363657373436f6e74726f6c3a2073656e646572206d75737420626520616e2061646d696e20746f207265766f6b654552433732313a20617070726f76652063616c6c6572206973206e6f74206f776e6572206e6f7220617070726f76656420666f7220616c6c4552433732313a2062616c616e636520717565727920666f7220746865207a65726f2061646472657373496e697469616c697a61626c653a20636f6e747261637420697320616c726561647920696e697469616c697a65644552433732313a20617070726f76656420717565727920666f72206e6f6e6578697374656e7420746f6b656e4552433732313a207472616e73666572206f6620746f6b656e2074686174206973206e6f74206f776e4552433732314d657461646174613a2055524920717565727920666f72206e6f6e6578697374656e7420746f6b656e4552433732313a20617070726f76616c20746f2063757272656e74206f776e65724552433732313a207472616e736665722063616c6c6572206973206e6f74206f776e6572206e6f7220617070726f766564416363657373436f6e74726f6c3a2063616e206f6e6c792072656e6f756e636520726f6c657320666f722073656c66a2646970667358221220958faf6727d4b327198e51f9f2e38c4e03ffcfd9edb9e8b297fc61942ab0a54e64736f6c634300060c0033a2646970667358221220587507b0a5ab0c76a8e759d88a17e3e68177a4f2b41c04b64d8b0b373f3a39f164736f6c634300060c0033",
  "devdoc": {
    "author": "Brendan Asselstine <brendan@pooltogether.com>",
    "kind": "dev",
    "methods": {
      "createERC721Controlled(string,string,string)": {
        "returns": {
          "_0": "The address of the newly created ERC721Controlled"
        }
      }
    },
    "title": "Factory to create ERC721Controlled tokens",
    "version": 1
  },
  "userdoc": {
    "events": {
      "ERC721ControlledCreated(address)": {
        "notice": "Emitted when a ERC721Controlled is created"
      }
    },
    "kind": "user",
    "methods": {
      "createERC721Controlled(string,string,string)": {
        "notice": "Creates an ERC721Controlled contract"
      }
    },
    "notice": "Creates new ERC721Controlled tokens using the minimal proxy pattern.",
    "version": 1
  },
  "storageLayout": {
    "storage": [],
    "types": null
  },
  "gasEstimates": {
    "creation": {
      "codeDepositCost": "3266200",
      "executionCost": "3627",
      "totalCost": "3269827"
    },
    "external": {
      "createERC721Controlled(string,string,string)": "infinite"
    }
  }
}