{
  "abi": [
    {
      "inputs": [],
      "stateMutability": "nonpayable",
      "type": "constructor"
    },
    {
      "anonymous": false,
      "inputs": [
        {
          "indexed": false,
          "internalType": "address",
          "name": "prizeStrategy",
          "type": "address"
        },
        {
          "indexed": false,
          "internalType": "address",
          "name": "erc721Controlled",
          "type": "address"
        }
      ],
      "name": "ERC721ControlledSet",
      "type": "event"
    },
    {
      "anonymous": false,
      "inputs": [
        {
          "indexed": true,
          "internalType": "bytes32",
          "name": "role",
          "type": "bytes32"
        },
        {
          "indexed": true,
          "internalType": "bytes32",
          "name": "previousAdminRole",
          "type": "bytes32"
        },
        {
          "indexed": true,
          "internalType": "bytes32",
          "name": "newAdminRole",
          "type": "bytes32"
        }
      ],
      "name": "RoleAdminChanged",
      "type": "event"
    },
    {
      "anonymous": false,
      "inputs": [
        {
          "indexed": true,
          "internalType": "bytes32",
          "name": "role",
          "type": "bytes32"
        },
        {
          "indexed": true,
          "internalType": "address",
          "name": "account",
          "type": "address"
        },
        {
          "indexed": true,
          "internalType": "address",
          "name": "sender",
          "type": "address"
        }
      ],
      "name": "RoleGranted",
      "type": "event"
    },
    {
      "anonymous": false,
      "inputs": [
        {
          "indexed": true,
          "internalType": "bytes32",
          "name": "role",
          "type": "bytes32"
        },
        {
          "indexed": true,
          "internalType": "address",
          "name": "account",
          "type": "address"
        },
        {
          "indexed": true,
          "internalType": "address",
          "name": "sender",
          "type": "address"
        }
      ],
      "name": "RoleRevoked",
      "type": "event"
    },
    {
      "inputs": [],
      "name": "DEFAULT_ADMIN_ROLE",
      "outputs": [
        {
          "internalType": "bytes32",
          "name": "",
          "type": "bytes32"
        }
      ],
      "stateMutability": "view",
      "type": "function"
    },
    {
      "inputs": [
        {
          "internalType": "uint256",
          "name": "",
          "type": "uint256"
        },
        {
          "internalType": "uint256",
          "name": "",
          "type": "uint256"
        }
      ],
      "name": "afterDistributeAwards",
      "outputs": [],
      "stateMutability": "nonpayable",
      "type": "function"
    },
    {
      "inputs": [
        {
          "internalType": "address",
          "name": "",
          "type": "address"
        }
      ],
      "name": "erc721ControlledTokens",
      "outputs": [
        {
          "internalType": "contract ERC721Controlled",
          "name": "",
          "type": "address"
        }
      ],
      "stateMutability": "view",
      "type": "function"
    },
    {
      "inputs": [
        {
          "internalType": "bytes32",
          "name": "role",
          "type": "bytes32"
        }
      ],
      "name": "getRoleAdmin",
      "outputs": [
        {
          "internalType": "bytes32",
          "name": "",
          "type": "bytes32"
        }
      ],
      "stateMutability": "view",
      "type": "function"
    },
    {
      "inputs": [
        {
          "internalType": "bytes32",
          "name": "role",
          "type": "bytes32"
        },
        {
          "internalType": "uint256",
          "name": "index",
          "type": "uint256"
        }
      ],
      "name": "getRoleMember",
      "outputs": [
        {
          "internalType": "address",
          "name": "",
          "type": "address"
        }
      ],
      "stateMutability": "view",
      "type": "function"
    },
    {
      "inputs": [
        {
          "internalType": "bytes32",
          "name": "role",
          "type": "bytes32"
        }
      ],
      "name": "getRoleMemberCount",
      "outputs": [
        {
          "internalType": "uint256",
          "name": "",
          "type": "uint256"
        }
      ],
      "stateMutability": "view",
      "type": "function"
    },
    {
      "inputs": [
        {
          "internalType": "bytes32",
          "name": "role",
          "type": "bytes32"
        },
        {
          "internalType": "address",
          "name": "account",
          "type": "address"
        }
      ],
      "name": "grantRole",
      "outputs": [],
      "stateMutability": "nonpayable",
      "type": "function"
    },
    {
      "inputs": [
        {
          "internalType": "bytes32",
          "name": "role",
          "type": "bytes32"
        },
        {
          "internalType": "address",
          "name": "account",
          "type": "address"
        }
      ],
      "name": "hasRole",
      "outputs": [
        {
          "internalType": "bool",
          "name": "",
          "type": "bool"
        }
      ],
      "stateMutability": "view",
      "type": "function"
    },
    {
      "inputs": [
        {
          "internalType": "bytes32",
          "name": "role",
          "type": "bytes32"
        },
        {
          "internalType": "address",
          "name": "account",
          "type": "address"
        }
      ],
      "name": "renounceRole",
      "outputs": [],
      "stateMutability": "nonpayable",
      "type": "function"
    },
    {
      "inputs": [
        {
          "internalType": "bytes32",
          "name": "role",
          "type": "bytes32"
        },
        {
          "internalType": "address",
          "name": "account",
          "type": "address"
        }
      ],
      "name": "revokeRole",
      "outputs": [],
      "stateMutability": "nonpayable",
      "type": "function"
    },
    {
      "inputs": [
        {
          "internalType": "address",
          "name": "prizeStrategy",
          "type": "address"
        },
        {
          "internalType": "contract ERC721Controlled",
          "name": "_erc721Controlled",
          "type": "address"
        }
      ],
      "name": "setERC721Controlled",
      "outputs": [],
      "stateMutability": "nonpayable",
      "type": "function"
    }
  ],
  "address": "0x6c7330466aE67d1Eda70BF3ad50A75E8a269E51F",
  "args": [],
  "solcInputHash": "0x6565576f0b769fcd0b1b2526166851c117d5d9eb2aef4e11b307004d0a020ddd",
  "bytecode": "0x60806040523480156200001157600080fd5b50620000276000801b336200002d60201b60201c565b620001c3565b6200003f82826200004360201b60201c565b5050565b6200007181600080858152602001908152602001600020600001620000e660201b62000be51790919060201c565b15620000e257620000876200011e60201b60201c565b73ffffffffffffffffffffffffffffffffffffffff168173ffffffffffffffffffffffffffffffffffffffff16837f2f8788117e7eff1d82e926ec794901d17c78024a50270940304540a733656f0d60405160405180910390a45b5050565b600062000116836000018373ffffffffffffffffffffffffffffffffffffffff1660001b6200012660201b60201c565b905092915050565b600033905090565b60006200013a8383620001a060201b60201c565b620001955782600001829080600181540180825580915050600190039060005260206000200160009091909190915055826000018054905083600101600084815260200190815260200160002081905550600190506200019a565b600090505b92915050565b600080836001016000848152602001908152602001600020541415905092915050565b61111d80620001d36000396000f3fe608060405234801561001057600080fd5b50600436106100a85760003560e01c80639010d07c116100715780639010d07c1461022757806391d1485414610289578063a217fddf146102ed578063ca15c8731461030b578063d547741f1461034d578063d85fd03c1461039b576100a8565b806215264b146100ad578063248a9ca3146101115780632f2ff15d1461015357806336568abe146101a1578063873a8822146101ef575b600080fd5b61010f600480360360408110156100c357600080fd5b81019080803573ffffffffffffffffffffffffffffffffffffffff169060200190929190803573ffffffffffffffffffffffffffffffffffffffff169060200190929190505050610409565b005b61013d6004803603602081101561012757600080fd5b810190808035906020019092919050505061065a565b6040518082815260200191505060405180910390f35b61019f6004803603604081101561016957600080fd5b8101908080359060200190929190803573ffffffffffffffffffffffffffffffffffffffff169060200190929190505050610679565b005b6101ed600480360360408110156101b757600080fd5b8101908080359060200190929190803573ffffffffffffffffffffffffffffffffffffffff169060200190929190505050610702565b005b6102256004803603604081101561020557600080fd5b81019080803590602001909291908035906020019092919050505061079b565b005b61025d6004803603604081101561023d57600080fd5b810190808035906020019092919080359060200190929190505050610a9a565b604051808273ffffffffffffffffffffffffffffffffffffffff16815260200191505060405180910390f35b6102d56004803603604081101561029f57600080fd5b8101908080359060200190929190803573ffffffffffffffffffffffffffffffffffffffff169060200190929190505050610acb565b60405180821515815260200191505060405180910390f35b6102f5610afc565b6040518082815260200191505060405180910390f35b6103376004803603602081101561032157600080fd5b8101908080359060200190929190505050610b03565b6040518082815260200191505060405180910390f35b6103996004803603604081101561036357600080fd5b8101908080359060200190929190803573ffffffffffffffffffffffffffffffffffffffff169060200190929190505050610b29565b005b6103dd600480360360208110156103b157600080fd5b81019080803573ffffffffffffffffffffffffffffffffffffffff169060200190929190505050610bb2565b604051808273ffffffffffffffffffffffffffffffffffffffff16815260200191505060405180910390f35b6104166000801b33610acb565b61046b576040517f08c379a00000000000000000000000000000000000000000000000000000000081526004018080602001828103825260278152602001806110926027913960400191505060405180910390fd5b8073ffffffffffffffffffffffffffffffffffffffff166391d148546000801b306040518363ffffffff1660e01b8152600401808381526020018273ffffffffffffffffffffffffffffffffffffffff1681526020019250505060206040518083038186803b1580156104dd57600080fd5b505afa1580156104f1573d6000803e3d6000fd5b505050506040513d602081101561050757600080fd5b810190808051906020019092919050505061056d576040517f08c379a000000000000000000000000000000000000000000000000000000000815260040180806020018281038252602f815260200180611063602f913960400191505060405180910390fd5b80600160008473ffffffffffffffffffffffffffffffffffffffff1673ffffffffffffffffffffffffffffffffffffffff16815260200190815260200160002060006101000a81548173ffffffffffffffffffffffffffffffffffffffff021916908373ffffffffffffffffffffffffffffffffffffffff1602179055507f13d4c6f527eb021f2d84872cdc97d700cae352e4b7c67be69f2478f134d5a32c8282604051808373ffffffffffffffffffffffffffffffffffffffff1681526020018273ffffffffffffffffffffffffffffffffffffffff1681526020019250505060405180910390a15050565b6000806000838152602001908152602001600020600201549050919050565b61069f6000808481526020019081526020016000206002015461069a610c15565b610acb565b6106f4576040517f08c379a000000000000000000000000000000000000000000000000000000000815260040180806020018281038252602f815260200180611004602f913960400191505060405180910390fd5b6106fe8282610c1d565b5050565b61070a610c15565b73ffffffffffffffffffffffffffffffffffffffff168173ffffffffffffffffffffffffffffffffffffffff161461078d576040517f08c379a000000000000000000000000000000000000000000000000000000000815260040180806020018281038252602f8152602001806110b9602f913960400191505060405180910390fd5b6107978282610cb0565b5050565b6000600160003373ffffffffffffffffffffffffffffffffffffffff1673ffffffffffffffffffffffffffffffffffffffff16815260200190815260200160002060009054906101000a900473ffffffffffffffffffffffffffffffffffffffff169050600073ffffffffffffffffffffffffffffffffffffffff168173ffffffffffffffffffffffffffffffffffffffff16141561083a5750610a96565b60003390506060600167ffffffffffffffff8111801561085957600080fd5b506040519080825280602002602001820160405280156108885781602001602082028036833780820191505090505b5090508273ffffffffffffffffffffffffffffffffffffffff16636a6278428373ffffffffffffffffffffffffffffffffffffffff1663719ce73e6040518163ffffffff1660e01b815260040160206040518083038186803b1580156108ed57600080fd5b505afa158015610901573d6000803e3d6000fd5b505050506040513d602081101561091757600080fd5b81019080805190602001909291905050506040518263ffffffff1660e01b8152600401808273ffffffffffffffffffffffffffffffffffffffff168152602001915050602060405180830381600087803b15801561097457600080fd5b505af1158015610988573d6000803e3d6000fd5b505050506040513d602081101561099e57600080fd5b8101908080519060200190929190505050816000815181106109bc57fe5b6020026020010181815250508173ffffffffffffffffffffffffffffffffffffffff1663c48ddbcb84836040518363ffffffff1660e01b8152600401808373ffffffffffffffffffffffffffffffffffffffff16815260200180602001828103825283818151815260200191508051906020019060200280838360005b83811015610a54578082015181840152602081019050610a39565b505050509050019350505050600060405180830381600087803b158015610a7a57600080fd5b505af1158015610a8e573d6000803e3d6000fd5b505050505050505b5050565b6000610ac382600080868152602001908152602001600020600001610d4390919063ffffffff16565b905092915050565b6000610af482600080868152602001908152602001600020600001610d5d90919063ffffffff16565b905092915050565b6000801b81565b6000610b22600080848152602001908152602001600020600001610d8d565b9050919050565b610b4f60008084815260200190815260200160002060020154610b4a610c15565b610acb565b610ba4576040517f08c379a00000000000000000000000000000000000000000000000000000000081526004018080602001828103825260308152602001806110336030913960400191505060405180910390fd5b610bae8282610cb0565b5050565b60016020528060005260406000206000915054906101000a900473ffffffffffffffffffffffffffffffffffffffff1681565b6000610c0d836000018373ffffffffffffffffffffffffffffffffffffffff1660001b610da2565b905092915050565b600033905090565b610c4481600080858152602001908152602001600020600001610be590919063ffffffff16565b15610cac57610c51610c15565b73ffffffffffffffffffffffffffffffffffffffff168173ffffffffffffffffffffffffffffffffffffffff16837f2f8788117e7eff1d82e926ec794901d17c78024a50270940304540a733656f0d60405160405180910390a45b5050565b610cd781600080858152602001908152602001600020600001610e1290919063ffffffff16565b15610d3f57610ce4610c15565b73ffffffffffffffffffffffffffffffffffffffff168173ffffffffffffffffffffffffffffffffffffffff16837ff6391f5c32d9c69d2a47ea670b442974b53935d1edc7fd64eb21e047a839171b60405160405180910390a45b5050565b6000610d528360000183610e42565b60001c905092915050565b6000610d85836000018373ffffffffffffffffffffffffffffffffffffffff1660001b610ec5565b905092915050565b6000610d9b82600001610ee8565b9050919050565b6000610dae8383610ec5565b610e07578260000182908060018154018082558091505060019003906000526020600020016000909190919091505582600001805490508360010160008481526020019081526020016000208190555060019050610e0c565b600090505b92915050565b6000610e3a836000018373ffffffffffffffffffffffffffffffffffffffff1660001b610ef9565b905092915050565b600081836000018054905011610ea3576040517f08c379a0000000000000000000000000000000000000000000000000000000008152600401808060200182810382526022815260200180610fe26022913960400191505060405180910390fd5b826000018281548110610eb257fe5b9060005260206000200154905092915050565b600080836001016000848152602001908152602001600020541415905092915050565b600081600001805490509050919050565b60008083600101600084815260200190815260200160002054905060008114610fd55760006001820390506000600186600001805490500390506000866000018281548110610f4457fe5b9060005260206000200154905080876000018481548110610f6157fe5b9060005260206000200181905550600183018760010160008381526020019081526020016000208190555086600001805480610f9957fe5b60019003818190600052602060002001600090559055866001016000878152602001908152602001600020600090556001945050505050610fdb565b60009150505b9291505056fe456e756d657261626c655365743a20696e646578206f7574206f6620626f756e6473416363657373436f6e74726f6c3a2073656e646572206d75737420626520616e2061646d696e20746f206772616e74416363657373436f6e74726f6c3a2073656e646572206d75737420626520616e2061646d696e20746f207265766f6b654c6f6f74426f785072697a6553747261746567794c697374656e65722f6d697373696e672d61646d696e2d726f6c654c6f6f74426f785072697a6553747261746567794c697374656e65722f6f6e6c792d61646d696e416363657373436f6e74726f6c3a2063616e206f6e6c792072656e6f756e636520726f6c657320666f722073656c66a264697066735822122000a2593009541b0940ae56781fd7cd7d9362791c3415a1edc2f2a364a5e9382964736f6c634300060c0033",
  "devdoc": {
    "kind": "dev",
    "methods": {
      "getRoleAdmin(bytes32)": {
        "details": "Returns the admin role that controls `role`. See {grantRole} and {revokeRole}. To change a role's admin, use {_setRoleAdmin}."
      },
      "getRoleMember(bytes32,uint256)": {
        "details": "Returns one of the accounts that have `role`. `index` must be a value between 0 and {getRoleMemberCount}, non-inclusive. Role bearers are not sorted in any particular way, and their ordering may change at any point. WARNING: When using {getRoleMember} and {getRoleMemberCount}, make sure you perform all queries on the same block. See the following https://forum.openzeppelin.com/t/iterating-over-elements-on-enumerableset-in-openzeppelin-contracts/2296[forum post] for more information."
      },
      "getRoleMemberCount(bytes32)": {
        "details": "Returns the number of accounts that have `role`. Can be used together with {getRoleMember} to enumerate all bearers of a role."
      },
      "grantRole(bytes32,address)": {
        "details": "Grants `role` to `account`. If `account` had not been already granted `role`, emits a {RoleGranted} event. Requirements: - the caller must have ``role``'s admin role."
      },
      "hasRole(bytes32,address)": {
        "details": "Returns `true` if `account` has been granted `role`."
      },
      "renounceRole(bytes32,address)": {
        "details": "Revokes `role` from the calling account. Roles are often managed via {grantRole} and {revokeRole}: this function's purpose is to provide a mechanism for accounts to lose their privileges if they are compromised (such as when a trusted device is misplaced). If the calling account had been granted `role`, emits a {RoleRevoked} event. Requirements: - the caller must be `account`."
      },
      "revokeRole(bytes32,address)": {
        "details": "Revokes `role` from `account`. If `account` had been granted `role`, emits a {RoleRevoked} event. Requirements: - the caller must have ``role``'s admin role."
      }
    },
    "title": "Allows a PrizeStrategy to automatically create a new ERC721 after the award",
    "version": 1
  },
  "userdoc": {
    "kind": "user",
    "methods": {},
    "version": 1
  },
  "storageLayout": {
    "storage": [
      {
        "astId": 45,
        "contract": "contracts/LootBoxPrizeStrategyListener.sol:LootBoxPrizeStrategyListener",
        "label": "_roles",
        "offset": 0,
        "slot": "0",
        "type": "t_mapping(t_bytes32,t_struct(RoleData)41_storage)"
      },
      {
        "astId": 7961,
        "contract": "contracts/LootBoxPrizeStrategyListener.sol:LootBoxPrizeStrategyListener",
        "label": "erc721ControlledTokens",
        "offset": 0,
        "slot": "1",
        "type": "t_mapping(t_address,t_contract(ERC721Controlled)7197)"
      }
    ],
    "types": {
      "t_address": {
        "encoding": "inplace",
        "label": "address",
        "numberOfBytes": "20"
      },
      "t_array(t_bytes32)dyn_storage": {
        "base": "t_bytes32",
        "encoding": "dynamic_array",
        "label": "bytes32[]",
        "numberOfBytes": "32"
      },
      "t_bytes32": {
        "encoding": "inplace",
        "label": "bytes32",
        "numberOfBytes": "32"
      },
      "t_contract(ERC721Controlled)7197": {
        "encoding": "inplace",
        "label": "contract ERC721Controlled",
        "numberOfBytes": "20"
      },
      "t_mapping(t_address,t_contract(ERC721Controlled)7197)": {
        "encoding": "mapping",
        "key": "t_address",
        "label": "mapping(address => contract ERC721Controlled)",
        "numberOfBytes": "32",
        "value": "t_contract(ERC721Controlled)7197"
      },
      "t_mapping(t_bytes32,t_struct(RoleData)41_storage)": {
        "encoding": "mapping",
        "key": "t_bytes32",
        "label": "mapping(bytes32 => struct AccessControl.RoleData)",
        "numberOfBytes": "32",
        "value": "t_struct(RoleData)41_storage"
      },
      "t_mapping(t_bytes32,t_uint256)": {
        "encoding": "mapping",
        "key": "t_bytes32",
        "label": "mapping(bytes32 => uint256)",
        "numberOfBytes": "32",
        "value": "t_uint256"
      },
      "t_struct(AddressSet)5886_storage": {
        "encoding": "inplace",
        "label": "struct EnumerableSet.AddressSet",
        "members": [
          {
            "astId": 5885,
            "contract": "contracts/LootBoxPrizeStrategyListener.sol:LootBoxPrizeStrategyListener",
            "label": "_inner",
            "offset": 0,
            "slot": "0",
            "type": "t_struct(Set)5706_storage"
          }
        ],
        "numberOfBytes": "64"
      },
      "t_struct(RoleData)41_storage": {
        "encoding": "inplace",
        "label": "struct AccessControl.RoleData",
        "members": [
          {
            "astId": 38,
            "contract": "contracts/LootBoxPrizeStrategyListener.sol:LootBoxPrizeStrategyListener",
            "label": "members",
            "offset": 0,
            "slot": "0",
            "type": "t_struct(AddressSet)5886_storage"
          },
          {
            "astId": 40,
            "contract": "contracts/LootBoxPrizeStrategyListener.sol:LootBoxPrizeStrategyListener",
            "label": "adminRole",
            "offset": 0,
            "slot": "2",
            "type": "t_bytes32"
          }
        ],
        "numberOfBytes": "96"
      },
      "t_struct(Set)5706_storage": {
        "encoding": "inplace",
        "label": "struct EnumerableSet.Set",
        "members": [
          {
            "astId": 5701,
            "contract": "contracts/LootBoxPrizeStrategyListener.sol:LootBoxPrizeStrategyListener",
            "label": "_values",
            "offset": 0,
            "slot": "0",
            "type": "t_array(t_bytes32)dyn_storage"
          },
          {
            "astId": 5705,
            "contract": "contracts/LootBoxPrizeStrategyListener.sol:LootBoxPrizeStrategyListener",
            "label": "_indexes",
            "offset": 0,
            "slot": "1",
            "type": "t_mapping(t_bytes32,t_uint256)"
          }
        ],
        "numberOfBytes": "64"
      },
      "t_uint256": {
        "encoding": "inplace",
        "label": "uint256",
        "numberOfBytes": "32"
      }
    }
  },
  "gasEstimates": {
    "creation": {
      "codeDepositCost": "876200",
      "executionCost": "infinite",
      "totalCost": "infinite"
    },
    "external": {
      "DEFAULT_ADMIN_ROLE()": "255",
      "afterDistributeAwards(uint256,uint256)": "infinite",
      "erc721ControlledTokens(address)": "1310",
      "getRoleAdmin(bytes32)": "1207",
      "getRoleMember(bytes32,uint256)": "infinite",
      "getRoleMemberCount(bytes32)": "1356",
      "grantRole(bytes32,address)": "infinite",
      "hasRole(bytes32,address)": "infinite",
      "renounceRole(bytes32,address)": "infinite",
      "revokeRole(bytes32,address)": "infinite",
      "setERC721Controlled(address,address)": "infinite"
    }
  }
}