{
  "abi": [
    {
      "inputs": [
        {
          "internalType": "contract LootBoxContainerFactory",
          "name": "_factory",
          "type": "address"
        }
      ],
      "stateMutability": "nonpayable",
      "type": "constructor"
    },
    {
      "anonymous": false,
      "inputs": [
        {
          "indexed": false,
          "internalType": "address",
          "name": "proxy",
          "type": "address"
        }
      ],
      "name": "ProxyCreated",
      "type": "event"
    },
    {
      "inputs": [
        {
          "internalType": "string",
          "name": "name",
          "type": "string"
        },
        {
          "internalType": "string",
          "name": "symbol",
          "type": "string"
        },
        {
          "internalType": "string",
          "name": "baseURI_",
          "type": "string"
        }
      ],
      "name": "create",
      "outputs": [
        {
          "internalType": "contract LootBox",
          "name": "",
          "type": "address"
        }
      ],
      "stateMutability": "nonpayable",
      "type": "function"
    },
    {
      "inputs": [
        {
          "internalType": "address",
          "name": "_logic",
          "type": "address"
        },
        {
          "internalType": "bytes",
          "name": "_data",
          "type": "bytes"
        }
      ],
      "name": "deployMinimal",
      "outputs": [
        {
          "internalType": "address",
          "name": "proxy",
          "type": "address"
        }
      ],
      "stateMutability": "nonpayable",
      "type": "function"
    },
    {
      "inputs": [],
      "name": "lootBoxContainerFactory",
      "outputs": [
        {
          "internalType": "contract LootBoxContainerFactory",
          "name": "",
          "type": "address"
        }
      ],
      "stateMutability": "view",
      "type": "function"
    },
    {
      "inputs": [],
      "name": "lootBoxInstance",
      "outputs": [
        {
          "internalType": "contract LootBox",
          "name": "",
          "type": "address"
        }
      ],
      "stateMutability": "view",
      "type": "function"
    }
  ],
  "address": "0xB3a87172F555ae2a2AB79Be60B336D2F7D0187f0",
  "args": [
    "0x0cEC1A9154Ff802e7934Fc916Ed7Ca50bDE6844e"
  ],
  "solcInputHash": "0x7b4ce4916980e2d41d798962539a4021a46046e589cc964ef2e2a22d7040018f",
  "bytecode": "0x608060405234801561001057600080fd5b50604051612b55380380612b558339818101604052602081101561003357600080fd5b505160405161004190610092565b604051809103906000f08015801561005d573d6000803e3d6000fd5b50600080546001600160a01b039283166001600160a01b0319918216179091556001805493909216921691909117905561009f565b6125358061062083390190565b610572806100ae6000396000f3fe608060405234801561001057600080fd5b506004361061004c5760003560e01c80630b1b8cad146100515780632695dc46146100755780635d28560a1461007d578063b3eeb5e21461018b575b600080fd5b61005961023f565b604080516001600160a01b039092168252519081900360200190f35b61005961024e565b6100596004803603606081101561009357600080fd5b810190602081018135600160201b8111156100ad57600080fd5b8201836020820111156100bf57600080fd5b803590602001918460018302840111600160201b831117156100e057600080fd5b919390929091602081019035600160201b8111156100fd57600080fd5b82018360208201111561010f57600080fd5b803590602001918460018302840111600160201b8311171561013057600080fd5b919390929091602081019035600160201b81111561014d57600080fd5b82018360208201111561015f57600080fd5b803590602001918460018302840111600160201b8311171561018057600080fd5b50909250905061025d565b610059600480360360408110156101a157600080fd5b6001600160a01b038235169190810190604081016020820135600160201b8111156101cb57600080fd5b8201836020820111156101dd57600080fd5b803590602001918460018302840111600160201b831117156101fe57600080fd5b91908080601f01602080910402602001604051908101604052809392919081815260200183838082843760009201919091525092955061039c945050505050565b6001546001600160a01b031681565b6000546001600160a01b031681565b6000805460408051602081019091528281528291610286916001600160a01b039091169061039c565b9050806001600160a01b0316635c6d8da1898989898989600160009054906101000a90046001600160a01b03166040518863ffffffff1660e01b815260040180806020018060200180602001856001600160a01b0316815260200184810384528b8b82818152602001925080828437600083820152601f01601f191690910185810384528981526020019050898980828437600083820152601f01601f191690910185810383528781526020019050878780828437600081840152601f19601f8201169050808301925050509a5050505050505050505050600060405180830381600087803b15801561037857600080fd5b505af115801561038c573d6000803e3d6000fd5b50929a9950505050505050505050565b6000808360601b9050604051733d602d80600a3d3981f3363d3d373d3d3d363d7360601b81528160148201526e5af43d82803e903d91602b57fd5bf360881b60288201526037816000f0604080516001600160a01b038316815290519194507efffc2da0b561cae30d9826d37709e9421c4725faebc226cbbb7ef5fc5e7349925081900360200190a1825115610511576000826001600160a01b0316846040518082805190602001908083835b602083106104685780518252601f199092019160209182019101610449565b6001836020036101000a0380198251168184511680821785525050505050509050019150506000604051808303816000865af19150503d80600081146104ca576040519150601f19603f3d011682016040523d82523d6000602084013e6104cf565b606091505b505090508061050f5760405162461bcd60e51b81526004018080602001828103825260248152602001806105196024913960400191505060405180910390fd5b505b509291505056fe50726f7879466163746f72792f636f6e7374727563746f722d63616c6c2d6661696c6564a26469706673582212209d6ac647f0dddd4448a9933b2245c288ccc696e5279e1a89dfdc6cb92b16012764736f6c634300060c0033608060405234801561001057600080fd5b50612515806100206000396000f3fe608060405234801561001057600080fd5b50600436106101375760003560e01c80634f6ccce7116100b857806395d89b411161007c57806395d89b411461049c578063a22cb465146104a4578063b3eeb5e2146104d2578063b88d4fde14610586578063c87b56dd1461064a578063e985e9c51461066757610137565b80634f6ccce71461031d5780635c6d8da11461033a5780636352211e146104515780636c0360eb1461046e57806370a082311461047657610137565b80631249c58b116100ff5780631249c58b1461026357806318160ddd1461026b57806323b872dd146102855780632f745c59146102bb57806342842e0e146102e757610137565b806301ffc9a71461013c57806306fdde0314610177578063081812fc146101f4578063095ea7b31461022d5780630b1b8cad1461025b575b600080fd5b6101636004803603602081101561015257600080fd5b50356001600160e01b031916610695565b604080519115158252519081900360200190f35b61017f6106b8565b6040805160208082528351818301528351919283929083019185019080838360005b838110156101b95781810151838201526020016101a1565b50505050905090810190601f1680156101e65780820380516001836020036101000a031916815260200191505b509250505060405180910390f35b6102116004803603602081101561020a57600080fd5b503561074e565b604080516001600160a01b039092168252519081900360200190f35b6102596004803603604081101561024357600080fd5b506001600160a01b0381351690602001356107b0565b005b61021161088b565b61021161089a565b610273610939565b60408051918252519081900360200190f35b6102596004803603606081101561029b57600080fd5b506001600160a01b0381358116916020810135909116906040013561094a565b610273600480360360408110156102d157600080fd5b506001600160a01b0381351690602001356109a1565b610259600480360360608110156102fd57600080fd5b506001600160a01b038135811691602081013590911690604001356109cc565b6102736004803603602081101561033357600080fd5b50356109e7565b6102596004803603608081101561035057600080fd5b810190602081018135600160201b81111561036a57600080fd5b82018360208201111561037c57600080fd5b803590602001918460018302840111600160201b8311171561039d57600080fd5b919390929091602081019035600160201b8111156103ba57600080fd5b8201836020820111156103cc57600080fd5b803590602001918460018302840111600160201b831117156103ed57600080fd5b919390929091602081019035600160201b81111561040a57600080fd5b82018360208201111561041c57600080fd5b803590602001918460018302840111600160201b8311171561043d57600080fd5b9193509150356001600160a01b03166109fd565b6102116004803603602081101561046757600080fd5b5035610c2f565b61017f610c57565b6102736004803603602081101561048c57600080fd5b50356001600160a01b0316610cb8565b61017f610d20565b610259600480360360408110156104ba57600080fd5b506001600160a01b0381351690602001351515610d81565b610211600480360360408110156104e857600080fd5b6001600160a01b038235169190810190604081016020820135600160201b81111561051257600080fd5b82018360208201111561052457600080fd5b803590602001918460018302840111600160201b8311171561054557600080fd5b91908080601f016020809104026020016040519081016040528093929190818152602001838380828437600092019190915250929550610e86945050505050565b6102596004803603608081101561059c57600080fd5b6001600160a01b03823581169260208101359091169160408201359190810190608081016060820135600160201b8111156105d657600080fd5b8201836020820111156105e857600080fd5b803590602001918460018302840111600160201b8311171561060957600080fd5b91908080601f016020809104026020016040519081016040528093929190818152602001838380828437600092019190915250929550611002945050505050565b61017f6004803603602081101561066057600080fd5b5035611060565b6101636004803603604081101561067d57600080fd5b506001600160a01b0381358116916020013516611307565b6001600160e01b0319811660009081526065602052604090205460ff165b919050565b609c8054604080516020601f60026000196101006001881615020190951694909404938401819004810282018101909252828152606093909290918301828280156107445780601f1061071957610100808354040283529160200191610744565b820191906000526020600020905b81548152906001019060200180831161072757829003601f168201915b5050505050905090565b600061075982611335565b6107945760405162461bcd60e51b815260040180806020018281038252602c8152602001806123b8602c913960400191505060405180910390fd5b506000908152609a60205260409020546001600160a01b031690565b60006107bb82610c2f565b9050806001600160a01b0316836001600160a01b0316141561080e5760405162461bcd60e51b815260040180806020018281038252602181526020018061248e6021913960400191505060405180910390fd5b806001600160a01b0316610820611342565b6001600160a01b0316148061084157506108418161083c611342565b611307565b61087c5760405162461bcd60e51b815260040180806020018281038252603881526020018061230b6038913960400191505060405180910390fd5b6108868383611346565b505050565b60c9546001600160a01b031681565b60c954604080516313db266360e31b8152306004820152905160009283926001600160a01b0390911691639ed933189160248082019260209290919082900301818787803b1580156108eb57600080fd5b505af11580156108ff573d6000803e3d6000fd5b505050506040513d602081101561091557600080fd5b505190506001600160a01b03811661093461092e611342565b826113b4565b505090565b600061094560986114e2565b905090565b61095b610955611342565b826114ed565b6109965760405162461bcd60e51b81526004018080602001828103825260318152602001806124af6031913960400191505060405180910390fd5b610886838383611591565b6001600160a01b03821660009081526097602052604081206109c390836116dd565b90505b92915050565b61088683838360405180602001604052806000815250611002565b6000806109f56098846116e9565b509392505050565b600054610100900460ff1680610a165750610a16611705565b80610a24575060005460ff16155b610a5f5760405162461bcd60e51b815260040180806020018281038252602e815260200180612408602e913960400191505060405180910390fd5b600054610100900460ff16158015610a8a576000805460ff1961ff0019909116610100171660011790555b610afd88888080601f01602080910402602001604051908101604052809392919081815260200183838082843760009201919091525050604080516020601f8c018190048102820181019092528a815292508a915089908190840183828082843760009201919091525061170b92505050565b610b3c84848080601f0160208091040260200160405190810160405280939291908181526020018383808284376000920191909152506117c892505050565b60c980546001600160a01b0319166001600160a01b03841617905560408051606080825281018990527f17a88adbba1876b8ba8f8a45aa3e320511ca8aacbbd99e1bd3dc92f0a8bb1a17918a918a918a918a918a918a91819060208201908201608083018a8a80828437600083820152601f01601f191690910185810384528881526020019050888880828437600083820152601f01601f191690910185810383528681526020019050868680828437600083820152604051601f909101601f19169092018290039b50909950505050505050505050a18015610c25576000805461ff00191690555b5050505050505050565b60006109c68260405180606001604052806029815260200161236d60299139609891906117df565b609f8054604080516020601f60026000196101006001881615020190951694909404938401819004810282018101909252828152606093909290918301828280156107445780601f1061071957610100808354040283529160200191610744565b60006001600160a01b038216610cff5760405162461bcd60e51b815260040180806020018281038252602a815260200180612343602a913960400191505060405180910390fd5b6001600160a01b03821660009081526097602052604090206109c6906114e2565b609d8054604080516020601f60026000196101006001881615020190951694909404938401819004810282018101909252828152606093909290918301828280156107445780601f1061071957610100808354040283529160200191610744565b610d89611342565b6001600160a01b0316826001600160a01b03161415610def576040805162461bcd60e51b815260206004820152601960248201527f4552433732313a20617070726f766520746f2063616c6c657200000000000000604482015290519081900360640190fd5b80609b6000610dfc611342565b6001600160a01b03908116825260208083019390935260409182016000908120918716808252919093529120805460ff191692151592909217909155610e40611342565b6001600160a01b03167f17307eab39ab6107e8899845ad3d59bd9653f200f220920489ca2b5937696c318360405180821515815260200191505060405180910390a35050565b6000808360601b9050604051733d602d80600a3d3981f3363d3d373d3d3d363d7360601b81528160148201526e5af43d82803e903d91602b57fd5bf360881b60288201526037816000f0604080516001600160a01b038316815290519194507efffc2da0b561cae30d9826d37709e9421c4725faebc226cbbb7ef5fc5e7349925081900360200190a1825115610ffb576000826001600160a01b0316846040518082805190602001908083835b60208310610f525780518252601f199092019160209182019101610f33565b6001836020036101000a0380198251168184511680821785525050505050509050019150506000604051808303816000865af19150503d8060008114610fb4576040519150601f19603f3d011682016040523d82523d6000602084013e610fb9565b606091505b5050905080610ff95760405162461bcd60e51b81526004018080602001828103825260248152602001806123e46024913960400191505060405180910390fd5b505b5092915050565b61101361100d611342565b836114ed565b61104e5760405162461bcd60e51b81526004018080602001828103825260318152602001806124af6031913960400191505060405180910390fd5b61105a848484846117f6565b50505050565b606061106b82611335565b6110a65760405162461bcd60e51b815260040180806020018281038252602f81526020018061245f602f913960400191505060405180910390fd5b6000828152609e602090815260409182902080548351601f600260001961010060018616150201909316929092049182018490048402810184019094528084526060939283018282801561113b5780601f106111105761010080835404028352916020019161113b565b820191906000526020600020905b81548152906001019060200180831161111e57829003601f168201915b5050609f54939450505050600260001961010060018416150201909116046111645790506106b3565b80511561123557609f8160405160200180838054600181600116156101000203166002900480156111cc5780601f106111aa5761010080835404028352918201916111cc565b820191906000526020600020905b8154815290600101906020018083116111b8575b5050825160208401908083835b602083106111f85780518252601f1990920191602091820191016111d9565b6001836020036101000a038019825116818451168082178552505050505050905001925050506040516020818303038152906040529150506106b3565b609f61124084611848565b604051602001808380546001816001161561010002031660029004801561129e5780601f1061127c57610100808354040283529182019161129e565b820191906000526020600020905b81548152906001019060200180831161128a575b5050825160208401908083835b602083106112ca5780518252601f1990920191602091820191016112ab565b6001836020036101000a03801982511681845116808217855250505050505090500192505050604051602081830303815290604052915050919050565b6001600160a01b039182166000908152609b6020908152604080832093909416825291909152205460ff1690565b60006109c6609883611923565b3390565b6000818152609a6020526040902080546001600160a01b0319166001600160a01b038416908117909155819061137b82610c2f565b6001600160a01b03167f8c5be1e5ebec7d5bd14f71427d1e84f3dd0314c0f7b2291e5b200ac8c7c3b92560405160405180910390a45050565b6001600160a01b03821661140f576040805162461bcd60e51b815260206004820181905260248201527f4552433732313a206d696e7420746f20746865207a65726f2061646472657373604482015290519081900360640190fd5b61141881611335565b1561146a576040805162461bcd60e51b815260206004820152601c60248201527f4552433732313a20746f6b656e20616c7265616479206d696e74656400000000604482015290519081900360640190fd5b61147660008383610886565b6001600160a01b0382166000908152609760205260409020611498908261192f565b506114a56098828461193b565b5060405181906001600160a01b038416906000907fddf252ad1be2c89b69c2b068fc378daa952ba7f163c4a11628f55a4df523b3ef908290a45050565b60006109c682611951565b60006114f882611335565b6115335760405162461bcd60e51b815260040180806020018281038252602c8152602001806122df602c913960400191505060405180910390fd5b600061153e83610c2f565b9050806001600160a01b0316846001600160a01b031614806115795750836001600160a01b031661156e8461074e565b6001600160a01b0316145b8061158957506115898185611307565b949350505050565b826001600160a01b03166115a482610c2f565b6001600160a01b0316146115e95760405162461bcd60e51b81526004018080602001828103825260298152602001806124366029913960400191505060405180910390fd5b6001600160a01b03821661162e5760405162461bcd60e51b81526004018080602001828103825260248152602001806122bb6024913960400191505060405180910390fd5b611639838383610886565b611644600082611346565b6001600160a01b03831660009081526097602052604090206116669082611955565b506001600160a01b0382166000908152609760205260409020611689908261192f565b506116966098828461193b565b5080826001600160a01b0316846001600160a01b03167fddf252ad1be2c89b69c2b068fc378daa952ba7f163c4a11628f55a4df523b3ef60405160405180910390a4505050565b60006109c38383611961565b60008080806116f886866119c5565b9097909650945050505050565b303b1590565b600054610100900460ff16806117245750611724611705565b80611732575060005460ff16155b61176d5760405162461bcd60e51b815260040180806020018281038252602e815260200180612408602e913960400191505060405180910390fd5b600054610100900460ff16158015611798576000805460ff1961ff0019909116610100171660011790555b6117a0611a40565b6117a8611ae2565b6117b28383611b7f565b8015610886576000805461ff0019169055505050565b80516117db90609f9060208401906121d3565b5050565b60006117ec848484611c64565b90505b9392505050565b611801848484611591565b61180d84848484611d2e565b61105a5760405162461bcd60e51b81526004018080602001828103825260328152602001806122896032913960400191505060405180910390fd5b60608161186d57506040805180820190915260018152600360fc1b60208201526106b3565b8160005b811561188557600101600a82049150611871565b60608167ffffffffffffffff8111801561189e57600080fd5b506040519080825280601f01601f1916602001820160405280156118c9576020820181803683370190505b50859350905060001982015b831561191a57600a840660300160f81b828280600190039350815181106118f857fe5b60200101906001600160f81b031916908160001a905350600a840493506118d5565b50949350505050565b60006109c38383611f57565b60006109c38383611f6f565b60006117ec84846001600160a01b038516611fb9565b5490565b60006109c38383612050565b815460009082106119a35760405162461bcd60e51b81526004018080602001828103825260228152602001806122676022913960400191505060405180910390fd5b8260000182815481106119b257fe5b9060005260206000200154905092915050565b815460009081908310611a095760405162461bcd60e51b81526004018080602001828103825260228152602001806123966022913960400191505060405180910390fd5b6000846000018481548110611a1a57fe5b906000526020600020906002020190508060000154816001015492509250509250929050565b600054610100900460ff1680611a595750611a59611705565b80611a67575060005460ff16155b611aa25760405162461bcd60e51b815260040180806020018281038252602e815260200180612408602e913960400191505060405180910390fd5b600054610100900460ff16158015611acd576000805460ff1961ff0019909116610100171660011790555b8015611adf576000805461ff00191690555b50565b600054610100900460ff1680611afb5750611afb611705565b80611b09575060005460ff16155b611b445760405162461bcd60e51b815260040180806020018281038252602e815260200180612408602e913960400191505060405180910390fd5b600054610100900460ff16158015611b6f576000805460ff1961ff0019909116610100171660011790555b611acd6301ffc9a760e01b612116565b600054610100900460ff1680611b985750611b98611705565b80611ba6575060005460ff16155b611be15760405162461bcd60e51b815260040180806020018281038252602e815260200180612408602e913960400191505060405180910390fd5b600054610100900460ff16158015611c0c576000805460ff1961ff0019909116610100171660011790555b8251611c1f90609c9060208601906121d3565b508151611c3390609d9060208501906121d3565b50611c446380ac58cd60e01b612116565b611c54635b5e139f60e01b612116565b6117b263780e9d6360e01b612116565b60008281526001840160205260408120548281611cff5760405162461bcd60e51b81526004018080602001828103825283818151815260200191508051906020019080838360005b83811015611cc4578181015183820152602001611cac565b50505050905090810190601f168015611cf15780820380516001836020036101000a031916815260200191505b509250505060405180910390fd5b50846000016001820381548110611d1257fe5b9060005260206000209060020201600101549150509392505050565b6000611d42846001600160a01b031661219a565b611d4e57506001611589565b600060606001600160a01b038616630a85bd0160e11b611d6c611342565b89888860405160240180856001600160a01b03168152602001846001600160a01b0316815260200183815260200180602001828103825283818151815260200191508051906020019080838360005b83811015611dd3578181015183820152602001611dbb565b50505050905090810190601f168015611e005780820380516001836020036101000a031916815260200191505b5060408051601f198184030181529181526020820180516001600160e01b03166001600160e01b0319909a16999099178952518151919890975087965094509250829150849050835b60208310611e685780518252601f199092019160209182019101611e49565b6001836020036101000a0380198251168184511680821785525050505050509050019150506000604051808303816000865af19150503d8060008114611eca576040519150601f19603f3d011682016040523d82523d6000602084013e611ecf565b606091505b509150915081611f2057805115611ee95780518082602001fd5b60405162461bcd60e51b81526004018080602001828103825260328152602001806122896032913960400191505060405180910390fd5b6000818060200190516020811015611f3757600080fd5b50516001600160e01b031916630a85bd0160e11b14935061158992505050565b60009081526001919091016020526040902054151590565b6000611f7b8383611f57565b611fb1575081546001818101845560008481526020808220909301849055845484825282860190935260409020919091556109c6565b5060006109c6565b60008281526001840160205260408120548061201e5750506040805180820182528381526020808201848152865460018181018955600089815284812095516002909302909501918255915190820155865486845281880190925292909120556117ef565b8285600001600183038154811061203157fe5b90600052602060002090600202016001018190555060009150506117ef565b6000818152600183016020526040812054801561210c578354600019808301919081019060009087908390811061208357fe5b90600052602060002001549050808760000184815481106120a057fe5b6000918252602080832090910192909255828152600189810190925260409020908401905586548790806120d057fe5b600190038181906000526020600020016000905590558660010160008781526020019081526020016000206000905560019450505050506109c6565b60009150506109c6565b6001600160e01b03198082161415612175576040805162461bcd60e51b815260206004820152601c60248201527f4552433136353a20696e76616c696420696e7465726661636520696400000000604482015290519081900360640190fd5b6001600160e01b0319166000908152606560205260409020805460ff19166001179055565b6000813f7fc5d2460186f7233c927e7db2dcc703c0e500b653ca82273b7bfad8045d85a470818114801590611589575050151592915050565b828054600181600116156101000203166002900490600052602060002090601f016020900481019282601f1061221457805160ff1916838001178555612241565b82800160010185558215612241579182015b82811115612241578251825591602001919060010190612226565b5061224d929150612251565b5090565b5b8082111561224d576000815560010161225256fe456e756d657261626c655365743a20696e646578206f7574206f6620626f756e64734552433732313a207472616e7366657220746f206e6f6e20455243373231526563656976657220696d706c656d656e7465724552433732313a207472616e7366657220746f20746865207a65726f20616464726573734552433732313a206f70657261746f7220717565727920666f72206e6f6e6578697374656e7420746f6b656e4552433732313a20617070726f76652063616c6c6572206973206e6f74206f776e6572206e6f7220617070726f76656420666f7220616c6c4552433732313a2062616c616e636520717565727920666f7220746865207a65726f20616464726573734552433732313a206f776e657220717565727920666f72206e6f6e6578697374656e7420746f6b656e456e756d657261626c654d61703a20696e646578206f7574206f6620626f756e64734552433732313a20617070726f76656420717565727920666f72206e6f6e6578697374656e7420746f6b656e50726f7879466163746f72792f636f6e7374727563746f722d63616c6c2d6661696c6564436f6e747261637420696e7374616e63652068617320616c7265616479206265656e20696e697469616c697a65644552433732313a207472616e73666572206f6620746f6b656e2074686174206973206e6f74206f776e4552433732314d657461646174613a2055524920717565727920666f72206e6f6e6578697374656e7420746f6b656e4552433732313a20617070726f76616c20746f2063757272656e74206f776e65724552433732313a207472616e736665722063616c6c6572206973206e6f74206f776e6572206e6f7220617070726f766564a264697066735822122056238a48cb5706900b983fa829f27ddb457a78f4b65b513f4e65e2a35457a79864736f6c634300060c0033",
  "devdoc": {
    "kind": "dev",
    "methods": {},
    "version": 1
  },
  "userdoc": {
    "kind": "user",
    "methods": {},
    "version": 1
  },
  "storageLayout": {
    "storage": [
      {
        "astId": 2903,
        "contract": "contracts/LootBoxFactory.sol:LootBoxFactory",
        "label": "lootBoxInstance",
        "offset": 0,
        "slot": "0",
        "type": "t_contract(LootBox)2647"
      },
      {
        "astId": 2905,
        "contract": "contracts/LootBoxFactory.sol:LootBoxFactory",
        "label": "lootBoxContainerFactory",
        "offset": 0,
        "slot": "1",
        "type": "t_contract(LootBoxContainerFactory)2895"
      }
    ],
    "types": {
      "t_contract(LootBox)2647": {
        "encoding": "inplace",
        "label": "contract LootBox",
        "numberOfBytes": "20"
      },
      "t_contract(LootBoxContainerFactory)2895": {
        "encoding": "inplace",
        "label": "contract LootBoxContainerFactory",
        "numberOfBytes": "20"
      }
    }
  },
  "gasEstimates": {
    "creation": {
      "codeDepositCost": "278800",
      "executionCost": "infinite",
      "totalCost": "infinite"
    },
    "external": {
      "create(string,string,string)": "infinite",
      "deployMinimal(address,bytes)": "infinite",
      "lootBoxContainerFactory()": "1015",
      "lootBoxInstance()": "1037"
    }
  }
}