{
  "abi": [
    {
      "inputs": [],
      "stateMutability": "nonpayable",
      "type": "constructor"
    },
    {
      "anonymous": false,
      "inputs": [
        {
          "indexed": true,
          "internalType": "address",
          "name": "erc721",
          "type": "address"
        },
        {
          "indexed": true,
          "internalType": "uint256",
          "name": "tokenId",
          "type": "uint256"
        },
        {
          "indexed": true,
          "internalType": "address",
          "name": "operator",
          "type": "address"
        }
      ],
      "name": "Executed",
      "type": "event"
    },
    {
      "anonymous": false,
      "inputs": [
        {
          "indexed": true,
          "internalType": "address",
          "name": "erc721",
          "type": "address"
        },
        {
          "indexed": true,
          "internalType": "uint256",
          "name": "tokenId",
          "type": "uint256"
        },
        {
          "indexed": true,
          "internalType": "address",
          "name": "operator",
          "type": "address"
        }
      ],
      "name": "Plundered",
      "type": "event"
    },
    {
      "inputs": [
        {
          "internalType": "address",
          "name": "erc721",
          "type": "address"
        },
        {
          "internalType": "uint256",
          "name": "tokenId",
          "type": "uint256"
        }
      ],
      "name": "computeAddress",
      "outputs": [
        {
          "internalType": "address",
          "name": "",
          "type": "address"
        }
      ],
      "stateMutability": "view",
      "type": "function"
    },
    {
      "inputs": [
        {
          "internalType": "address",
          "name": "erc721",
          "type": "address"
        },
        {
          "internalType": "uint256",
          "name": "tokenId",
          "type": "uint256"
        },
        {
          "components": [
            {
              "internalType": "address",
              "name": "to",
              "type": "address"
            },
            {
              "internalType": "uint256",
              "name": "value",
              "type": "uint256"
            },
            {
              "internalType": "bytes",
              "name": "data",
              "type": "bytes"
            }
          ],
          "internalType": "struct LootBox.Call[]",
          "name": "calls",
          "type": "tuple[]"
        }
      ],
      "name": "executeCalls",
      "outputs": [
        {
          "internalType": "bytes[]",
          "name": "",
          "type": "bytes[]"
        }
      ],
      "stateMutability": "nonpayable",
      "type": "function"
    },
    {
      "inputs": [
        {
          "internalType": "address",
          "name": "erc721",
          "type": "address"
        },
        {
          "internalType": "uint256",
          "name": "tokenId",
          "type": "uint256"
        },
        {
          "internalType": "contract IERC20[]",
          "name": "erc20s",
          "type": "address[]"
        },
        {
          "components": [
            {
              "internalType": "contract IERC721",
              "name": "token",
              "type": "address"
            },
            {
              "internalType": "uint256[]",
              "name": "tokenIds",
              "type": "uint256[]"
            }
          ],
          "internalType": "struct LootBox.WithdrawERC721[]",
          "name": "erc721s",
          "type": "tuple[]"
        },
        {
          "components": [
            {
              "internalType": "contract IERC1155",
              "name": "token",
              "type": "address"
            },
            {
              "internalType": "uint256[]",
              "name": "ids",
              "type": "uint256[]"
            },
            {
              "internalType": "uint256[]",
              "name": "amounts",
              "type": "uint256[]"
            },
            {
              "internalType": "bytes",
              "name": "data",
              "type": "bytes"
            }
          ],
          "internalType": "struct LootBox.WithdrawERC1155[]",
          "name": "erc1155s",
          "type": "tuple[]"
        }
      ],
      "name": "plunder",
      "outputs": [],
      "stateMutability": "nonpayable",
      "type": "function"
    }
  ],
  "address": "0xE4E9cDB3E139D7E8a41172C20b6Ed17b6750f117",
  "args": [],
  "solcInputHash": "0xa1cca0ed256bc3e0b6f8a180366cae8c2625d6a010edbba3e2952ed759b8c951",
  "bytecode": "0x60806040523480156200001157600080fd5b5060405162000020906200014e565b604051809103906000f0801580156200003d573d6000803e3d6000fd5b506000806101000a81548173ffffffffffffffffffffffffffffffffffffffff021916908373ffffffffffffffffffffffffffffffffffffffff160217905550620000b360008054906101000a900473ffffffffffffffffffffffffffffffffffffffff16620000d160201b6200054c1760201c565b60019080519060200190620000ca9291906200015c565b5062000202565b606060008260601b905060376040519250601f19601f60208301011683016040528083527f3d602d80600a3d3981f3363d3d373d3d3d363d7300000000000000000000000060208401528160348401527f5af43d82803e903d91602b57fd5bf3000000000000000000000000000000000060488401525050919050565b6116b08062001d4183390190565b828054600181600116156101000203166002900490600052602060002090601f016020900481019282601f106200019f57805160ff1916838001178555620001d0565b82800160010185558215620001d0579182015b82811115620001cf578251825591602001919060010190620001b2565b5b509050620001df9190620001e3565b5090565b5b80821115620001fe576000816000905550600101620001e4565b5090565b611b2f80620002126000396000f3fe608060405234801561001057600080fd5b50600436106100415760003560e01c806336b5aa2d1461004657806370f7d4ba14610076578063b41aee8714610092575b600080fd5b610060600480360381019061005b9190610ab6565b6100c2565b60405161006d9190611402565b60405180910390f35b610090600480360381019061008b9190610af2565b6100f5565b005b6100ac60048036038101906100a79190610bbe565b6102d8565b6040516100b99190611438565b60405180910390f35b60006100ed6100d184846105c9565b60016040516100e091906113eb565b60405180910390206105fc565b905092915050565b60008873ffffffffffffffffffffffffffffffffffffffff16636352211e896040518263ffffffff1660e01b8152600401610130919061155e565b60206040518083038186803b15801561014857600080fd5b505afa15801561015c573d6000803e3d6000fd5b505050506040513d601f19601f820116820180604052508101906101809190610a8d565b9050600061018e8a8a610611565b90508073ffffffffffffffffffffffffffffffffffffffff16637cc0f211898989898989896040518863ffffffff1660e01b81526004016101d5979695949392919061145a565b600060405180830381600087803b1580156101ef57600080fd5b505af1158015610203573d6000803e3d6000fd5b505050508073ffffffffffffffffffffffffffffffffffffffff1662f55d9d836040518263ffffffff1660e01b815260040161023f919061141d565b600060405180830381600087803b15801561025957600080fd5b505af115801561026d573d6000803e3d6000fd5b505050503373ffffffffffffffffffffffffffffffffffffffff16898b73ffffffffffffffffffffffffffffffffffffffff167f9153d96b9ed0d8d5598ddeb8ac09f612abdf5f8655b09848e7ee98d7af70347660405160405180910390a450505050505050505050565b606060008573ffffffffffffffffffffffffffffffffffffffff16636352211e866040518263ffffffff1660e01b8152600401610315919061155e565b60206040518083038186803b15801561032d57600080fd5b505afa158015610341573d6000803e3d6000fd5b505050506040513d601f19601f820116820180604052508101906103659190610a8d565b90508073ffffffffffffffffffffffffffffffffffffffff163373ffffffffffffffffffffffffffffffffffffffff16146103d5576040517f08c379a00000000000000000000000000000000000000000000000000000000081526004016103cc906114fe565b60405180910390fd5b60006103e18787610611565b905060608173ffffffffffffffffffffffffffffffffffffffff16631726fa8187876040518363ffffffff1660e01b81526004016104209291906114ba565b600060405180830381600087803b15801561043a57600080fd5b505af115801561044e573d6000803e3d6000fd5b505050506040513d6000823e3d601f19601f820116820180604052508101906104779190610c2a565b90508173ffffffffffffffffffffffffffffffffffffffff1662f55d9d846040518263ffffffff1660e01b81526004016104b1919061141d565b600060405180830381600087803b1580156104cb57600080fd5b505af11580156104df573d6000803e3d6000fd5b505050503373ffffffffffffffffffffffffffffffffffffffff16878973ffffffffffffffffffffffffffffffffffffffff167f52ba16c8b985eff690a9de92094bd7486f89340e06e385ffb26de9c6eea384dc60405160405180910390a4809350505050949350505050565b606060008260601b905060376040519250601f19601f60208301011683016040528083527f3d602d80600a3d3981f3363d3d373d3d3d363d7300000000000000000000000060208401528160348401527f5af43d82803e903d91602b57fd5bf3000000000000000000000000000000000060488401525050919050565b600082826040516020016105de929190611371565b60405160208183030381529060405280519060200120905092915050565b60006106098383306106ca565b905092915050565b60006106c2600061062285856105c9565b60018054600181600116156101000203166002900480601f0160208091040260200160405190810160405280929190818152602001828054600181600116156101000203166002900480156106b85780601f1061068d576101008083540402835291602001916106b8565b820191906000526020600020905b81548152906001019060200180831161069b57829003601f168201915b505050505061070e565b905092915050565b60008060ff60f81b8386866040516020016106e8949392919061139d565b6040516020818303038152906040528051906020012090508060001c9150509392505050565b60008084471015610754576040517f08c379a000000000000000000000000000000000000000000000000000000000815260040161074b9061153e565b60405180910390fd5b600083511415610799576040517f08c379a0000000000000000000000000000000000000000000000000000000008152600401610790906114de565b60405180910390fd5b8383516020850187f59050600073ffffffffffffffffffffffffffffffffffffffff168173ffffffffffffffffffffffffffffffffffffffff161415610814576040517f08c379a000000000000000000000000000000000000000000000000000000000815260040161080b9061151e565b60405180910390fd5b809150509392505050565b60008135905061082e81611a86565b92915050565b60008151905061084381611a86565b92915050565b600082601f83011261085a57600080fd5b815161086d610868826115a6565b611579565b9150818183526020840193506020810190508360005b838110156108b3578151860161089988826109e5565b845260208401935060208301925050600181019050610883565b5050505092915050565b60008083601f8401126108cf57600080fd5b8235905067ffffffffffffffff8111156108e857600080fd5b60208301915083602082028301111561090057600080fd5b9250929050565b60008083601f84011261091957600080fd5b8235905067ffffffffffffffff81111561093257600080fd5b60208301915083602082028301111561094a57600080fd5b9250929050565b60008083601f84011261096357600080fd5b8235905067ffffffffffffffff81111561097c57600080fd5b60208301915083602082028301111561099457600080fd5b9250929050565b60008083601f8401126109ad57600080fd5b8235905067ffffffffffffffff8111156109c657600080fd5b6020830191508360208202830111156109de57600080fd5b9250929050565b600082601f8301126109f657600080fd5b8151610a09610a04826115ce565b611579565b91508082526020830160208301858383011115610a2557600080fd5b610a308382846119f3565b50505092915050565b600081359050610a4881611a9d565b92915050565b600081359050610a5d81611ab4565b92915050565b600081359050610a7281611acb565b92915050565b600081359050610a8781611ae2565b92915050565b600060208284031215610a9f57600080fd5b6000610aad84828501610834565b91505092915050565b60008060408385031215610ac957600080fd5b6000610ad78582860161081f565b9250506020610ae885828601610a78565b9150509250929050565b60008060008060008060008060a0898b031215610b0e57600080fd5b6000610b1c8b828c0161081f565b9850506020610b2d8b828c01610a78565b975050604089013567ffffffffffffffff811115610b4a57600080fd5b610b568b828c016108bd565b9650965050606089013567ffffffffffffffff811115610b7557600080fd5b610b818b828c0161099b565b9450945050608089013567ffffffffffffffff811115610ba057600080fd5b610bac8b828c01610951565b92509250509295985092959890939650565b60008060008060608587031215610bd457600080fd5b6000610be28782880161081f565b9450506020610bf387828801610a78565b935050604085013567ffffffffffffffff811115610c1057600080fd5b610c1c87828801610907565b925092505092959194509250565b600060208284031215610c3c57600080fd5b600082015167ffffffffffffffff811115610c5657600080fd5b610c6284828501610849565b91505092915050565b6000610c778383610ff8565b905092915050565b6000610c8b83836110ce565b60208301905092915050565b6000610ca383836111ec565b905092915050565b6000610cb78383611256565b905092915050565b6000610ccb83836112ed565b905092915050565b610cdc816118d0565b82525050565b610ceb816118be565b82525050565b610cfa816118be565b82525050565b610d11610d0c826118be565b611a26565b82525050565b6000610d2282611647565b610d2c81856116af565b935083602082028501610d3e856115fa565b8060005b85811015610d7a5784840389528151610d5b8582610c6b565b9450610d668361165d565b925060208a01995050600181019050610d42565b50829750879550505050505092915050565b6000610d98838561169e565b9350610da38261160a565b8060005b85811015610ddc57610db9828461180d565b610dc38882610c7f565b9750610dce8361166a565b925050600181019050610da7565b5085925050509392505050565b6000610df583856116c0565b935083602084028501610e0784611614565b8060005b87811015610e4b578484038952610e22828461183b565b610e2c8582610c97565b9450610e3783611677565b925060208a01995050600181019050610e0b565b50829750879450505050509392505050565b6000610e6983856116d1565b935083602084028501610e7b8461161e565b8060005b87811015610ebf578484038952610e96828461185f565b610ea08582610cab565b9450610eab83611684565b925060208a01995050600181019050610e7f565b50829750879450505050509392505050565b6000610edd83856116e2565b935083602084028501610eef84611628565b8060005b87811015610f33578484038952610f0a8284611883565b610f148582610cbf565b9450610f1f83611691565b925060208a01995050600181019050610ef3565b50829750879450505050509392505050565b6000610f5183856116f3565b93507f07ffffffffffffffffffffffffffffffffffffffffffffffffffffffffffffff831115610f8057600080fd5b602083029250610f918385846119e4565b82840190509392505050565b610fae610fa9826118e2565b611a38565b82525050565b610fc5610fc08261190e565b611a42565b82525050565b6000610fd78385611704565b9350610fe48385846119e4565b610fed83611a68565b840190509392505050565b600061100382611652565b61100d8185611704565b935061101d8185602086016119f3565b61102681611a68565b840191505092915050565b60008154600181166000811461104e5760018114611073576110b7565b607f600283041661105f8187611715565b955060ff19831686528086019350506110b7565b600282046110818187611715565b955061108c85611632565b60005b828110156110ae5781548189015260018201915060208101905061108f565b82880195505050505b505092915050565b6110c881611978565b82525050565b6110d78161199c565b82525050565b6110e6816119c0565b82525050565b60006110f9602083611720565b91507f437265617465323a2062797465636f6465206c656e677468206973207a65726f6000830152602082019050919050565b6000611139601c83611720565b91507f4c6f6f74426f78436f6e74726f6c6c65722f6f6e6c792d6f776e6572000000006000830152602082019050919050565b6000611179601983611720565b91507f437265617465323a204661696c6564206f6e206465706c6f79000000000000006000830152602082019050919050565b60006111b9601d83611720565b91507f437265617465323a20696e73756666696369656e742062616c616e63650000006000830152602082019050919050565b6000606083016111ff6000840184611731565b61120c6000860182610ce2565b5061121a60208401846118a7565b611227602086018261133c565b50611235604084018461179f565b8583036040870152611248838284610fcb565b925050508091505092915050565b60006080830161126960008401846117f6565b61127660008601826110bf565b506112846020840184611748565b8583036020870152611297838284610f45565b925050506112a86040840184611748565b85830360408701526112bb838284610f45565b925050506112cc606084018461179f565b85830360608701526112df838284610fcb565b925050508091505092915050565b6000604083016113006000840184611824565b61130d60008601826110dd565b5061131b6020840184611748565b858303602087015261132e838284610f45565b925050508091505092915050565b6113458161196e565b82525050565b6113548161196e565b82525050565b61136b6113668261196e565b611a5e565b82525050565b600061137d8285610d00565b60148201915061138d828461135a565b6020820191508190509392505050565b60006113a98287610f9d565b6001820191506113b98286610d00565b6014820191506113c98285610fb4565b6020820191506113d98284610fb4565b60208201915081905095945050505050565b60006113f78284611031565b915081905092915050565b60006020820190506114176000830184610cf1565b92915050565b60006020820190506114326000830184610cd3565b92915050565b600060208201905081810360008301526114528184610d17565b905092915050565b6000608082019050818103600083015261147581898b610d8c565b9050818103602083015261148a818789610ed1565b9050818103604083015261149f818587610e5d565b90506114ae6060830184610cd3565b98975050505050505050565b600060208201905081810360008301526114d5818486610de9565b90509392505050565b600060208201905081810360008301526114f7816110ec565b9050919050565b600060208201905081810360008301526115178161112c565b9050919050565b600060208201905081810360008301526115378161116c565b9050919050565b60006020820190508181036000830152611557816111ac565b9050919050565b6000602082019050611573600083018461134b565b92915050565b6000604051905081810181811067ffffffffffffffff8211171561159c57600080fd5b8060405250919050565b600067ffffffffffffffff8211156115bd57600080fd5b602082029050602081019050919050565b600067ffffffffffffffff8211156115e557600080fd5b601f19601f8301169050602081019050919050565b6000819050602082019050919050565b6000819050919050565b6000819050919050565b6000819050919050565b6000819050919050565b60008190508160005260206000209050919050565b600081519050919050565b600081519050919050565b6000602082019050919050565b6000602082019050919050565b6000602082019050919050565b6000602082019050919050565b6000602082019050919050565b600082825260208201905092915050565b600082825260208201905092915050565b600082825260208201905092915050565b600082825260208201905092915050565b600082825260208201905092915050565b600082825260208201905092915050565b600082825260208201905092915050565b600081905092915050565b600082825260208201905092915050565b6000611740602084018461081f565b905092915050565b6000808335600160200384360303811261176157600080fd5b83810192508235915060208301925067ffffffffffffffff82111561178557600080fd5b60208202360384131561179757600080fd5b509250929050565b600080833560016020038436030381126117b857600080fd5b83810192508235915060208301925067ffffffffffffffff8211156117dc57600080fd5b6001820236038413156117ee57600080fd5b509250929050565b60006118056020840184610a39565b905092915050565b600061181c6020840184610a4e565b905092915050565b60006118336020840184610a63565b905092915050565b60008235600160600383360303811261185357600080fd5b82810191505092915050565b60008235600160800383360303811261187757600080fd5b82810191505092915050565b60008235600160400383360303811261189b57600080fd5b82810191505092915050565b60006118b66020840184610a78565b905092915050565b60006118c98261194e565b9050919050565b60006118db8261194e565b9050919050565b60007fff0000000000000000000000000000000000000000000000000000000000000082169050919050565b6000819050919050565b6000611923826118be565b9050919050565b6000611935826118be565b9050919050565b6000611947826118be565b9050919050565b600073ffffffffffffffffffffffffffffffffffffffff82169050919050565b6000819050919050565b60006119838261198a565b9050919050565b60006119958261194e565b9050919050565b60006119a7826119ae565b9050919050565b60006119b98261194e565b9050919050565b60006119cb826119d2565b9050919050565b60006119dd8261194e565b9050919050565b82818337600083830152505050565b60005b83811015611a115780820151818401526020810190506119f6565b83811115611a20576000848401525b50505050565b6000611a3182611a4c565b9050919050565b6000819050919050565b6000819050919050565b6000611a5782611a79565b9050919050565b6000819050919050565b6000601f19601f8301169050919050565b60008160601b9050919050565b611a8f816118be565b8114611a9a57600080fd5b50565b611aa681611918565b8114611ab157600080fd5b50565b611abd8161192a565b8114611ac857600080fd5b50565b611ad48161193c565b8114611adf57600080fd5b50565b611aeb8161196e565b8114611af657600080fd5b5056fea2646970667358221220396e6550d5fe68377e71b92ba986faa52be600582286decad8db04cf78dc55b664736f6c634300060c0033608060405234801561001057600080fd5b50611690806100206000396000f3fe608060405234801561001057600080fd5b506004361061004b5760003560e01c8062f55d9d1461005057806305b1137b1461006c5780631726fa81146100885780637cc0f211146100b8575b600080fd5b61006a60048036038101906100659190610d26565b6100d4565b005b61008660048036038101906100819190610d4f565b6100ed565b005b6100a2600480360381019061009d9190610e36565b610186565b6040516100af91906111cf565b60405180910390f35b6100d260048036038101906100cd9190610d8b565b6102e1565b005b8073ffffffffffffffffffffffffffffffffffffffff16ff5b8173ffffffffffffffffffffffffffffffffffffffff166108fc829081150290604051600060405180830381858888f19350505050158015610133573d6000803e3d6000fd5b508173ffffffffffffffffffffffffffffffffffffffff167ff35d7b6a86398c5aabcd316353d6f069dbc1be6fa0ab49d809bfbf6d96f555758260405161017a9190611281565b60405180910390a25050565b6060808383905067ffffffffffffffff811180156101a357600080fd5b506040519080825280602002602001820160405280156101d757816020015b60608152602001906001900390816101c25790505b50905060005b848490508110156102d6576102b28585838181106101f757fe5b905060200281019061020991906112f3565b600001602081019061021b9190610cfd565b86868481811061022757fe5b905060200281019061023991906112f3565b6020013587878581811061024957fe5b905060200281019061025b91906112f3565b806040019061026a919061129c565b8080601f016020809104026020016040519081016040528093929190818152602001838380828437600081840152601f19601f8201169050808301925050505050505061030f565b8282815181106102be57fe5b602002602001018190525080806001019150506101dd565b508091505092915050565b6102eb84826103d2565b6102f58382610593565b6102ff828261070e565b61030981476100ed565b50505050565b6060600060608573ffffffffffffffffffffffffffffffffffffffff16858560405161033b91906110d5565b60006040518083038185875af1925050503d8060008114610378576040519150601f19603f3d011682016040523d82523d6000602084013e61037d565b606091505b50915091508181906103c5576040517f08c379a00000000000000000000000000000000000000000000000000000000081526004016103bc919061125f565b60405180910390fd5b5080925050509392505050565b60005b825181101561058e5760008382815181106103ec57fe5b602002602001015173ffffffffffffffffffffffffffffffffffffffff166370a08231306040518263ffffffff1660e01b815260040161042c91906110ec565b60206040518083038186803b15801561044457600080fd5b505afa158015610458573d6000803e3d6000fd5b505050506040513d601f19601f8201168201806040525081019061047c9190610ea4565b905083828151811061048a57fe5b602002602001015173ffffffffffffffffffffffffffffffffffffffff1663a9059cbb84836040518363ffffffff1660e01b81526004016104cc9291906111a6565b602060405180830381600087803b1580156104e657600080fd5b505af11580156104fa573d6000803e3d6000fd5b505050506040513d601f19601f8201168201806040525081019061051e9190610e7b565b5083828151811061052b57fe5b602002602001015173ffffffffffffffffffffffffffffffffffffffff167f93295a03b599aa244f344512a042ed4a3cd191df56cc1454674b0bd859377749826040516105789190611281565b60405180910390a25080806001019150506103d5565b505050565b60005b82518110156107095760005b8382815181106105ae57fe5b6020026020010151602001515181101561067f578382815181106105ce57fe5b60200260200101516000015173ffffffffffffffffffffffffffffffffffffffff166323b872dd308587868151811061060357fe5b602002602001015160200151858151811061061a57fe5b60200260200101516040518463ffffffff1660e01b81526004016106409392919061116f565b600060405180830381600087803b15801561065a57600080fd5b505af115801561066e573d6000803e3d6000fd5b5050505080806001019150506105a2565b5082818151811061068c57fe5b60200260200101516000015173ffffffffffffffffffffffffffffffffffffffff167f7c0114b67370be67d9c25c0fae9f991d289ce990616efebe475d8447764b36498483815181106106db57fe5b6020026020010151602001516040516106f491906111f1565b60405180910390a28080600101915050610596565b505050565b60005b82518110156108a45782818151811061072657fe5b60200260200101516000015173ffffffffffffffffffffffffffffffffffffffff16632eb2c2d6308486858151811061075b57fe5b60200260200101516020015187868151811061077357fe5b60200260200101516040015188878151811061078b57fe5b6020026020010151606001516040518663ffffffff1660e01b81526004016107b7959493929190611107565b600060405180830381600087803b1580156107d157600080fd5b505af11580156107e5573d6000803e3d6000fd5b505050508281815181106107f557fe5b60200260200101516000015173ffffffffffffffffffffffffffffffffffffffff167f25eda4a32b6b54b71997d605d08b9a0b5b8195e846780404a97089d22cdc896c84838151811061084457fe5b60200260200101516020015185848151811061085c57fe5b60200260200101516040015186858151811061087457fe5b60200260200101516060015160405161088f93929190611213565b60405180910390a28080600101915050610711565b505050565b6000813590506108b8816115b9565b92915050565b6000813590506108cd816115d0565b92915050565b600082601f8301126108e457600080fd5b81356108f76108f282611344565b611317565b9150818183526020840193506020810190508385602084028201111561091c57600080fd5b60005b8381101561094c57816109328882610b89565b84526020840193506020830192505060018101905061091f565b5050505092915050565b60008083601f84011261096857600080fd5b8235905067ffffffffffffffff81111561098157600080fd5b60208301915083602082028301111561099957600080fd5b9250929050565b600082601f8301126109b157600080fd5b81356109c46109bf8261136c565b611317565b9150818183526020840193506020810190508360005b83811015610a0a57813586016109f08882610bb3565b8452602084019350602083019250506001810190506109da565b5050505092915050565b600082601f830112610a2557600080fd5b8135610a38610a3382611394565b611317565b9150818183526020840193506020810190508360005b83811015610a7e5781358601610a648882610c6f565b845260208401935060208301925050600181019050610a4e565b5050505092915050565b600082601f830112610a9957600080fd5b8135610aac610aa7826113bc565b611317565b91508181835260208401935060208101905083856020840282011115610ad157600080fd5b60005b83811015610b015781610ae78882610cd3565b845260208401935060208301925050600181019050610ad4565b5050505092915050565b600081519050610b1a816115e7565b92915050565b600082601f830112610b3157600080fd5b8135610b44610b3f826113e4565b611317565b91508082526020830160208301858383011115610b6057600080fd5b610b6b838284611566565b50505092915050565b600081359050610b83816115fe565b92915050565b600081359050610b9881611615565b92915050565b600081359050610bad8161162c565b92915050565b600060808284031215610bc557600080fd5b610bcf6080611317565b90506000610bdf84828501610b74565b600083015250602082013567ffffffffffffffff811115610bff57600080fd5b610c0b84828501610a88565b602083015250604082013567ffffffffffffffff811115610c2b57600080fd5b610c3784828501610a88565b604083015250606082013567ffffffffffffffff811115610c5757600080fd5b610c6384828501610b20565b60608301525092915050565b600060408284031215610c8157600080fd5b610c8b6040611317565b90506000610c9b84828501610b9e565b600083015250602082013567ffffffffffffffff811115610cbb57600080fd5b610cc784828501610a88565b60208301525092915050565b600081359050610ce281611643565b92915050565b600081519050610cf781611643565b92915050565b600060208284031215610d0f57600080fd5b6000610d1d848285016108a9565b91505092915050565b600060208284031215610d3857600080fd5b6000610d46848285016108be565b91505092915050565b60008060408385031215610d6257600080fd5b6000610d70858286016108be565b9250506020610d8185828601610cd3565b9150509250929050565b60008060008060808587031215610da157600080fd5b600085013567ffffffffffffffff811115610dbb57600080fd5b610dc7878288016108d3565b945050602085013567ffffffffffffffff811115610de457600080fd5b610df087828801610a14565b935050604085013567ffffffffffffffff811115610e0d57600080fd5b610e19878288016109a0565b9250506060610e2a878288016108be565b91505092959194509250565b60008060208385031215610e4957600080fd5b600083013567ffffffffffffffff811115610e6357600080fd5b610e6f85828601610956565b92509250509250929050565b600060208284031215610e8d57600080fd5b6000610e9b84828501610b0b565b91505092915050565b600060208284031215610eb657600080fd5b6000610ec484828501610ce8565b91505092915050565b6000610ed98383610fdb565b905092915050565b6000610eed83836110b7565b60208301905092915050565b610f02816114d6565b82525050565b6000610f1382611430565b610f1d8185611476565b935083602082028501610f2f85611410565b8060005b85811015610f6b5784840389528151610f4c8582610ecd565b9450610f578361145c565b925060208a01995050600181019050610f33565b50829750879550505050505092915050565b6000610f888261143b565b610f928185611487565b9350610f9d83611420565b8060005b83811015610fce578151610fb58882610ee1565b9750610fc083611469565b925050600181019050610fa1565b5085935050505092915050565b6000610fe682611446565b610ff08185611498565b9350611000818560208601611575565b611009816115a8565b840191505092915050565b600061101f82611446565b61102981856114a9565b9350611039818560208601611575565b611042816115a8565b840191505092915050565b600061105882611446565b61106281856114ba565b9350611072818560208601611575565b80840191505092915050565b600061108982611451565b61109381856114c5565b93506110a3818560208601611575565b6110ac816115a8565b840191505092915050565b6110c08161155c565b82525050565b6110cf8161155c565b82525050565b60006110e1828461104d565b915081905092915050565b60006020820190506111016000830184610ef9565b92915050565b600060a08201905061111c6000830188610ef9565b6111296020830187610ef9565b818103604083015261113b8186610f7d565b9050818103606083015261114f8185610f7d565b905081810360808301526111638184611014565b90509695505050505050565b60006060820190506111846000830186610ef9565b6111916020830185610ef9565b61119e60408301846110c6565b949350505050565b60006040820190506111bb6000830185610ef9565b6111c860208301846110c6565b9392505050565b600060208201905081810360008301526111e98184610f08565b905092915050565b6000602082019050818103600083015261120b8184610f7d565b905092915050565b6000606082019050818103600083015261122d8186610f7d565b905081810360208301526112418185610f7d565b905081810360408301526112558184611014565b9050949350505050565b60006020820190508181036000830152611279818461107e565b905092915050565b600060208201905061129660008301846110c6565b92915050565b600080833560016020038436030381126112b557600080fd5b80840192508235915067ffffffffffffffff8211156112d357600080fd5b6020830192506001820236038313156112eb57600080fd5b509250929050565b60008235600160600383360303811261130b57600080fd5b80830191505092915050565b6000604051905081810181811067ffffffffffffffff8211171561133a57600080fd5b8060405250919050565b600067ffffffffffffffff82111561135b57600080fd5b602082029050602081019050919050565b600067ffffffffffffffff82111561138357600080fd5b602082029050602081019050919050565b600067ffffffffffffffff8211156113ab57600080fd5b602082029050602081019050919050565b600067ffffffffffffffff8211156113d357600080fd5b602082029050602081019050919050565b600067ffffffffffffffff8211156113fb57600080fd5b601f19601f8301169050602081019050919050565b6000819050602082019050919050565b6000819050602082019050919050565b600081519050919050565b600081519050919050565b600081519050919050565b600081519050919050565b6000602082019050919050565b6000602082019050919050565b600082825260208201905092915050565b600082825260208201905092915050565b600082825260208201905092915050565b600082825260208201905092915050565b600081905092915050565b600082825260208201905092915050565b60006114e18261153c565b9050919050565b60006114f38261153c565b9050919050565b60008115159050919050565b6000611511826114d6565b9050919050565b6000611523826114d6565b9050919050565b6000611535826114d6565b9050919050565b600073ffffffffffffffffffffffffffffffffffffffff82169050919050565b6000819050919050565b82818337600083830152505050565b60005b83811015611593578082015181840152602081019050611578565b838111156115a2576000848401525b50505050565b6000601f19601f8301169050919050565b6115c2816114d6565b81146115cd57600080fd5b50565b6115d9816114e8565b81146115e457600080fd5b50565b6115f0816114fa565b81146115fb57600080fd5b50565b61160781611506565b811461161257600080fd5b50565b61161e81611518565b811461162957600080fd5b50565b6116358161152a565b811461164057600080fd5b50565b61164c8161155c565b811461165757600080fd5b5056fea2646970667358221220f26b40833c5b47616715be81651142690bb8a36063b3c0b702cda5cac6714a7164736f6c634300060c0033",
  "devdoc": {
    "author": "Brendan Asselstine",
    "kind": "dev",
    "methods": {
      "computeAddress(address,uint256)": {
        "details": "The contract will not exist yet, so the Loot Box address will have no code.",
        "params": {
          "erc721": "The address of the ERC721",
          "tokenId": "The ERC721 token id"
        },
        "returns": {
          "_0": "The address of the Loot Box."
        }
      },
      "constructor": {
        "details": "Creates a new LootBox instance and an associated minimal proxy."
      },
      "executeCalls(address,uint256,(address,uint256,bytes)[])": {
        "details": "The Loot Box will be counterfactually created, calls executed, then the contract destroyed.",
        "params": {
          "calls": "The array of call structs that define that target, amount of ether, and data.",
          "erc721": "The ERC721 address",
          "tokenId": "The ERC721 token id"
        },
        "returns": {
          "_0": "The array of call return values."
        }
      },
      "plunder(address,uint256,address[],(address,uint256[])[],(address,uint256[],uint256[],bytes)[])": {
        "details": "A Loot Box contract will be counterfactually created, tokens transferred to the ERC721 owner, then destroyed.",
        "params": {
          "erc1155s": "An array of struct defining ERC1155 tokens that should be transferred",
          "erc20s": "An array of ERC20 tokens whose entire balance should be transferred",
          "erc721": "The address of the ERC721",
          "erc721s": "An array of structs defining ERC721 tokens that should be transferred",
          "tokenId": "The ERC721 token id"
        }
      }
    },
    "title": "Allows users to plunder an address associated with an ERC721",
    "version": 1
  },
  "userdoc": {
    "events": {
      "Executed(address,uint256,address)": {
        "notice": "Emitted when a Loot Box is executed"
      },
      "Plundered(address,uint256,address)": {
        "notice": "Emitted when a Loot Box is plundered"
      }
    },
    "kind": "user",
    "methods": {
      "computeAddress(address,uint256)": {
        "notice": "Computes the Loot Box address for a given ERC721 token."
      },
      "constructor": "Constructs a new controller.",
      "executeCalls(address,uint256,(address,uint256,bytes)[])": {
        "notice": "Allows the owner of an ERC721 to execute abitrary calls on behalf of the associated Loot Box."
      },
      "plunder(address,uint256,address[],(address,uint256[])[],(address,uint256[],uint256[],bytes)[])": {
        "notice": "Allows anyone to transfer all given tokens in a Loot Box to the associated ERC721 owner."
      }
    },
    "notice": "Counterfactually instantiates a \"Loot Box\" at an address unique to an ERC721 token.  The address for an ERC721 token can be computed and later plundered by transferring token balances to the ERC721 owner.",
    "version": 1
  },
  "storageLayout": {
    "storage": [
      {
        "astId": 6458,
        "contract": "contracts/LootBoxController.sol:LootBoxController",
        "label": "lootBoxActionInstance",
        "offset": 0,
        "slot": "0",
        "type": "t_contract(LootBox)6449"
      },
      {
        "astId": 6460,
        "contract": "contracts/LootBoxController.sol:LootBoxController",
        "label": "lootBoxActionBytecode",
        "offset": 0,
        "slot": "1",
        "type": "t_bytes_storage"
      }
    ],
    "types": {
      "t_bytes_storage": {
        "encoding": "bytes",
        "label": "bytes",
        "numberOfBytes": "32"
      },
      "t_contract(LootBox)6449": {
        "encoding": "inplace",
        "label": "contract LootBox",
        "numberOfBytes": "20"
      }
    }
  },
  "gasEstimates": {
    "creation": {
      "codeDepositCost": "1391800",
      "executionCost": "infinite",
      "totalCost": "infinite"
    },
    "external": {
      "computeAddress(address,uint256)": "infinite",
      "executeCalls(address,uint256,(address,uint256,bytes)[])": "infinite",
      "plunder(address,uint256,address[],(address,uint256[])[],(address,uint256[],uint256[],bytes)[])": "infinite"
    },
    "internal": {
      "_createLootBox(address,uint256)": "infinite",
      "_salt(address,uint256)": "infinite"
    }
  }
}