{
  "abi": [
    {
      "anonymous": false,
      "inputs": [
        {
          "indexed": true,
          "internalType": "contract LootBoxPrizeStrategyListener",
          "name": "listener",
          "type": "address"
        }
      ],
      "name": "CreatedListener",
      "type": "event"
    },
    {
      "inputs": [
        {
          "internalType": "address",
          "name": "owner",
          "type": "address"
        }
      ],
      "name": "create",
      "outputs": [
        {
          "internalType": "contract LootBoxPrizeStrategyListener",
          "name": "",
          "type": "address"
        }
      ],
      "stateMutability": "nonpayable",
      "type": "function"
    }
  ],
  "address": "0x4C2d729E7052e12e09d29C95fd1f02Bd7471759e",
  "args": [],
  "solcInputHash": "0x5bcc9754a876d6a5ac12ebd3cff5c4b104c34d3b5b5278c9d568d1c2f6892066",
  "bytecode": "0x608060405234801561001057600080fd5b506115ed806100206000396000f3fe608060405234801561001057600080fd5b506004361061002b5760003560e01c80639ed9331814610030575b600080fd5b6100726004803603602081101561004657600080fd5b81019080803573ffffffffffffffffffffffffffffffffffffffff16906020019092919050505061009e565b604051808273ffffffffffffffffffffffffffffffffffffffff16815260200191505060405180910390f35b6000806040516100ad90610199565b604051809103906000f0801580156100c9573d6000803e3d6000fd5b5090508073ffffffffffffffffffffffffffffffffffffffff1663c4d66de8846040518263ffffffff1660e01b8152600401808273ffffffffffffffffffffffffffffffffffffffff168152602001915050600060405180830381600087803b15801561013557600080fd5b505af1158015610149573d6000803e3d6000fd5b505050508073ffffffffffffffffffffffffffffffffffffffff167faf4d9e6f761589aec5ea54c8fc4a8740064c59ecb32a96db50a3615333b7e88560405160405180910390a280915050919050565b611411806101a78339019056fe608060405234801561001057600080fd5b506113f1806100206000396000f3fe608060405234801561001057600080fd5b50600436106100ce5760003560e01c80639010d07c1161008c578063c4d66de811610066578063c4d66de814610394578063ca15c873146103d8578063d547741f1461041a578063d85fd03c14610468576100ce565b80639010d07c146102b057806391d1485414610312578063a217fddf14610376576100ce565b806215264b146100d357806301ffc9a714610137578063248a9ca31461019a5780632f2ff15d146101dc57806336568abe1461022a578063575072c614610278575b600080fd5b610135600480360360408110156100e957600080fd5b81019080803573ffffffffffffffffffffffffffffffffffffffff169060200190929190803573ffffffffffffffffffffffffffffffffffffffff1690602001909291905050506104d6565b005b6101826004803603602081101561014d57600080fd5b8101908080357bffffffffffffffffffffffffffffffffffffffffffffffffffffffff19169060200190929190505050610727565b60405180821515815260200191505060405180910390f35b6101c6600480360360208110156101b057600080fd5b81019080803590602001909291905050506107c7565b6040518082815260200191505060405180910390f35b610228600480360360408110156101f257600080fd5b8101908080359060200190929190803573ffffffffffffffffffffffffffffffffffffffff1690602001909291905050506107e7565b005b6102766004803603604081101561024057600080fd5b8101908080359060200190929190803573ffffffffffffffffffffffffffffffffffffffff169060200190929190505050610871565b005b6102ae6004803603604081101561028e57600080fd5b81019080803590602001909291908035906020019092919050505061090a565b005b6102e6600480360360408110156102c657600080fd5b810190808035906020019092919080359060200190929190505050610c09565b604051808273ffffffffffffffffffffffffffffffffffffffff16815260200191505060405180910390f35b61035e6004803603604081101561032857600080fd5b8101908080359060200190929190803573ffffffffffffffffffffffffffffffffffffffff169060200190929190505050610c3b565b60405180821515815260200191505060405180910390f35b61037e610c6d565b6040518082815260200191505060405180910390f35b6103d6600480360360208110156103aa57600080fd5b81019080803573ffffffffffffffffffffffffffffffffffffffff169060200190929190505050610c74565b005b610404600480360360208110156103ee57600080fd5b8101908080359060200190929190505050610d80565b6040518082815260200191505060405180910390f35b6104666004803603604081101561043057600080fd5b8101908080359060200190929190803573ffffffffffffffffffffffffffffffffffffffff169060200190929190505050610da7565b005b6104aa6004803603602081101561047e57600080fd5b81019080803573ffffffffffffffffffffffffffffffffffffffff169060200190929190505050610e31565b604051808273ffffffffffffffffffffffffffffffffffffffff16815260200191505060405180910390f35b6104e36000801b33610c3b565b610538576040517f08c379a00000000000000000000000000000000000000000000000000000000081526004018080602001828103825260278152602001806113666027913960400191505060405180910390fd5b8073ffffffffffffffffffffffffffffffffffffffff166391d148546000801b306040518363ffffffff1660e01b8152600401808381526020018273ffffffffffffffffffffffffffffffffffffffff1681526020019250505060206040518083038186803b1580156105aa57600080fd5b505afa1580156105be573d6000803e3d6000fd5b505050506040513d60208110156105d457600080fd5b810190808051906020019092919050505061063a576040517f08c379a000000000000000000000000000000000000000000000000000000000815260040180806020018281038252602f815260200180611309602f913960400191505060405180910390fd5b80606560008473ffffffffffffffffffffffffffffffffffffffff1673ffffffffffffffffffffffffffffffffffffffff16815260200190815260200160002060006101000a81548173ffffffffffffffffffffffffffffffffffffffff021916908373ffffffffffffffffffffffffffffffffffffffff1602179055507f13d4c6f527eb021f2d84872cdc97d700cae352e4b7c67be69f2478f134d5a32c8282604051808373ffffffffffffffffffffffffffffffffffffffff1681526020018273ffffffffffffffffffffffffffffffffffffffff1681526020019250505060405180910390a15050565b60006301ffc9a760e01b7bffffffffffffffffffffffffffffffffffffffffffffffffffffffff1916827bffffffffffffffffffffffffffffffffffffffffffffffffffffffff191614806107c0575063575072c660e01b7bffffffffffffffffffffffffffffffffffffffffffffffffffffffff1916827bffffffffffffffffffffffffffffffffffffffffffffffffffffffff1916145b9050919050565b600060336000838152602001908152602001600020600201549050919050565b61080e6033600084815260200190815260200160002060020154610809610e64565b610c3b565b610863576040517f08c379a000000000000000000000000000000000000000000000000000000000815260040180806020018281038252602f8152602001806112aa602f913960400191505060405180910390fd5b61086d8282610e6c565b5050565b610879610e64565b73ffffffffffffffffffffffffffffffffffffffff168173ffffffffffffffffffffffffffffffffffffffff16146108fc576040517f08c379a000000000000000000000000000000000000000000000000000000000815260040180806020018281038252602f81526020018061138d602f913960400191505060405180910390fd5b6109068282610f00565b5050565b6000606560003373ffffffffffffffffffffffffffffffffffffffff1673ffffffffffffffffffffffffffffffffffffffff16815260200190815260200160002060009054906101000a900473ffffffffffffffffffffffffffffffffffffffff169050600073ffffffffffffffffffffffffffffffffffffffff168173ffffffffffffffffffffffffffffffffffffffff1614156109a95750610c05565b60003390506060600167ffffffffffffffff811180156109c857600080fd5b506040519080825280602002602001820160405280156109f75781602001602082028036833780820191505090505b5090508273ffffffffffffffffffffffffffffffffffffffff16636a6278428373ffffffffffffffffffffffffffffffffffffffff1663719ce73e6040518163ffffffff1660e01b815260040160206040518083038186803b158015610a5c57600080fd5b505afa158015610a70573d6000803e3d6000fd5b505050506040513d6020811015610a8657600080fd5b81019080805190602001909291905050506040518263ffffffff1660e01b8152600401808273ffffffffffffffffffffffffffffffffffffffff168152602001915050602060405180830381600087803b158015610ae357600080fd5b505af1158015610af7573d6000803e3d6000fd5b505050506040513d6020811015610b0d57600080fd5b810190808051906020019092919050505081600081518110610b2b57fe5b6020026020010181815250508173ffffffffffffffffffffffffffffffffffffffff1663c48ddbcb84836040518363ffffffff1660e01b8152600401808373ffffffffffffffffffffffffffffffffffffffff16815260200180602001828103825283818151815260200191508051906020019060200280838360005b83811015610bc3578082015181840152602081019050610ba8565b505050509050019350505050600060405180830381600087803b158015610be957600080fd5b505af1158015610bfd573d6000803e3d6000fd5b505050505050505b5050565b6000610c338260336000868152602001908152602001600020600001610f9490919063ffffffff16565b905092915050565b6000610c658260336000868152602001908152602001600020600001610fae90919063ffffffff16565b905092915050565b6000801b81565b600060019054906101000a900460ff1680610c935750610c92610fde565b5b80610ca9575060008054906101000a900460ff16155b610cfe576040517f08c379a000000000000000000000000000000000000000000000000000000000815260040180806020018281038252602e815260200180611338602e913960400191505060405180910390fd5b60008060019054906101000a900460ff161590508015610d4e576001600060016101000a81548160ff02191690831515021790555060016000806101000a81548160ff0219169083151502179055505b610d5b6000801b83610ff5565b8015610d7c5760008060016101000a81548160ff0219169083151502179055505b5050565b6000610da060336000848152602001908152602001600020600001611003565b9050919050565b610dce6033600084815260200190815260200160002060020154610dc9610e64565b610c3b565b610e23576040517f08c379a00000000000000000000000000000000000000000000000000000000081526004018080602001828103825260308152602001806112d96030913960400191505060405180910390fd5b610e2d8282610f00565b5050565b60656020528060005260406000206000915054906101000a900473ffffffffffffffffffffffffffffffffffffffff1681565b600033905090565b610e94816033600085815260200190815260200160002060000161101890919063ffffffff16565b15610efc57610ea1610e64565b73ffffffffffffffffffffffffffffffffffffffff168173ffffffffffffffffffffffffffffffffffffffff16837f2f8788117e7eff1d82e926ec794901d17c78024a50270940304540a733656f0d60405160405180910390a45b5050565b610f28816033600085815260200190815260200160002060000161104890919063ffffffff16565b15610f9057610f35610e64565b73ffffffffffffffffffffffffffffffffffffffff168173ffffffffffffffffffffffffffffffffffffffff16837ff6391f5c32d9c69d2a47ea670b442974b53935d1edc7fd64eb21e047a839171b60405160405180910390a45b5050565b6000610fa38360000183611078565b60001c905092915050565b6000610fd6836000018373ffffffffffffffffffffffffffffffffffffffff1660001b6110fb565b905092915050565b6000803090506000813b9050600081149250505090565b610fff8282610e6c565b5050565b60006110118260000161111e565b9050919050565b6000611040836000018373ffffffffffffffffffffffffffffffffffffffff1660001b61112f565b905092915050565b6000611070836000018373ffffffffffffffffffffffffffffffffffffffff1660001b61119f565b905092915050565b6000818360000180549050116110d9576040517f08c379a00000000000000000000000000000000000000000000000000000000081526004018080602001828103825260228152602001806112886022913960400191505060405180910390fd5b8260000182815481106110e857fe5b9060005260206000200154905092915050565b600080836001016000848152602001908152602001600020541415905092915050565b600081600001805490509050919050565b600061113b83836110fb565b611194578260000182908060018154018082558091505060019003906000526020600020016000909190919091505582600001805490508360010160008481526020019081526020016000208190555060019050611199565b600090505b92915050565b6000808360010160008481526020019081526020016000205490506000811461127b57600060018203905060006001866000018054905003905060008660000182815481106111ea57fe5b906000526020600020015490508087600001848154811061120757fe5b906000526020600020018190555060018301876001016000838152602001908152602001600020819055508660000180548061123f57fe5b60019003818190600052602060002001600090559055866001016000878152602001908152602001600020600090556001945050505050611281565b60009150505b9291505056fe456e756d657261626c655365743a20696e646578206f7574206f6620626f756e6473416363657373436f6e74726f6c3a2073656e646572206d75737420626520616e2061646d696e20746f206772616e74416363657373436f6e74726f6c3a2073656e646572206d75737420626520616e2061646d696e20746f207265766f6b654c6f6f74426f785072697a6553747261746567794c697374656e65722f6d697373696e672d61646d696e2d726f6c65496e697469616c697a61626c653a20636f6e747261637420697320616c726561647920696e697469616c697a65644c6f6f74426f785072697a6553747261746567794c697374656e65722f6f6e6c792d61646d696e416363657373436f6e74726f6c3a2063616e206f6e6c792072656e6f756e636520726f6c657320666f722073656c66a264697066735822122013853a606e746370baeba21e6c0c26e10e1a81d66d2fcda8ed1c4ce5c4aa582264736f6c634300060c0033a26469706673582212200b93c143b6b30c7b0b0489678e6d8bb95a759ca5723146b6413380714eb1e8fa64736f6c634300060c0033",
  "devdoc": {
    "author": "Brendan Asselstine",
    "kind": "dev",
    "methods": {},
    "title": "Allows users to plunder an address associated with an ERC721",
    "version": 1
  },
  "userdoc": {
    "kind": "user",
    "methods": {},
    "notice": "Counterfactually instantiates a \"Loot Box\" at an address unique to an ERC721 token.  The address for an ERC721 token can be computed and later plundered by transferring token balances to the ERC721 owner.",
    "version": 1
  },
  "storageLayout": {
    "storage": [],
    "types": null
  },
  "gasEstimates": {
    "creation": {
      "codeDepositCost": "1122600",
      "executionCost": "1167",
      "totalCost": "1123767"
    },
    "external": {
      "create(address)": "infinite"
    }
  }
}