{
  "abi": [
    {
      "inputs": [],
      "stateMutability": "nonpayable",
      "type": "constructor"
    },
    {
      "anonymous": false,
      "inputs": [
        {
          "indexed": true,
          "internalType": "address",
          "name": "erc721",
          "type": "address"
        },
        {
          "indexed": true,
          "internalType": "uint256",
          "name": "tokenId",
          "type": "uint256"
        },
        {
          "indexed": true,
          "internalType": "address",
          "name": "operator",
          "type": "address"
        }
      ],
      "name": "Executed",
      "type": "event"
    },
    {
      "anonymous": false,
      "inputs": [
        {
          "indexed": true,
          "internalType": "address",
          "name": "erc721",
          "type": "address"
        },
        {
          "indexed": true,
          "internalType": "uint256",
          "name": "tokenId",
          "type": "uint256"
        },
        {
          "indexed": true,
          "internalType": "address",
          "name": "operator",
          "type": "address"
        }
      ],
      "name": "Plundered",
      "type": "event"
    },
    {
      "inputs": [
        {
          "internalType": "address",
          "name": "erc721",
          "type": "address"
        },
        {
          "internalType": "uint256",
          "name": "tokenId",
          "type": "uint256"
        }
      ],
      "name": "computeAddress",
      "outputs": [
        {
          "internalType": "address",
          "name": "",
          "type": "address"
        }
      ],
      "stateMutability": "view",
      "type": "function"
    },
    {
      "inputs": [
        {
          "internalType": "address",
          "name": "erc721",
          "type": "address"
        },
        {
          "internalType": "uint256",
          "name": "tokenId",
          "type": "uint256"
        },
        {
          "components": [
            {
              "internalType": "address",
              "name": "to",
              "type": "address"
            },
            {
              "internalType": "uint256",
              "name": "value",
              "type": "uint256"
            },
            {
              "internalType": "bytes",
              "name": "data",
              "type": "bytes"
            }
          ],
          "internalType": "struct LootBox.Call[]",
          "name": "calls",
          "type": "tuple[]"
        }
      ],
      "name": "executeCalls",
      "outputs": [
        {
          "internalType": "bytes[]",
          "name": "",
          "type": "bytes[]"
        }
      ],
      "stateMutability": "nonpayable",
      "type": "function"
    },
    {
      "inputs": [],
      "name": "lootBoxInstance",
      "outputs": [
        {
          "internalType": "contract LootBox",
          "name": "",
          "type": "address"
        }
      ],
      "stateMutability": "view",
      "type": "function"
    },
    {
      "inputs": [
        {
          "internalType": "address",
          "name": "erc721",
          "type": "address"
        },
        {
          "internalType": "uint256",
          "name": "tokenId",
          "type": "uint256"
        },
        {
          "internalType": "contract IERC20[]",
          "name": "erc20s",
          "type": "address[]"
        },
        {
          "components": [
            {
              "internalType": "contract IERC721",
              "name": "token",
              "type": "address"
            },
            {
              "internalType": "uint256[]",
              "name": "tokenIds",
              "type": "uint256[]"
            }
          ],
          "internalType": "struct LootBox.WithdrawERC721[]",
          "name": "erc721s",
          "type": "tuple[]"
        },
        {
          "components": [
            {
              "internalType": "contract IERC1155",
              "name": "token",
              "type": "address"
            },
            {
              "internalType": "uint256[]",
              "name": "ids",
              "type": "uint256[]"
            },
            {
              "internalType": "uint256[]",
              "name": "amounts",
              "type": "uint256[]"
            },
            {
              "internalType": "bytes",
              "name": "data",
              "type": "bytes"
            }
          ],
          "internalType": "struct LootBox.WithdrawERC1155[]",
          "name": "erc1155s",
          "type": "tuple[]"
        }
      ],
      "name": "plunder",
      "outputs": [],
      "stateMutability": "nonpayable",
      "type": "function"
    }
  ],
  "address": "0x3E3A097aF79D6389c16A1e2b3A2F056D3D543C53",
  "args": [],
  "solcInputHash": "0xa994cb3828826a151999746cfc6505dba063864d02c3e95b31c08666eea50be3",
  "bytecode": "0x60806040523480156200001157600080fd5b50600160405162000022906200015c565b6200002e919062000221565b604051809103906000f0801580156200004b573d6000803e3d6000fd5b506000806101000a81548173ffffffffffffffffffffffffffffffffffffffff021916908373ffffffffffffffffffffffffffffffffffffffff160217905550620000c160008054906101000a900473ffffffffffffffffffffffffffffffffffffffff16620000df60201b620005991760201c565b60019080519060200190620000d89291906200016a565b506200024a565b606060008260601b905060376040519250601f19601f60208301011683016040528083527f3d602d80600a3d3981f3363d3d373d3d3d363d7300000000000000000000000060208401528160348401527f5af43d82803e903d91602b57fd5bf3000000000000000000000000000000000060488401525050919050565b6119518062001e2483390190565b828054600181600116156101000203166002900490600052602060002090601f016020900481019282601f10620001ad57805160ff1916838001178555620001de565b82800160010185558215620001de579182015b82811115620001dd578251825591602001919060010190620001c0565b5b509050620001ed9190620001f1565b5090565b5b808211156200020c576000816000905550600101620001f2565b5090565b6200021b816200023e565b82525050565b600060208201905062000238600083018462000210565b92915050565b60008115159050919050565b611bca806200025a6000396000f3fe608060405234801561001057600080fd5b506004361061004c5760003560e01c80632695dc461461005157806336b5aa2d1461006f57806370f7d4ba1461009f578063b41aee87146100bb575b600080fd5b6100596100eb565b604051610066919061153a565b60405180910390f35b61008960048036038101906100849190610b03565b61010f565b604051610096919061145e565b60405180910390f35b6100b960048036038101906100b49190610b3f565b610142565b005b6100d560048036038101906100d09190610c0b565b610325565b6040516100e29190611494565b60405180910390f35b60008054906101000a900473ffffffffffffffffffffffffffffffffffffffff1681565b600061013a61011e8484610616565b600160405161012d9190611447565b6040518091039020610649565b905092915050565b60008873ffffffffffffffffffffffffffffffffffffffff16636352211e896040518263ffffffff1660e01b815260040161017d91906115d5565b60206040518083038186803b15801561019557600080fd5b505afa1580156101a9573d6000803e3d6000fd5b505050506040513d601f19601f820116820180604052508101906101cd9190610ada565b905060006101db8a8a61065e565b90508073ffffffffffffffffffffffffffffffffffffffff16637cc0f211898989898989896040518863ffffffff1660e01b815260040161022297969594939291906114b6565b600060405180830381600087803b15801561023c57600080fd5b505af1158015610250573d6000803e3d6000fd5b505050508073ffffffffffffffffffffffffffffffffffffffff1662f55d9d836040518263ffffffff1660e01b815260040161028c9190611479565b600060405180830381600087803b1580156102a657600080fd5b505af11580156102ba573d6000803e3d6000fd5b505050503373ffffffffffffffffffffffffffffffffffffffff16898b73ffffffffffffffffffffffffffffffffffffffff167f9153d96b9ed0d8d5598ddeb8ac09f612abdf5f8655b09848e7ee98d7af70347660405160405180910390a450505050505050505050565b606060008573ffffffffffffffffffffffffffffffffffffffff16636352211e866040518263ffffffff1660e01b815260040161036291906115d5565b60206040518083038186803b15801561037a57600080fd5b505afa15801561038e573d6000803e3d6000fd5b505050506040513d601f19601f820116820180604052508101906103b29190610ada565b90508073ffffffffffffffffffffffffffffffffffffffff163373ffffffffffffffffffffffffffffffffffffffff1614610422576040517f08c379a000000000000000000000000000000000000000000000000000000000815260040161041990611575565b60405180910390fd5b600061042e878761065e565b905060608173ffffffffffffffffffffffffffffffffffffffff16631726fa8187876040518363ffffffff1660e01b815260040161046d929190611516565b600060405180830381600087803b15801561048757600080fd5b505af115801561049b573d6000803e3d6000fd5b505050506040513d6000823e3d601f19601f820116820180604052508101906104c49190610c77565b90508173ffffffffffffffffffffffffffffffffffffffff1662f55d9d846040518263ffffffff1660e01b81526004016104fe9190611479565b600060405180830381600087803b15801561051857600080fd5b505af115801561052c573d6000803e3d6000fd5b505050503373ffffffffffffffffffffffffffffffffffffffff16878973ffffffffffffffffffffffffffffffffffffffff167f52ba16c8b985eff690a9de92094bd7486f89340e06e385ffb26de9c6eea384dc60405160405180910390a4809350505050949350505050565b606060008260601b905060376040519250601f19601f60208301011683016040528083527f3d602d80600a3d3981f3363d3d373d3d3d363d7300000000000000000000000060208401528160348401527f5af43d82803e903d91602b57fd5bf3000000000000000000000000000000000060488401525050919050565b6000828260405160200161062b9291906113cd565b60405160208183030381529060405280519060200120905092915050565b6000610656838330610717565b905092915050565b600061070f600061066f8585610616565b60018054600181600116156101000203166002900480601f0160208091040260200160405190810160405280929190818152602001828054600181600116156101000203166002900480156107055780601f106106da57610100808354040283529160200191610705565b820191906000526020600020905b8154815290600101906020018083116106e857829003601f168201915b505050505061075b565b905092915050565b60008060ff60f81b83868660405160200161073594939291906113f9565b6040516020818303038152906040528051906020012090508060001c9150509392505050565b600080844710156107a1576040517f08c379a0000000000000000000000000000000000000000000000000000000008152600401610798906115b5565b60405180910390fd5b6000835114156107e6576040517f08c379a00000000000000000000000000000000000000000000000000000000081526004016107dd90611555565b60405180910390fd5b8383516020850187f59050600073ffffffffffffffffffffffffffffffffffffffff168173ffffffffffffffffffffffffffffffffffffffff161415610861576040517f08c379a000000000000000000000000000000000000000000000000000000000815260040161085890611595565b60405180910390fd5b809150509392505050565b60008135905061087b81611b21565b92915050565b60008151905061089081611b21565b92915050565b600082601f8301126108a757600080fd5b81516108ba6108b58261161d565b6115f0565b9150818183526020840193506020810190508360005b8381101561090057815186016108e68882610a32565b8452602084019350602083019250506001810190506108d0565b5050505092915050565b60008083601f84011261091c57600080fd5b8235905067ffffffffffffffff81111561093557600080fd5b60208301915083602082028301111561094d57600080fd5b9250929050565b60008083601f84011261096657600080fd5b8235905067ffffffffffffffff81111561097f57600080fd5b60208301915083602082028301111561099757600080fd5b9250929050565b60008083601f8401126109b057600080fd5b8235905067ffffffffffffffff8111156109c957600080fd5b6020830191508360208202830111156109e157600080fd5b9250929050565b60008083601f8401126109fa57600080fd5b8235905067ffffffffffffffff811115610a1357600080fd5b602083019150836020820283011115610a2b57600080fd5b9250929050565b600082601f830112610a4357600080fd5b8151610a56610a5182611645565b6115f0565b91508082526020830160208301858383011115610a7257600080fd5b610a7d838284611a8e565b50505092915050565b600081359050610a9581611b38565b92915050565b600081359050610aaa81611b4f565b92915050565b600081359050610abf81611b66565b92915050565b600081359050610ad481611b7d565b92915050565b600060208284031215610aec57600080fd5b6000610afa84828501610881565b91505092915050565b60008060408385031215610b1657600080fd5b6000610b248582860161086c565b9250506020610b3585828601610ac5565b9150509250929050565b60008060008060008060008060a0898b031215610b5b57600080fd5b6000610b698b828c0161086c565b9850506020610b7a8b828c01610ac5565b975050604089013567ffffffffffffffff811115610b9757600080fd5b610ba38b828c0161090a565b9650965050606089013567ffffffffffffffff811115610bc257600080fd5b610bce8b828c016109e8565b9450945050608089013567ffffffffffffffff811115610bed57600080fd5b610bf98b828c0161099e565b92509250509295985092959890939650565b60008060008060608587031215610c2157600080fd5b6000610c2f8782880161086c565b9450506020610c4087828801610ac5565b935050604085013567ffffffffffffffff811115610c5d57600080fd5b610c6987828801610954565b925092505092959194509250565b600060208284031215610c8957600080fd5b600082015167ffffffffffffffff811115610ca357600080fd5b610caf84828501610896565b91505092915050565b6000610cc48383611045565b905092915050565b6000610cd8838361111b565b60208301905092915050565b6000610cf08383611248565b905092915050565b6000610d0483836112b2565b905092915050565b6000610d188383611349565b905092915050565b610d2981611947565b82525050565b610d3881611935565b82525050565b610d4781611935565b82525050565b610d5e610d5982611935565b611ac1565b82525050565b6000610d6f826116be565b610d798185611726565b935083602082028501610d8b85611671565b8060005b85811015610dc75784840389528151610da88582610cb8565b9450610db3836116d4565b925060208a01995050600181019050610d8f565b50829750879550505050505092915050565b6000610de58385611715565b9350610df082611681565b8060005b85811015610e2957610e068284611884565b610e108882610ccc565b9750610e1b836116e1565b925050600181019050610df4565b5085925050509392505050565b6000610e428385611737565b935083602084028501610e548461168b565b8060005b87811015610e98578484038952610e6f82846118b2565b610e798582610ce4565b9450610e84836116ee565b925060208a01995050600181019050610e58565b50829750879450505050509392505050565b6000610eb68385611748565b935083602084028501610ec884611695565b8060005b87811015610f0c578484038952610ee382846118d6565b610eed8582610cf8565b9450610ef8836116fb565b925060208a01995050600181019050610ecc565b50829750879450505050509392505050565b6000610f2a8385611759565b935083602084028501610f3c8461169f565b8060005b87811015610f80578484038952610f5782846118fa565b610f618582610d0c565b9450610f6c83611708565b925060208a01995050600181019050610f40565b50829750879450505050509392505050565b6000610f9e838561176a565b93507f07ffffffffffffffffffffffffffffffffffffffffffffffffffffffffffffff831115610fcd57600080fd5b602083029250610fde838584611a7f565b82840190509392505050565b610ffb610ff682611959565b611ad3565b82525050565b61101261100d82611985565b611add565b82525050565b6000611024838561177b565b9350611031838584611a7f565b61103a83611b03565b840190509392505050565b6000611050826116c9565b61105a818561177b565b935061106a818560208601611a8e565b61107381611b03565b840191505092915050565b60008154600181166000811461109b57600181146110c057611104565b607f60028304166110ac818761178c565b955060ff1983168652808601935050611104565b600282046110ce818761178c565b95506110d9856116a9565b60005b828110156110fb578154818901526001820191506020810190506110dc565b82880195505050505b505092915050565b611115816119ef565b82525050565b61112481611a13565b82525050565b61113381611a37565b82525050565b61114281611a5b565b82525050565b6000611155602083611797565b91507f437265617465323a2062797465636f6465206c656e677468206973207a65726f6000830152602082019050919050565b6000611195601c83611797565b91507f4c6f6f74426f78436f6e74726f6c6c65722f6f6e6c792d6f776e6572000000006000830152602082019050919050565b60006111d5601983611797565b91507f437265617465323a204661696c6564206f6e206465706c6f79000000000000006000830152602082019050919050565b6000611215601d83611797565b91507f437265617465323a20696e73756666696369656e742062616c616e63650000006000830152602082019050919050565b60006060830161125b60008401846117a8565b6112686000860182610d2f565b50611276602084018461191e565b6112836020860182611398565b506112916040840184611816565b85830360408701526112a4838284611018565b925050508091505092915050565b6000608083016112c5600084018461186d565b6112d2600086018261110c565b506112e060208401846117bf565b85830360208701526112f3838284610f92565b9250505061130460408401846117bf565b8583036040870152611317838284610f92565b925050506113286060840184611816565b858303606087015261133b838284611018565b925050508091505092915050565b60006040830161135c600084018461189b565b611369600086018261112a565b5061137760208401846117bf565b858303602087015261138a838284610f92565b925050508091505092915050565b6113a1816119e5565b82525050565b6113b0816119e5565b82525050565b6113c76113c2826119e5565b611af9565b82525050565b60006113d98285610d4d565b6014820191506113e982846113b6565b6020820191508190509392505050565b60006114058287610fea565b6001820191506114158286610d4d565b6014820191506114258285611001565b6020820191506114358284611001565b60208201915081905095945050505050565b6000611453828461107e565b915081905092915050565b60006020820190506114736000830184610d3e565b92915050565b600060208201905061148e6000830184610d20565b92915050565b600060208201905081810360008301526114ae8184610d64565b905092915050565b600060808201905081810360008301526114d181898b610dd9565b905081810360208301526114e6818789610f1e565b905081810360408301526114fb818587610eaa565b905061150a6060830184610d20565b98975050505050505050565b60006020820190508181036000830152611531818486610e36565b90509392505050565b600060208201905061154f6000830184611139565b92915050565b6000602082019050818103600083015261156e81611148565b9050919050565b6000602082019050818103600083015261158e81611188565b9050919050565b600060208201905081810360008301526115ae816111c8565b9050919050565b600060208201905081810360008301526115ce81611208565b9050919050565b60006020820190506115ea60008301846113a7565b92915050565b6000604051905081810181811067ffffffffffffffff8211171561161357600080fd5b8060405250919050565b600067ffffffffffffffff82111561163457600080fd5b602082029050602081019050919050565b600067ffffffffffffffff82111561165c57600080fd5b601f19601f8301169050602081019050919050565b6000819050602082019050919050565b6000819050919050565b6000819050919050565b6000819050919050565b6000819050919050565b60008190508160005260206000209050919050565b600081519050919050565b600081519050919050565b6000602082019050919050565b6000602082019050919050565b6000602082019050919050565b6000602082019050919050565b6000602082019050919050565b600082825260208201905092915050565b600082825260208201905092915050565b600082825260208201905092915050565b600082825260208201905092915050565b600082825260208201905092915050565b600082825260208201905092915050565b600082825260208201905092915050565b600081905092915050565b600082825260208201905092915050565b60006117b7602084018461086c565b905092915050565b600080833560016020038436030381126117d857600080fd5b83810192508235915060208301925067ffffffffffffffff8211156117fc57600080fd5b60208202360384131561180e57600080fd5b509250929050565b6000808335600160200384360303811261182f57600080fd5b83810192508235915060208301925067ffffffffffffffff82111561185357600080fd5b60018202360384131561186557600080fd5b509250929050565b600061187c6020840184610a86565b905092915050565b60006118936020840184610a9b565b905092915050565b60006118aa6020840184610ab0565b905092915050565b6000823560016060038336030381126118ca57600080fd5b82810191505092915050565b6000823560016080038336030381126118ee57600080fd5b82810191505092915050565b60008235600160400383360303811261191257600080fd5b82810191505092915050565b600061192d6020840184610ac5565b905092915050565b6000611940826119c5565b9050919050565b6000611952826119c5565b9050919050565b60007fff0000000000000000000000000000000000000000000000000000000000000082169050919050565b6000819050919050565b600061199a82611935565b9050919050565b60006119ac82611935565b9050919050565b60006119be82611935565b9050919050565b600073ffffffffffffffffffffffffffffffffffffffff82169050919050565b6000819050919050565b60006119fa82611a01565b9050919050565b6000611a0c826119c5565b9050919050565b6000611a1e82611a25565b9050919050565b6000611a30826119c5565b9050919050565b6000611a4282611a49565b9050919050565b6000611a54826119c5565b9050919050565b6000611a6682611a6d565b9050919050565b6000611a78826119c5565b9050919050565b82818337600083830152505050565b60005b83811015611aac578082015181840152602081019050611a91565b83811115611abb576000848401525b50505050565b6000611acc82611ae7565b9050919050565b6000819050919050565b6000819050919050565b6000611af282611b14565b9050919050565b6000819050919050565b6000601f19601f8301169050919050565b60008160601b9050919050565b611b2a81611935565b8114611b3557600080fd5b50565b611b418161198f565b8114611b4c57600080fd5b50565b611b58816119a1565b8114611b6357600080fd5b50565b611b6f816119b3565b8114611b7a57600080fd5b50565b611b86816119e5565b8114611b9157600080fd5b5056fea2646970667358221220dc9c8e5372001202054ab91b90453f13de63b39609be46061d0825531dcc7d2364736f6c634300060c003360806040523480156200001157600080fd5b506040516200195138038062001951833981810160405281019062000037919062000077565b8015620000595760016000806101000a81548160ff0219169083151502179055505b50620000c9565b6000815190506200007181620000af565b92915050565b6000602082840312156200008a57600080fd5b60006200009a8482850162000060565b91505092915050565b60008115159050919050565b620000ba81620000a3565b8114620000c657600080fd5b50565b61187880620000d96000396000f3fe608060405234801561001057600080fd5b50600436106100565760003560e01c8062f55d9d1461005b57806305b1137b146100775780631726fa81146100935780637cc0f211146100c3578063abf07488146100df575b600080fd5b61007560048036038101906100709190610e24565b6100fd565b005b610091600480360381019061008c9190610e4d565b61016a565b005b6100ad60048036038101906100a89190610f34565b610203565b6040516100ba919061135c565b60405180910390f35b6100dd60048036038101906100d89190610e89565b61035e565b005b6100e76103fc565b6040516100f491906113ec565b60405180910390f35b6000151560008054906101000a900460ff16151514610151576040517f08c379a000000000000000000000000000000000000000000000000000000000815260040161014890611429565b60405180910390fd5b8073ffffffffffffffffffffffffffffffffffffffff16ff5b8173ffffffffffffffffffffffffffffffffffffffff166108fc829081150290604051600060405180830381858888f193505050501580156101b0573d6000803e3d6000fd5b508173ffffffffffffffffffffffffffffffffffffffff167ff35d7b6a86398c5aabcd316353d6f069dbc1be6fa0ab49d809bfbf6d96f55575826040516101f79190611469565b60405180910390a25050565b6060808383905067ffffffffffffffff8111801561022057600080fd5b5060405190808252806020026020018201604052801561025457816020015b606081526020019060019003908161023f5790505b50905060005b848490508110156103535761032f85858381811061027457fe5b905060200281019061028691906114db565b60000160208101906102989190610dfb565b8686848181106102a457fe5b90506020028101906102b691906114db565b602001358787858181106102c657fe5b90506020028101906102d891906114db565b80604001906102e79190611484565b8080601f016020809104026020016040519081016040528093929190818152602001838380828437600081840152601f19601f8201169050808301925050505050505061040d565b82828151811061033b57fe5b6020026020010181905250808060010191505061025a565b508091505092915050565b600073ffffffffffffffffffffffffffffffffffffffff168173ffffffffffffffffffffffffffffffffffffffff1614156103ce576040517f08c379a00000000000000000000000000000000000000000000000000000000081526004016103c590611449565b60405180910390fd5b6103d884826104d0565b6103e28382610691565b6103ec828261080c565b6103f6814761016a565b50505050565b60008054906101000a900460ff1681565b6060600060608573ffffffffffffffffffffffffffffffffffffffff1685856040516104399190611262565b60006040518083038185875af1925050503d8060008114610476576040519150601f19603f3d011682016040523d82523d6000602084013e61047b565b606091505b50915091508181906104c3576040517f08c379a00000000000000000000000000000000000000000000000000000000081526004016104ba9190611407565b60405180910390fd5b5080925050509392505050565b60005b825181101561068c5760008382815181106104ea57fe5b602002602001015173ffffffffffffffffffffffffffffffffffffffff166370a08231306040518263ffffffff1660e01b815260040161052a9190611279565b60206040518083038186803b15801561054257600080fd5b505afa158015610556573d6000803e3d6000fd5b505050506040513d601f19601f8201168201806040525081019061057a9190610fa2565b905083828151811061058857fe5b602002602001015173ffffffffffffffffffffffffffffffffffffffff1663a9059cbb84836040518363ffffffff1660e01b81526004016105ca929190611333565b602060405180830381600087803b1580156105e457600080fd5b505af11580156105f8573d6000803e3d6000fd5b505050506040513d601f19601f8201168201806040525081019061061c9190610f79565b5083828151811061062957fe5b602002602001015173ffffffffffffffffffffffffffffffffffffffff167f93295a03b599aa244f344512a042ed4a3cd191df56cc1454674b0bd859377749826040516106769190611469565b60405180910390a25080806001019150506104d3565b505050565b60005b82518110156108075760005b8382815181106106ac57fe5b6020026020010151602001515181101561077d578382815181106106cc57fe5b60200260200101516000015173ffffffffffffffffffffffffffffffffffffffff166323b872dd308587868151811061070157fe5b602002602001015160200151858151811061071857fe5b60200260200101516040518463ffffffff1660e01b815260040161073e939291906112fc565b600060405180830381600087803b15801561075857600080fd5b505af115801561076c573d6000803e3d6000fd5b5050505080806001019150506106a0565b5082818151811061078a57fe5b60200260200101516000015173ffffffffffffffffffffffffffffffffffffffff167f7c0114b67370be67d9c25c0fae9f991d289ce990616efebe475d8447764b36498483815181106107d957fe5b6020026020010151602001516040516107f2919061137e565b60405180910390a28080600101915050610694565b505050565b60005b82518110156109a25782818151811061082457fe5b60200260200101516000015173ffffffffffffffffffffffffffffffffffffffff16632eb2c2d6308486858151811061085957fe5b60200260200101516020015187868151811061087157fe5b60200260200101516040015188878151811061088957fe5b6020026020010151606001516040518663ffffffff1660e01b81526004016108b5959493929190611294565b600060405180830381600087803b1580156108cf57600080fd5b505af11580156108e3573d6000803e3d6000fd5b505050508281815181106108f357fe5b60200260200101516000015173ffffffffffffffffffffffffffffffffffffffff167f25eda4a32b6b54b71997d605d08b9a0b5b8195e846780404a97089d22cdc896c84838151811061094257fe5b60200260200101516020015185848151811061095a57fe5b60200260200101516040015186858151811061097257fe5b60200260200101516060015160405161098d939291906113a0565b60405180910390a2808060010191505061080f565b505050565b6000813590506109b6816117a1565b92915050565b6000813590506109cb816117b8565b92915050565b600082601f8301126109e257600080fd5b81356109f56109f08261152c565b6114ff565b91508181835260208401935060208101905083856020840282011115610a1a57600080fd5b60005b83811015610a4a5781610a308882610c87565b845260208401935060208301925050600181019050610a1d565b5050505092915050565b60008083601f840112610a6657600080fd5b8235905067ffffffffffffffff811115610a7f57600080fd5b602083019150836020820283011115610a9757600080fd5b9250929050565b600082601f830112610aaf57600080fd5b8135610ac2610abd82611554565b6114ff565b9150818183526020840193506020810190508360005b83811015610b085781358601610aee8882610cb1565b845260208401935060208301925050600181019050610ad8565b5050505092915050565b600082601f830112610b2357600080fd5b8135610b36610b318261157c565b6114ff565b9150818183526020840193506020810190508360005b83811015610b7c5781358601610b628882610d6d565b845260208401935060208301925050600181019050610b4c565b5050505092915050565b600082601f830112610b9757600080fd5b8135610baa610ba5826115a4565b6114ff565b91508181835260208401935060208101905083856020840282011115610bcf57600080fd5b60005b83811015610bff5781610be58882610dd1565b845260208401935060208301925050600181019050610bd2565b5050505092915050565b600081519050610c18816117cf565b92915050565b600082601f830112610c2f57600080fd5b8135610c42610c3d826115cc565b6114ff565b91508082526020830160208301858383011115610c5e57600080fd5b610c6983828461174e565b50505092915050565b600081359050610c81816117e6565b92915050565b600081359050610c96816117fd565b92915050565b600081359050610cab81611814565b92915050565b600060808284031215610cc357600080fd5b610ccd60806114ff565b90506000610cdd84828501610c72565b600083015250602082013567ffffffffffffffff811115610cfd57600080fd5b610d0984828501610b86565b602083015250604082013567ffffffffffffffff811115610d2957600080fd5b610d3584828501610b86565b604083015250606082013567ffffffffffffffff811115610d5557600080fd5b610d6184828501610c1e565b60608301525092915050565b600060408284031215610d7f57600080fd5b610d8960406114ff565b90506000610d9984828501610c9c565b600083015250602082013567ffffffffffffffff811115610db957600080fd5b610dc584828501610b86565b60208301525092915050565b600081359050610de08161182b565b92915050565b600081519050610df58161182b565b92915050565b600060208284031215610e0d57600080fd5b6000610e1b848285016109a7565b91505092915050565b600060208284031215610e3657600080fd5b6000610e44848285016109bc565b91505092915050565b60008060408385031215610e6057600080fd5b6000610e6e858286016109bc565b9250506020610e7f85828601610dd1565b9150509250929050565b60008060008060808587031215610e9f57600080fd5b600085013567ffffffffffffffff811115610eb957600080fd5b610ec5878288016109d1565b945050602085013567ffffffffffffffff811115610ee257600080fd5b610eee87828801610b12565b935050604085013567ffffffffffffffff811115610f0b57600080fd5b610f1787828801610a9e565b9250506060610f28878288016109bc565b91505092959194509250565b60008060208385031215610f4757600080fd5b600083013567ffffffffffffffff811115610f6157600080fd5b610f6d85828601610a54565b92509250509250929050565b600060208284031215610f8b57600080fd5b6000610f9984828501610c09565b91505092915050565b600060208284031215610fb457600080fd5b6000610fc284828501610de6565b91505092915050565b6000610fd783836110e8565b905092915050565b6000610feb8383611244565b60208301905092915050565b611000816116be565b82525050565b600061101182611618565b61101b818561165e565b93508360208202850161102d856115f8565b8060005b85811015611069578484038952815161104a8582610fcb565b945061105583611644565b925060208a01995050600181019050611031565b50829750879550505050505092915050565b600061108682611623565b611090818561166f565b935061109b83611608565b8060005b838110156110cc5781516110b38882610fdf565b97506110be83611651565b92505060018101905061109f565b5085935050505092915050565b6110e2816116e2565b82525050565b60006110f38261162e565b6110fd8185611680565b935061110d81856020860161175d565b61111681611790565b840191505092915050565b600061112c8261162e565b6111368185611691565b935061114681856020860161175d565b61114f81611790565b840191505092915050565b60006111658261162e565b61116f81856116a2565b935061117f81856020860161175d565b80840191505092915050565b600061119682611639565b6111a081856116ad565b93506111b081856020860161175d565b6111b981611790565b840191505092915050565b60006111d16019836116ad565b91507f4c6f6f74426f782f69732d696e646573747275637469626c65000000000000006000830152602082019050919050565b60006112116013836116ad565b91507f4c6f6f74426f782f6e6f6e2d7a65726f2d746f000000000000000000000000006000830152602082019050919050565b61124d81611744565b82525050565b61125c81611744565b82525050565b600061126e828461115a565b915081905092915050565b600060208201905061128e6000830184610ff7565b92915050565b600060a0820190506112a96000830188610ff7565b6112b66020830187610ff7565b81810360408301526112c8818661107b565b905081810360608301526112dc818561107b565b905081810360808301526112f08184611121565b90509695505050505050565b60006060820190506113116000830186610ff7565b61131e6020830185610ff7565b61132b6040830184611253565b949350505050565b60006040820190506113486000830185610ff7565b6113556020830184611253565b9392505050565b600060208201905081810360008301526113768184611006565b905092915050565b60006020820190508181036000830152611398818461107b565b905092915050565b600060608201905081810360008301526113ba818661107b565b905081810360208301526113ce818561107b565b905081810360408301526113e28184611121565b9050949350505050565b600060208201905061140160008301846110d9565b92915050565b60006020820190508181036000830152611421818461118b565b905092915050565b60006020820190508181036000830152611442816111c4565b9050919050565b6000602082019050818103600083015261146281611204565b9050919050565b600060208201905061147e6000830184611253565b92915050565b6000808335600160200384360303811261149d57600080fd5b80840192508235915067ffffffffffffffff8211156114bb57600080fd5b6020830192506001820236038313156114d357600080fd5b509250929050565b6000823560016060038336030381126114f357600080fd5b80830191505092915050565b6000604051905081810181811067ffffffffffffffff8211171561152257600080fd5b8060405250919050565b600067ffffffffffffffff82111561154357600080fd5b602082029050602081019050919050565b600067ffffffffffffffff82111561156b57600080fd5b602082029050602081019050919050565b600067ffffffffffffffff82111561159357600080fd5b602082029050602081019050919050565b600067ffffffffffffffff8211156115bb57600080fd5b602082029050602081019050919050565b600067ffffffffffffffff8211156115e357600080fd5b601f19601f8301169050602081019050919050565b6000819050602082019050919050565b6000819050602082019050919050565b600081519050919050565b600081519050919050565b600081519050919050565b600081519050919050565b6000602082019050919050565b6000602082019050919050565b600082825260208201905092915050565b600082825260208201905092915050565b600082825260208201905092915050565b600082825260208201905092915050565b600081905092915050565b600082825260208201905092915050565b60006116c982611724565b9050919050565b60006116db82611724565b9050919050565b60008115159050919050565b60006116f9826116be565b9050919050565b600061170b826116be565b9050919050565b600061171d826116be565b9050919050565b600073ffffffffffffffffffffffffffffffffffffffff82169050919050565b6000819050919050565b82818337600083830152505050565b60005b8381101561177b578082015181840152602081019050611760565b8381111561178a576000848401525b50505050565b6000601f19601f8301169050919050565b6117aa816116be565b81146117b557600080fd5b50565b6117c1816116d0565b81146117cc57600080fd5b50565b6117d8816116e2565b81146117e357600080fd5b50565b6117ef816116ee565b81146117fa57600080fd5b50565b61180681611700565b811461181157600080fd5b50565b61181d81611712565b811461182857600080fd5b50565b61183481611744565b811461183f57600080fd5b5056fea26469706673582212202277e503a2f479e9ea49b06ff04b6450ff6c76f8dd8ea49c3a99442afe40e50564736f6c634300060c0033",
  "devdoc": {
    "author": "Brendan Asselstine",
    "kind": "dev",
    "methods": {
      "computeAddress(address,uint256)": {
        "details": "The contract will not exist yet, so the Loot Box address will have no code.",
        "params": {
          "erc721": "The address of the ERC721",
          "tokenId": "The ERC721 token id"
        },
        "returns": {
          "_0": "The address of the Loot Box."
        }
      },
      "constructor": {
        "details": "Creates a new LootBox instance and an associated minimal proxy."
      },
      "executeCalls(address,uint256,(address,uint256,bytes)[])": {
        "details": "The Loot Box will be counterfactually created, calls executed, then the contract destroyed.",
        "params": {
          "calls": "The array of call structs that define that target, amount of ether, and data.",
          "erc721": "The ERC721 address",
          "tokenId": "The ERC721 token id"
        },
        "returns": {
          "_0": "The array of call return values."
        }
      },
      "plunder(address,uint256,address[],(address,uint256[])[],(address,uint256[],uint256[],bytes)[])": {
        "details": "A Loot Box contract will be counterfactually created, tokens transferred to the ERC721 owner, then destroyed.",
        "params": {
          "erc1155s": "An array of struct defining ERC1155 tokens that should be transferred",
          "erc20s": "An array of ERC20 tokens whose entire balance should be transferred",
          "erc721": "The address of the ERC721",
          "erc721s": "An array of structs defining ERC721 tokens that should be transferred",
          "tokenId": "The ERC721 token id"
        }
      }
    },
    "title": "Allows users to plunder an address associated with an ERC721",
    "version": 1
  },
  "userdoc": {
    "events": {
      "Executed(address,uint256,address)": {
        "notice": "Emitted when a Loot Box is executed"
      },
      "Plundered(address,uint256,address)": {
        "notice": "Emitted when a Loot Box is plundered"
      }
    },
    "kind": "user",
    "methods": {
      "computeAddress(address,uint256)": {
        "notice": "Computes the Loot Box address for a given ERC721 token."
      },
      "constructor": "Constructs a new controller.",
      "executeCalls(address,uint256,(address,uint256,bytes)[])": {
        "notice": "Allows the owner of an ERC721 to execute abitrary calls on behalf of the associated Loot Box."
      },
      "lootBoxInstance()": {
        "notice": "The instance to which all proxies will point"
      },
      "plunder(address,uint256,address[],(address,uint256[])[],(address,uint256[],uint256[],bytes)[])": {
        "notice": "Allows anyone to transfer all given tokens in a Loot Box to the associated ERC721 owner."
      }
    },
    "notice": "Counterfactually instantiates a \"Loot Box\" at an address unique to an ERC721 token.  The address for an ERC721 token can be computed and later plundered by transferring token balances to the ERC721 owner.",
    "version": 1
  },
  "storageLayout": {
    "storage": [
      {
        "astId": 7716,
        "contract": "contracts/LootBoxController.sol:LootBoxController",
        "label": "lootBoxInstance",
        "offset": 0,
        "slot": "0",
        "type": "t_contract(LootBox)7706"
      },
      {
        "astId": 7718,
        "contract": "contracts/LootBoxController.sol:LootBoxController",
        "label": "lootBoxBytecode",
        "offset": 0,
        "slot": "1",
        "type": "t_bytes_storage"
      }
    ],
    "types": {
      "t_bytes_storage": {
        "encoding": "bytes",
        "label": "bytes",
        "numberOfBytes": "32"
      },
      "t_contract(LootBox)7706": {
        "encoding": "inplace",
        "label": "contract LootBox",
        "numberOfBytes": "20"
      }
    }
  },
  "gasEstimates": {
    "creation": {
      "codeDepositCost": "1422800",
      "executionCost": "infinite",
      "totalCost": "infinite"
    },
    "external": {
      "computeAddress(address,uint256)": "infinite",
      "executeCalls(address,uint256,(address,uint256,bytes)[])": "infinite",
      "lootBoxInstance()": "1232",
      "plunder(address,uint256,address[],(address,uint256[])[],(address,uint256[],uint256[],bytes)[])": "infinite"
    },
    "internal": {
      "_createLootBox(address,uint256)": "infinite",
      "_salt(address,uint256)": "infinite"
    }
  }
}