{
  "abi": [
    {
      "inputs": [],
      "stateMutability": "nonpayable",
      "type": "constructor"
    },
    {
      "anonymous": false,
      "inputs": [
        {
          "indexed": false,
          "internalType": "address",
          "name": "proxy",
          "type": "address"
        }
      ],
      "name": "ProxyCreated",
      "type": "event"
    },
    {
      "inputs": [
        {
          "internalType": "contract LootBox",
          "name": "lootBox",
          "type": "address"
        }
      ],
      "name": "create",
      "outputs": [
        {
          "internalType": "contract LootBoxContainer",
          "name": "",
          "type": "address"
        }
      ],
      "stateMutability": "nonpayable",
      "type": "function"
    },
    {
      "inputs": [
        {
          "internalType": "address",
          "name": "_logic",
          "type": "address"
        },
        {
          "internalType": "bytes",
          "name": "_data",
          "type": "bytes"
        }
      ],
      "name": "deployMinimal",
      "outputs": [
        {
          "internalType": "address",
          "name": "proxy",
          "type": "address"
        }
      ],
      "stateMutability": "nonpayable",
      "type": "function"
    },
    {
      "inputs": [],
      "name": "lootBoxContainerInstance",
      "outputs": [
        {
          "internalType": "contract LootBoxContainer",
          "name": "",
          "type": "address"
        }
      ],
      "stateMutability": "view",
      "type": "function"
    }
  ],
  "address": "0x0cEC1A9154Ff802e7934Fc916Ed7Ca50bDE6844e",
  "args": [],
  "solcInputHash": "0x7b4ce4916980e2d41d798962539a4021a46046e589cc964ef2e2a22d7040018f",
  "bytecode": "0x608060405234801561001057600080fd5b5060405161001d9061005f565b604051809103906000f080158015610039573d6000803e3d6000fd5b50600080546001600160a01b0319166001600160a01b039290921691909117905561006c565b6108578061043f83390190565b6103c48061007b6000396000f3fe608060405234801561001057600080fd5b50600436106100415760003560e01c80637e851de0146100465780639ed933181461006a578063b3eeb5e214610090575b600080fd5b61004e610146565b604080516001600160a01b039092168252519081900360200190f35b61004e6004803603602081101561008057600080fd5b50356001600160a01b0316610155565b61004e600480360360408110156100a657600080fd5b6001600160a01b0382351691908101906040810160208201356401000000008111156100d157600080fd5b8201836020820111156100e357600080fd5b8035906020019184600183028401116401000000008311171561010557600080fd5b91908080601f0160208091040260200160405190810160405280939291908181526020018383808284376000920191909152509295506101ee945050505050565b6000546001600160a01b031681565b600080546040805160208101909152828152829161017e916001600160a01b03909116906101ee565b9050806001600160a01b031663c4d66de8846040518263ffffffff1660e01b815260040180826001600160a01b03168152602001915050600060405180830381600087803b1580156101cf57600080fd5b505af11580156101e3573d6000803e3d6000fd5b509295945050505050565b6000808360601b9050604051733d602d80600a3d3981f3363d3d373d3d3d363d7360601b81528160148201526e5af43d82803e903d91602b57fd5bf360881b60288201526037816000f0604080516001600160a01b038316815290519194507efffc2da0b561cae30d9826d37709e9421c4725faebc226cbbb7ef5fc5e7349925081900360200190a1825115610363576000826001600160a01b0316846040518082805190602001908083835b602083106102ba5780518252601f19909201916020918201910161029b565b6001836020036101000a0380198251168184511680821785525050505050509050019150506000604051808303816000865af19150503d806000811461031c576040519150601f19603f3d011682016040523d82523d6000602084013e610321565b606091505b50509050806103615760405162461bcd60e51b815260040180806020018281038252602481526020018061036b6024913960400191505060405180910390fd5b505b509291505056fe50726f7879466163746f72792f636f6e7374727563746f722d63616c6c2d6661696c6564a2646970667358221220c0000fffff16ccb839e616ba3f080f9b05a137a75d9e0497afb30926e4e6247d64736f6c634300060c0033608060405234801561001057600080fd5b50610837806100206000396000f3fe6080604052600436106100435760003560e01c806305b1137b146100905780631726fa81146100b2578063bca6ce64146100e8578063c4d66de81461010a5761008b565b3661008b57336001600160a01b03167fa419615bc8fda4c87663805ee2a3597a6d71c1d476911d9892f340d965bc7bf134604051610081919061074f565b60405180910390a2005b600080fd5b34801561009c57600080fd5b506100b06100ab36600461056b565b61012a565b005b3480156100be57600080fd5b506100d26100cd366004610596565b61025b565b6040516100df919061064d565b60405180910390f35b3480156100f457600080fd5b506100fd610442565b6040516100df91906106ad565b34801561011657600080fd5b506100b061012536600461052c565b610451565b600080546040516331a9108f60e11b81526001600160a01b0390911690636352211e9061015b90309060040161074f565b60206040518083038186803b15801561017357600080fd5b505afa158015610187573d6000803e3d6000fd5b505050506040513d601f19601f820116820180604052508101906101ab919061054f565b9050336001600160a01b038216146101de5760405162461bcd60e51b81526004016101d590610718565b60405180910390fd5b6040516001600160a01b0384169083156108fc029084906000818181858888f19350505050158015610214573d6000803e3d6000fd5b50826001600160a01b03167ff35d7b6a86398c5aabcd316353d6f069dbc1be6fa0ab49d809bfbf6d96f555758360405161024e919061074f565b60405180910390a2505050565b600080546040516331a9108f60e11b8152606092916001600160a01b031690636352211e9061028e90309060040161074f565b60206040518083038186803b1580156102a657600080fd5b505afa1580156102ba573d6000803e3d6000fd5b505050506040513d601f19601f820116820180604052508101906102de919061054f565b9050336001600160a01b038216146103085760405162461bcd60e51b81526004016101d590610718565b60608367ffffffffffffffff8111801561032157600080fd5b5060405190808252806020026020018201604052801561035557816020015b60608152602001906001900390816103405790505b50905060005b848110156104395761041a86868381811061037257fe5b905060200281019061038491906107a4565b61039290602081019061052c565b87878481811061039e57fe5b90506020028101906103b091906107a4565b602001358888858181106103c057fe5b90506020028101906103d291906107a4565b6103e0906040810190610758565b8080601f01602080910402602001604051908101604052809392919081815260200183838082843760009201919091525061049c92505050565b82828151811061042657fe5b602090810291909101015260010161035b565b50949350505050565b6000546001600160a01b031681565b6000546001600160a01b03161561047a5760405162461bcd60e51b81526004016101d5906106d4565b600080546001600160a01b0319166001600160a01b0392909216919091179055565b606060006060856001600160a01b031685856040516104bb9190610631565b60006040518083038185875af1925050503d80600081146104f8576040519150601f19603f3d011682016040523d82523d6000602084013e6104fd565b606091505b50915091508181906105225760405162461bcd60e51b81526004016101d591906106c1565b5095945050505050565b60006020828403121561053d578081fd5b8135610548816107e9565b9392505050565b600060208284031215610560578081fd5b8151610548816107e9565b6000806040838503121561057d578081fd5b8235610588816107e9565b946020939093013593505050565b600080602083850312156105a8578182fd5b823567ffffffffffffffff808211156105bf578384fd5b818501915085601f8301126105d2578384fd5b8135818111156105e0578485fd5b86602080830285010111156105f3578485fd5b60209290920196919550909350505050565b6000815180845261061d8160208601602086016107b9565b601f01601f19169290920160200192915050565b600082516106438184602087016107b9565b9190910192915050565b6000602080830181845280855180835260408601915060408482028701019250838701855b828110156106a057603f1988860301845261068e858351610605565b94509285019290850190600101610672565b5092979650505050505050565b6001600160a01b0391909116815260200190565b6000602082526105486020830184610605565b60208082526024908201527f4c6f6f74426f78436f6e7461696e65722f616c72656164792d696e697469616c6040820152631a5e995960e21b606082015260800190565b6020808252601a908201527f4c6f6f74426f78436f6e7461696e65722f6e6f742d6f776e6572000000000000604082015260600190565b90815260200190565b6000808335601e1984360301811261076e578283fd5b83018035915067ffffffffffffffff821115610788578283fd5b60200191503681900382131561079d57600080fd5b9250929050565b60008235605e19833603018112610643578182fd5b60005b838110156107d45781810151838201526020016107bc565b838111156107e3576000848401525b50505050565b6001600160a01b03811681146107fe57600080fd5b5056fea2646970667358221220c16a4db84f2a54366d3a2f9fd3113e1516382956bce943c14a21768ddd2f8fad64736f6c634300060c0033",
  "devdoc": {
    "kind": "dev",
    "methods": {},
    "version": 1
  },
  "userdoc": {
    "kind": "user",
    "methods": {},
    "version": 1
  },
  "storageLayout": {
    "storage": [
      {
        "astId": 2853,
        "contract": "contracts/LootBoxContainerFactory.sol:LootBoxContainerFactory",
        "label": "lootBoxContainerInstance",
        "offset": 0,
        "slot": "0",
        "type": "t_contract(LootBoxContainer)2844"
      }
    ],
    "types": {
      "t_contract(LootBoxContainer)2844": {
        "encoding": "inplace",
        "label": "contract LootBoxContainer",
        "numberOfBytes": "20"
      }
    }
  },
  "gasEstimates": {
    "creation": {
      "codeDepositCost": "192800",
      "executionCost": "infinite",
      "totalCost": "infinite"
    },
    "external": {
      "create(address)": "infinite",
      "deployMinimal(address,bytes)": "infinite",
      "lootBoxContainerInstance()": "1015"
    }
  }
}