{
  "abi": [
    {
      "inputs": [],
      "stateMutability": "nonpayable",
      "type": "constructor"
    },
    {
      "anonymous": false,
      "inputs": [
        {
          "indexed": true,
          "internalType": "address",
          "name": "erc721",
          "type": "address"
        },
        {
          "indexed": true,
          "internalType": "uint256",
          "name": "tokenId",
          "type": "uint256"
        },
        {
          "indexed": true,
          "internalType": "address",
          "name": "operator",
          "type": "address"
        }
      ],
      "name": "Executed",
      "type": "event"
    },
    {
      "anonymous": false,
      "inputs": [
        {
          "indexed": true,
          "internalType": "address",
          "name": "erc721",
          "type": "address"
        },
        {
          "indexed": true,
          "internalType": "uint256",
          "name": "tokenId",
          "type": "uint256"
        },
        {
          "indexed": true,
          "internalType": "address",
          "name": "operator",
          "type": "address"
        }
      ],
      "name": "Plundered",
      "type": "event"
    },
    {
      "inputs": [
        {
          "internalType": "address",
          "name": "erc721",
          "type": "address"
        },
        {
          "internalType": "uint256",
          "name": "tokenId",
          "type": "uint256"
        }
      ],
      "name": "computeAddress",
      "outputs": [
        {
          "internalType": "address",
          "name": "",
          "type": "address"
        }
      ],
      "stateMutability": "view",
      "type": "function"
    },
    {
      "inputs": [
        {
          "internalType": "address",
          "name": "erc721",
          "type": "address"
        },
        {
          "internalType": "uint256",
          "name": "tokenId",
          "type": "uint256"
        },
        {
          "components": [
            {
              "internalType": "address",
              "name": "to",
              "type": "address"
            },
            {
              "internalType": "uint256",
              "name": "value",
              "type": "uint256"
            },
            {
              "internalType": "bytes",
              "name": "data",
              "type": "bytes"
            }
          ],
          "internalType": "struct LootBox.Call[]",
          "name": "calls",
          "type": "tuple[]"
        }
      ],
      "name": "executeCalls",
      "outputs": [
        {
          "internalType": "bytes[]",
          "name": "",
          "type": "bytes[]"
        }
      ],
      "stateMutability": "nonpayable",
      "type": "function"
    },
    {
      "inputs": [],
      "name": "lootBoxInstance",
      "outputs": [
        {
          "internalType": "contract LootBox",
          "name": "",
          "type": "address"
        }
      ],
      "stateMutability": "view",
      "type": "function"
    },
    {
      "inputs": [
        {
          "internalType": "address",
          "name": "erc721",
          "type": "address"
        },
        {
          "internalType": "uint256",
          "name": "tokenId",
          "type": "uint256"
        },
        {
          "internalType": "contract IERC20[]",
          "name": "erc20s",
          "type": "address[]"
        },
        {
          "components": [
            {
              "internalType": "contract IERC721",
              "name": "token",
              "type": "address"
            },
            {
              "internalType": "uint256[]",
              "name": "tokenIds",
              "type": "uint256[]"
            }
          ],
          "internalType": "struct LootBox.WithdrawERC721[]",
          "name": "erc721s",
          "type": "tuple[]"
        },
        {
          "components": [
            {
              "internalType": "contract IERC1155",
              "name": "token",
              "type": "address"
            },
            {
              "internalType": "uint256[]",
              "name": "ids",
              "type": "uint256[]"
            },
            {
              "internalType": "uint256[]",
              "name": "amounts",
              "type": "uint256[]"
            },
            {
              "internalType": "bytes",
              "name": "data",
              "type": "bytes"
            }
          ],
          "internalType": "struct LootBox.WithdrawERC1155[]",
          "name": "erc1155s",
          "type": "tuple[]"
        }
      ],
      "name": "plunder",
      "outputs": [],
      "stateMutability": "nonpayable",
      "type": "function"
    }
  ],
  "address": "0x67581cC48320d7Ab4EbA57e26D05d665a0Ff31DB",
  "args": [],
  "solcInputHash": "0x9935d76dcae70f9ee241a02af1b14051409570f63b0d6f5c14f97e4eb1a03b3e",
  "bytecode": "0x60806040523480156200001157600080fd5b506040516200002090620001d0565b604051809103906000f0801580156200003d573d6000803e3d6000fd5b506000806101000a81548173ffffffffffffffffffffffffffffffffffffffff021916908373ffffffffffffffffffffffffffffffffffffffff16021790555060008054906101000a900473ffffffffffffffffffffffffffffffffffffffff1673ffffffffffffffffffffffffffffffffffffffff16638129fc1c6040518163ffffffff1660e01b8152600401600060405180830381600087803b158015620000e657600080fd5b505af1158015620000fb573d6000803e3d6000fd5b505050506200013560008054906101000a900473ffffffffffffffffffffffffffffffffffffffff166200015360201b620005991760201c565b600190805190602001906200014c929190620001de565b5062000284565b606060008260601b905060376040519250601f19601f60208301011683016040528083527f3d602d80600a3d3981f3363d3d373d3d3d363d7300000000000000000000000060208401528160348401527f5af43d82803e903d91602b57fd5bf3000000000000000000000000000000000060488401525050919050565b611a928062001ec383390190565b828054600181600116156101000203166002900490600052602060002090601f016020900481019282601f106200022157805160ff191683800117855562000252565b8280016001018555821562000252579182015b828111156200025157825182559160200191906001019062000234565b5b50905062000261919062000265565b5090565b5b808211156200028057600081600090555060010162000266565b5090565b611c2f80620002946000396000f3fe608060405234801561001057600080fd5b506004361061004c5760003560e01c80632695dc461461005157806336b5aa2d1461006f57806370f7d4ba1461009f578063b41aee87146100bb575b600080fd5b6100596100eb565b604051610066919061159f565b60405180910390f35b61008960048036038101906100849190610b68565b61010f565b60405161009691906114c3565b60405180910390f35b6100b960048036038101906100b49190610ba4565b610142565b005b6100d560048036038101906100d09190610c70565b610325565b6040516100e291906114f9565b60405180910390f35b60008054906101000a900473ffffffffffffffffffffffffffffffffffffffff1681565b600061013a61011e8484610616565b600160405161012d91906114ac565b6040518091039020610649565b905092915050565b60008873ffffffffffffffffffffffffffffffffffffffff16636352211e896040518263ffffffff1660e01b815260040161017d919061163a565b60206040518083038186803b15801561019557600080fd5b505afa1580156101a9573d6000803e3d6000fd5b505050506040513d601f19601f820116820180604052508101906101cd9190610b3f565b905060006101db8a8a61065e565b90508073ffffffffffffffffffffffffffffffffffffffff16637cc0f211898989898989896040518863ffffffff1660e01b8152600401610222979695949392919061151b565b600060405180830381600087803b15801561023c57600080fd5b505af1158015610250573d6000803e3d6000fd5b505050508073ffffffffffffffffffffffffffffffffffffffff1662f55d9d836040518263ffffffff1660e01b815260040161028c91906114de565b600060405180830381600087803b1580156102a657600080fd5b505af11580156102ba573d6000803e3d6000fd5b505050503373ffffffffffffffffffffffffffffffffffffffff16898b73ffffffffffffffffffffffffffffffffffffffff167f9153d96b9ed0d8d5598ddeb8ac09f612abdf5f8655b09848e7ee98d7af70347660405160405180910390a450505050505050505050565b606060008573ffffffffffffffffffffffffffffffffffffffff16636352211e866040518263ffffffff1660e01b8152600401610362919061163a565b60206040518083038186803b15801561037a57600080fd5b505afa15801561038e573d6000803e3d6000fd5b505050506040513d601f19601f820116820180604052508101906103b29190610b3f565b90508073ffffffffffffffffffffffffffffffffffffffff163373ffffffffffffffffffffffffffffffffffffffff1614610422576040517f08c379a0000000000000000000000000000000000000000000000000000000008152600401610419906115da565b60405180910390fd5b600061042e878761065e565b905060608173ffffffffffffffffffffffffffffffffffffffff16631726fa8187876040518363ffffffff1660e01b815260040161046d92919061157b565b600060405180830381600087803b15801561048757600080fd5b505af115801561049b573d6000803e3d6000fd5b505050506040513d6000823e3d601f19601f820116820180604052508101906104c49190610cdc565b90508173ffffffffffffffffffffffffffffffffffffffff1662f55d9d846040518263ffffffff1660e01b81526004016104fe91906114de565b600060405180830381600087803b15801561051857600080fd5b505af115801561052c573d6000803e3d6000fd5b505050503373ffffffffffffffffffffffffffffffffffffffff16878973ffffffffffffffffffffffffffffffffffffffff167f52ba16c8b985eff690a9de92094bd7486f89340e06e385ffb26de9c6eea384dc60405160405180910390a4809350505050949350505050565b606060008260601b905060376040519250601f19601f60208301011683016040528083527f3d602d80600a3d3981f3363d3d373d3d3d363d7300000000000000000000000060208401528160348401527f5af43d82803e903d91602b57fd5bf3000000000000000000000000000000000060488401525050919050565b6000828260405160200161062b929190611432565b60405160208183030381529060405280519060200120905092915050565b600061065683833061077c565b905092915050565b60008061071060006106708686610616565b60018054600181600116156101000203166002900480601f0160208091040260200160405190810160405280929190818152602001828054600181600116156101000203166002900480156107065780601f106106db57610100808354040283529160200191610706565b820191906000526020600020905b8154815290600101906020018083116106e957829003601f168201915b50505050506107c0565b90508073ffffffffffffffffffffffffffffffffffffffff16638129fc1c6040518163ffffffff1660e01b8152600401600060405180830381600087803b15801561075a57600080fd5b505af115801561076e573d6000803e3d6000fd5b505050508091505092915050565b60008060ff60f81b83868660405160200161079a949392919061145e565b6040516020818303038152906040528051906020012090508060001c9150509392505050565b60008084471015610806576040517f08c379a00000000000000000000000000000000000000000000000000000000081526004016107fd9061161a565b60405180910390fd5b60008351141561084b576040517f08c379a0000000000000000000000000000000000000000000000000000000008152600401610842906115ba565b60405180910390fd5b8383516020850187f59050600073ffffffffffffffffffffffffffffffffffffffff168173ffffffffffffffffffffffffffffffffffffffff1614156108c6576040517f08c379a00000000000000000000000000000000000000000000000000000000081526004016108bd906115fa565b60405180910390fd5b809150509392505050565b6000813590506108e081611b86565b92915050565b6000815190506108f581611b86565b92915050565b600082601f83011261090c57600080fd5b815161091f61091a82611682565b611655565b9150818183526020840193506020810190508360005b83811015610965578151860161094b8882610a97565b845260208401935060208301925050600181019050610935565b5050505092915050565b60008083601f84011261098157600080fd5b8235905067ffffffffffffffff81111561099a57600080fd5b6020830191508360208202830111156109b257600080fd5b9250929050565b60008083601f8401126109cb57600080fd5b8235905067ffffffffffffffff8111156109e457600080fd5b6020830191508360208202830111156109fc57600080fd5b9250929050565b60008083601f840112610a1557600080fd5b8235905067ffffffffffffffff811115610a2e57600080fd5b602083019150836020820283011115610a4657600080fd5b9250929050565b60008083601f840112610a5f57600080fd5b8235905067ffffffffffffffff811115610a7857600080fd5b602083019150836020820283011115610a9057600080fd5b9250929050565b600082601f830112610aa857600080fd5b8151610abb610ab6826116aa565b611655565b91508082526020830160208301858383011115610ad757600080fd5b610ae2838284611af3565b50505092915050565b600081359050610afa81611b9d565b92915050565b600081359050610b0f81611bb4565b92915050565b600081359050610b2481611bcb565b92915050565b600081359050610b3981611be2565b92915050565b600060208284031215610b5157600080fd5b6000610b5f848285016108e6565b91505092915050565b60008060408385031215610b7b57600080fd5b6000610b89858286016108d1565b9250506020610b9a85828601610b2a565b9150509250929050565b60008060008060008060008060a0898b031215610bc057600080fd5b6000610bce8b828c016108d1565b9850506020610bdf8b828c01610b2a565b975050604089013567ffffffffffffffff811115610bfc57600080fd5b610c088b828c0161096f565b9650965050606089013567ffffffffffffffff811115610c2757600080fd5b610c338b828c01610a4d565b9450945050608089013567ffffffffffffffff811115610c5257600080fd5b610c5e8b828c01610a03565b92509250509295985092959890939650565b60008060008060608587031215610c8657600080fd5b6000610c94878288016108d1565b9450506020610ca587828801610b2a565b935050604085013567ffffffffffffffff811115610cc257600080fd5b610cce878288016109b9565b925092505092959194509250565b600060208284031215610cee57600080fd5b600082015167ffffffffffffffff811115610d0857600080fd5b610d14848285016108fb565b91505092915050565b6000610d2983836110aa565b905092915050565b6000610d3d8383611180565b60208301905092915050565b6000610d5583836112ad565b905092915050565b6000610d698383611317565b905092915050565b6000610d7d83836113ae565b905092915050565b610d8e816119ac565b82525050565b610d9d8161199a565b82525050565b610dac8161199a565b82525050565b610dc3610dbe8261199a565b611b26565b82525050565b6000610dd482611723565b610dde818561178b565b935083602082028501610df0856116d6565b8060005b85811015610e2c5784840389528151610e0d8582610d1d565b9450610e1883611739565b925060208a01995050600181019050610df4565b50829750879550505050505092915050565b6000610e4a838561177a565b9350610e55826116e6565b8060005b85811015610e8e57610e6b82846118e9565b610e758882610d31565b9750610e8083611746565b925050600181019050610e59565b5085925050509392505050565b6000610ea7838561179c565b935083602084028501610eb9846116f0565b8060005b87811015610efd578484038952610ed48284611917565b610ede8582610d49565b9450610ee983611753565b925060208a01995050600181019050610ebd565b50829750879450505050509392505050565b6000610f1b83856117ad565b935083602084028501610f2d846116fa565b8060005b87811015610f71578484038952610f48828461193b565b610f528582610d5d565b9450610f5d83611760565b925060208a01995050600181019050610f31565b50829750879450505050509392505050565b6000610f8f83856117be565b935083602084028501610fa184611704565b8060005b87811015610fe5578484038952610fbc828461195f565b610fc68582610d71565b9450610fd18361176d565b925060208a01995050600181019050610fa5565b50829750879450505050509392505050565b600061100383856117cf565b93507f07ffffffffffffffffffffffffffffffffffffffffffffffffffffffffffffff83111561103257600080fd5b602083029250611043838584611ae4565b82840190509392505050565b61106061105b826119be565b611b38565b82525050565b611077611072826119ea565b611b42565b82525050565b600061108983856117e0565b9350611096838584611ae4565b61109f83611b68565b840190509392505050565b60006110b58261172e565b6110bf81856117e0565b93506110cf818560208601611af3565b6110d881611b68565b840191505092915050565b600081546001811660008114611100576001811461112557611169565b607f600283041661111181876117f1565b955060ff1983168652808601935050611169565b6002820461113381876117f1565b955061113e8561170e565b60005b8281101561116057815481890152600182019150602081019050611141565b82880195505050505b505092915050565b61117a81611a54565b82525050565b61118981611a78565b82525050565b61119881611a9c565b82525050565b6111a781611ac0565b82525050565b60006111ba6020836117fc565b91507f437265617465323a2062797465636f6465206c656e677468206973207a65726f6000830152602082019050919050565b60006111fa601c836117fc565b91507f4c6f6f74426f78436f6e74726f6c6c65722f6f6e6c792d6f776e6572000000006000830152602082019050919050565b600061123a6019836117fc565b91507f437265617465323a204661696c6564206f6e206465706c6f79000000000000006000830152602082019050919050565b600061127a601d836117fc565b91507f437265617465323a20696e73756666696369656e742062616c616e63650000006000830152602082019050919050565b6000606083016112c0600084018461180d565b6112cd6000860182610d94565b506112db6020840184611983565b6112e860208601826113fd565b506112f6604084018461187b565b858303604087015261130983828461107d565b925050508091505092915050565b60006080830161132a60008401846118d2565b6113376000860182611171565b506113456020840184611824565b8583036020870152611358838284610ff7565b925050506113696040840184611824565b858303604087015261137c838284610ff7565b9250505061138d606084018461187b565b85830360608701526113a083828461107d565b925050508091505092915050565b6000604083016113c16000840184611900565b6113ce600086018261118f565b506113dc6020840184611824565b85830360208701526113ef838284610ff7565b925050508091505092915050565b61140681611a4a565b82525050565b61141581611a4a565b82525050565b61142c61142782611a4a565b611b5e565b82525050565b600061143e8285610db2565b60148201915061144e828461141b565b6020820191508190509392505050565b600061146a828761104f565b60018201915061147a8286610db2565b60148201915061148a8285611066565b60208201915061149a8284611066565b60208201915081905095945050505050565b60006114b882846110e3565b915081905092915050565b60006020820190506114d86000830184610da3565b92915050565b60006020820190506114f36000830184610d85565b92915050565b600060208201905081810360008301526115138184610dc9565b905092915050565b6000608082019050818103600083015261153681898b610e3e565b9050818103602083015261154b818789610f83565b90508181036040830152611560818587610f0f565b905061156f6060830184610d85565b98975050505050505050565b60006020820190508181036000830152611596818486610e9b565b90509392505050565b60006020820190506115b4600083018461119e565b92915050565b600060208201905081810360008301526115d3816111ad565b9050919050565b600060208201905081810360008301526115f3816111ed565b9050919050565b600060208201905081810360008301526116138161122d565b9050919050565b600060208201905081810360008301526116338161126d565b9050919050565b600060208201905061164f600083018461140c565b92915050565b6000604051905081810181811067ffffffffffffffff8211171561167857600080fd5b8060405250919050565b600067ffffffffffffffff82111561169957600080fd5b602082029050602081019050919050565b600067ffffffffffffffff8211156116c157600080fd5b601f19601f8301169050602081019050919050565b6000819050602082019050919050565b6000819050919050565b6000819050919050565b6000819050919050565b6000819050919050565b60008190508160005260206000209050919050565b600081519050919050565b600081519050919050565b6000602082019050919050565b6000602082019050919050565b6000602082019050919050565b6000602082019050919050565b6000602082019050919050565b600082825260208201905092915050565b600082825260208201905092915050565b600082825260208201905092915050565b600082825260208201905092915050565b600082825260208201905092915050565b600082825260208201905092915050565b600082825260208201905092915050565b600081905092915050565b600082825260208201905092915050565b600061181c60208401846108d1565b905092915050565b6000808335600160200384360303811261183d57600080fd5b83810192508235915060208301925067ffffffffffffffff82111561186157600080fd5b60208202360384131561187357600080fd5b509250929050565b6000808335600160200384360303811261189457600080fd5b83810192508235915060208301925067ffffffffffffffff8211156118b857600080fd5b6001820236038413156118ca57600080fd5b509250929050565b60006118e16020840184610aeb565b905092915050565b60006118f86020840184610b00565b905092915050565b600061190f6020840184610b15565b905092915050565b60008235600160600383360303811261192f57600080fd5b82810191505092915050565b60008235600160800383360303811261195357600080fd5b82810191505092915050565b60008235600160400383360303811261197757600080fd5b82810191505092915050565b60006119926020840184610b2a565b905092915050565b60006119a582611a2a565b9050919050565b60006119b782611a2a565b9050919050565b60007fff0000000000000000000000000000000000000000000000000000000000000082169050919050565b6000819050919050565b60006119ff8261199a565b9050919050565b6000611a118261199a565b9050919050565b6000611a238261199a565b9050919050565b600073ffffffffffffffffffffffffffffffffffffffff82169050919050565b6000819050919050565b6000611a5f82611a66565b9050919050565b6000611a7182611a2a565b9050919050565b6000611a8382611a8a565b9050919050565b6000611a9582611a2a565b9050919050565b6000611aa782611aae565b9050919050565b6000611ab982611a2a565b9050919050565b6000611acb82611ad2565b9050919050565b6000611add82611a2a565b9050919050565b82818337600083830152505050565b60005b83811015611b11578082015181840152602081019050611af6565b83811115611b20576000848401525b50505050565b6000611b3182611b4c565b9050919050565b6000819050919050565b6000819050919050565b6000611b5782611b79565b9050919050565b6000819050919050565b6000601f19601f8301169050919050565b60008160601b9050919050565b611b8f8161199a565b8114611b9a57600080fd5b50565b611ba6816119f4565b8114611bb157600080fd5b50565b611bbd81611a06565b8114611bc857600080fd5b50565b611bd481611a18565b8114611bdf57600080fd5b50565b611beb81611a4a565b8114611bf657600080fd5b5056fea26469706673582212203393989481433cc4b09c919457aa980b7adc3420f8d095b0721fcbf5a401adc364736f6c634300060c0033608060405234801561001057600080fd5b50611a72806100206000396000f3fe608060405234801561001057600080fd5b506004361061004b5760003560e01c8062f55d9d146100505780631726fa811461006c5780637cc0f2111461009c5780638129fc1c146100b8575b600080fd5b61006a60048036038101906100659190611024565b6100c2565b005b610086600480360381019061008191906110f8565b61018d565b6040516100939190611551565b60405180910390f35b6100b660048036038101906100b1919061104d565b610377565b005b6100c06104a3565b005b60008054906101000a900473ffffffffffffffffffffffffffffffffffffffff1673ffffffffffffffffffffffffffffffffffffffff163373ffffffffffffffffffffffffffffffffffffffff1614610150576040517f08c379a000000000000000000000000000000000000000000000000000000000815260040161014790611643565b60405180910390fd5b6000806101000a81549073ffffffffffffffffffffffffffffffffffffffff02191690558073ffffffffffffffffffffffffffffffffffffffff16ff5b606060008054906101000a900473ffffffffffffffffffffffffffffffffffffffff1673ffffffffffffffffffffffffffffffffffffffff163373ffffffffffffffffffffffffffffffffffffffff161461021d576040517f08c379a000000000000000000000000000000000000000000000000000000000815260040161021490611643565b60405180910390fd5b60608383905067ffffffffffffffff8111801561023957600080fd5b5060405190808252806020026020018201604052801561026d57816020015b60608152602001906001900390816102585790505b50905060005b8484905081101561036c5761034885858381811061028d57fe5b905060200281019061029f91906116d5565b60000160208101906102b19190610ffb565b8686848181106102bd57fe5b90506020028101906102cf91906116d5565b602001358787858181106102df57fe5b90506020028101906102f191906116d5565b8060400190610300919061167e565b8080601f016020809104026020016040519081016040528093929190818152602001838380828437600081840152601f19601f82011690508083019250505050505050610574565b82828151811061035457fe5b60200260200101819052508080600101915050610273565b508091505092915050565b60008054906101000a900473ffffffffffffffffffffffffffffffffffffffff1673ffffffffffffffffffffffffffffffffffffffff163373ffffffffffffffffffffffffffffffffffffffff1614610405576040517f08c379a00000000000000000000000000000000000000000000000000000000081526004016103fc90611643565b60405180910390fd5b600073ffffffffffffffffffffffffffffffffffffffff168173ffffffffffffffffffffffffffffffffffffffff161415610475576040517f08c379a000000000000000000000000000000000000000000000000000000000815260040161046c90611623565b60405180910390fd5b61047f8482610637565b61048983826107f8565b6104938282610973565b61049d8147610b0e565b50505050565b600073ffffffffffffffffffffffffffffffffffffffff1660008054906101000a900473ffffffffffffffffffffffffffffffffffffffff1673ffffffffffffffffffffffffffffffffffffffff1614610532576040517f08c379a000000000000000000000000000000000000000000000000000000000815260040161052990611603565b60405180910390fd5b336000806101000a81548173ffffffffffffffffffffffffffffffffffffffff021916908373ffffffffffffffffffffffffffffffffffffffff160217905550565b6060600060608573ffffffffffffffffffffffffffffffffffffffff1685856040516105a09190611457565b60006040518083038185875af1925050503d80600081146105dd576040519150601f19603f3d011682016040523d82523d6000602084013e6105e2565b606091505b509150915081819061062a576040517f08c379a000000000000000000000000000000000000000000000000000000000815260040161062191906115e1565b60405180910390fd5b5080925050509392505050565b60005b82518110156107f357600083828151811061065157fe5b602002602001015173ffffffffffffffffffffffffffffffffffffffff166370a08231306040518263ffffffff1660e01b8152600401610691919061146e565b60206040518083038186803b1580156106a957600080fd5b505afa1580156106bd573d6000803e3d6000fd5b505050506040513d601f19601f820116820180604052508101906106e19190611166565b90508382815181106106ef57fe5b602002602001015173ffffffffffffffffffffffffffffffffffffffff1663a9059cbb84836040518363ffffffff1660e01b8152600401610731929190611528565b602060405180830381600087803b15801561074b57600080fd5b505af115801561075f573d6000803e3d6000fd5b505050506040513d601f19601f82011682018060405250810190610783919061113d565b5083828151811061079057fe5b602002602001015173ffffffffffffffffffffffffffffffffffffffff167f93295a03b599aa244f344512a042ed4a3cd191df56cc1454674b0bd859377749826040516107dd9190611663565b60405180910390a250808060010191505061063a565b505050565b60005b825181101561096e5760005b83828151811061081357fe5b602002602001015160200151518110156108e45783828151811061083357fe5b60200260200101516000015173ffffffffffffffffffffffffffffffffffffffff166323b872dd308587868151811061086857fe5b602002602001015160200151858151811061087f57fe5b60200260200101516040518463ffffffff1660e01b81526004016108a5939291906114f1565b600060405180830381600087803b1580156108bf57600080fd5b505af11580156108d3573d6000803e3d6000fd5b505050508080600101915050610807565b508281815181106108f157fe5b60200260200101516000015173ffffffffffffffffffffffffffffffffffffffff167f7c0114b67370be67d9c25c0fae9f991d289ce990616efebe475d8447764b364984838151811061094057fe5b6020026020010151602001516040516109599190611573565b60405180910390a280806001019150506107fb565b505050565b60005b8251811015610b095782818151811061098b57fe5b60200260200101516000015173ffffffffffffffffffffffffffffffffffffffff16632eb2c2d630848685815181106109c057fe5b6020026020010151602001518786815181106109d857fe5b6020026020010151604001518887815181106109f057fe5b6020026020010151606001516040518663ffffffff1660e01b8152600401610a1c959493929190611489565b600060405180830381600087803b158015610a3657600080fd5b505af1158015610a4a573d6000803e3d6000fd5b50505050828181518110610a5a57fe5b60200260200101516000015173ffffffffffffffffffffffffffffffffffffffff167f25eda4a32b6b54b71997d605d08b9a0b5b8195e846780404a97089d22cdc896c848381518110610aa957fe5b602002602001015160200151858481518110610ac157fe5b602002602001015160400151868581518110610ad957fe5b602002602001015160600151604051610af493929190611595565b60405180910390a28080600101915050610976565b505050565b8173ffffffffffffffffffffffffffffffffffffffff166108fc829081150290604051600060405180830381858888f19350505050158015610b54573d6000803e3d6000fd5b508173ffffffffffffffffffffffffffffffffffffffff167ff35d7b6a86398c5aabcd316353d6f069dbc1be6fa0ab49d809bfbf6d96f5557582604051610b9b9190611663565b60405180910390a25050565b600081359050610bb68161199b565b92915050565b600081359050610bcb816119b2565b92915050565b600082601f830112610be257600080fd5b8135610bf5610bf082611726565b6116f9565b91508181835260208401935060208101905083856020840282011115610c1a57600080fd5b60005b83811015610c4a5781610c308882610e87565b845260208401935060208301925050600181019050610c1d565b5050505092915050565b60008083601f840112610c6657600080fd5b8235905067ffffffffffffffff811115610c7f57600080fd5b602083019150836020820283011115610c9757600080fd5b9250929050565b600082601f830112610caf57600080fd5b8135610cc2610cbd8261174e565b6116f9565b9150818183526020840193506020810190508360005b83811015610d085781358601610cee8882610eb1565b845260208401935060208301925050600181019050610cd8565b5050505092915050565b600082601f830112610d2357600080fd5b8135610d36610d3182611776565b6116f9565b9150818183526020840193506020810190508360005b83811015610d7c5781358601610d628882610f6d565b845260208401935060208301925050600181019050610d4c565b5050505092915050565b600082601f830112610d9757600080fd5b8135610daa610da58261179e565b6116f9565b91508181835260208401935060208101905083856020840282011115610dcf57600080fd5b60005b83811015610dff5781610de58882610fd1565b845260208401935060208301925050600181019050610dd2565b5050505092915050565b600081519050610e18816119c9565b92915050565b600082601f830112610e2f57600080fd5b8135610e42610e3d826117c6565b6116f9565b91508082526020830160208301858383011115610e5e57600080fd5b610e69838284611948565b50505092915050565b600081359050610e81816119e0565b92915050565b600081359050610e96816119f7565b92915050565b600081359050610eab81611a0e565b92915050565b600060808284031215610ec357600080fd5b610ecd60806116f9565b90506000610edd84828501610e72565b600083015250602082013567ffffffffffffffff811115610efd57600080fd5b610f0984828501610d86565b602083015250604082013567ffffffffffffffff811115610f2957600080fd5b610f3584828501610d86565b604083015250606082013567ffffffffffffffff811115610f5557600080fd5b610f6184828501610e1e565b60608301525092915050565b600060408284031215610f7f57600080fd5b610f8960406116f9565b90506000610f9984828501610e9c565b600083015250602082013567ffffffffffffffff811115610fb957600080fd5b610fc584828501610d86565b60208301525092915050565b600081359050610fe081611a25565b92915050565b600081519050610ff581611a25565b92915050565b60006020828403121561100d57600080fd5b600061101b84828501610ba7565b91505092915050565b60006020828403121561103657600080fd5b600061104484828501610bbc565b91505092915050565b6000806000806080858703121561106357600080fd5b600085013567ffffffffffffffff81111561107d57600080fd5b61108987828801610bd1565b945050602085013567ffffffffffffffff8111156110a657600080fd5b6110b287828801610d12565b935050604085013567ffffffffffffffff8111156110cf57600080fd5b6110db87828801610c9e565b92505060606110ec87828801610bbc565b91505092959194509250565b6000806020838503121561110b57600080fd5b600083013567ffffffffffffffff81111561112557600080fd5b61113185828601610c54565b92509250509250929050565b60006020828403121561114f57600080fd5b600061115d84828501610e09565b91505092915050565b60006020828403121561117857600080fd5b600061118684828501610fe6565b91505092915050565b600061119b838361129d565b905092915050565b60006111af8383611439565b60208301905092915050565b6111c4816118b8565b82525050565b60006111d582611812565b6111df8185611858565b9350836020820285016111f1856117f2565b8060005b8581101561122d578484038952815161120e858261118f565b94506112198361183e565b925060208a019950506001810190506111f5565b50829750879550505050505092915050565b600061124a8261181d565b6112548185611869565b935061125f83611802565b8060005b8381101561129057815161127788826111a3565b97506112828361184b565b925050600181019050611263565b5085935050505092915050565b60006112a882611828565b6112b2818561187a565b93506112c2818560208601611957565b6112cb8161198a565b840191505092915050565b60006112e182611828565b6112eb818561188b565b93506112fb818560208601611957565b6113048161198a565b840191505092915050565b600061131a82611828565b611324818561189c565b9350611334818560208601611957565b80840191505092915050565b600061134b82611833565b61135581856118a7565b9350611365818560208601611957565b61136e8161198a565b840191505092915050565b60006113866014836118a7565b91507f4c6f6f74426f782f616c72656164792d696e69740000000000000000000000006000830152602082019050919050565b60006113c66013836118a7565b91507f4c6f6f74426f782f6e6f6e2d7a65726f2d746f000000000000000000000000006000830152602082019050919050565b60006114066012836118a7565b91507f4c6f6f74426f782f6f6e6c792d6f776e657200000000000000000000000000006000830152602082019050919050565b6114428161193e565b82525050565b6114518161193e565b82525050565b6000611463828461130f565b915081905092915050565b600060208201905061148360008301846111bb565b92915050565b600060a08201905061149e60008301886111bb565b6114ab60208301876111bb565b81810360408301526114bd818661123f565b905081810360608301526114d1818561123f565b905081810360808301526114e581846112d6565b90509695505050505050565b600060608201905061150660008301866111bb565b61151360208301856111bb565b6115206040830184611448565b949350505050565b600060408201905061153d60008301856111bb565b61154a6020830184611448565b9392505050565b6000602082019050818103600083015261156b81846111ca565b905092915050565b6000602082019050818103600083015261158d818461123f565b905092915050565b600060608201905081810360008301526115af818661123f565b905081810360208301526115c3818561123f565b905081810360408301526115d781846112d6565b9050949350505050565b600060208201905081810360008301526115fb8184611340565b905092915050565b6000602082019050818103600083015261161c81611379565b9050919050565b6000602082019050818103600083015261163c816113b9565b9050919050565b6000602082019050818103600083015261165c816113f9565b9050919050565b60006020820190506116786000830184611448565b92915050565b6000808335600160200384360303811261169757600080fd5b80840192508235915067ffffffffffffffff8211156116b557600080fd5b6020830192506001820236038313156116cd57600080fd5b509250929050565b6000823560016060038336030381126116ed57600080fd5b80830191505092915050565b6000604051905081810181811067ffffffffffffffff8211171561171c57600080fd5b8060405250919050565b600067ffffffffffffffff82111561173d57600080fd5b602082029050602081019050919050565b600067ffffffffffffffff82111561176557600080fd5b602082029050602081019050919050565b600067ffffffffffffffff82111561178d57600080fd5b602082029050602081019050919050565b600067ffffffffffffffff8211156117b557600080fd5b602082029050602081019050919050565b600067ffffffffffffffff8211156117dd57600080fd5b601f19601f8301169050602081019050919050565b6000819050602082019050919050565b6000819050602082019050919050565b600081519050919050565b600081519050919050565b600081519050919050565b600081519050919050565b6000602082019050919050565b6000602082019050919050565b600082825260208201905092915050565b600082825260208201905092915050565b600082825260208201905092915050565b600082825260208201905092915050565b600081905092915050565b600082825260208201905092915050565b60006118c38261191e565b9050919050565b60006118d58261191e565b9050919050565b60008115159050919050565b60006118f3826118b8565b9050919050565b6000611905826118b8565b9050919050565b6000611917826118b8565b9050919050565b600073ffffffffffffffffffffffffffffffffffffffff82169050919050565b6000819050919050565b82818337600083830152505050565b60005b8381101561197557808201518184015260208101905061195a565b83811115611984576000848401525b50505050565b6000601f19601f8301169050919050565b6119a4816118b8565b81146119af57600080fd5b50565b6119bb816118ca565b81146119c657600080fd5b50565b6119d2816118dc565b81146119dd57600080fd5b50565b6119e9816118e8565b81146119f457600080fd5b50565b611a00816118fa565b8114611a0b57600080fd5b50565b611a178161190c565b8114611a2257600080fd5b50565b611a2e8161193e565b8114611a3957600080fd5b5056fea2646970667358221220b704a7282d48ac416af62ebfcfe1f16315c2b725a99359d76f9255006e6365de64736f6c634300060c0033",
  "devdoc": {
    "author": "Brendan Asselstine",
    "kind": "dev",
    "methods": {
      "computeAddress(address,uint256)": {
        "details": "The contract will not exist yet, so the Loot Box address will have no code.",
        "params": {
          "erc721": "The address of the ERC721",
          "tokenId": "The ERC721 token id"
        },
        "returns": {
          "_0": "The address of the Loot Box."
        }
      },
      "constructor": {
        "details": "Creates a new LootBox instance and an associated minimal proxy."
      },
      "executeCalls(address,uint256,(address,uint256,bytes)[])": {
        "details": "The Loot Box will be counterfactually created, calls executed, then the contract destroyed.",
        "params": {
          "calls": "The array of call structs that define that target, amount of ether, and data.",
          "erc721": "The ERC721 address",
          "tokenId": "The ERC721 token id"
        },
        "returns": {
          "_0": "The array of call return values."
        }
      },
      "plunder(address,uint256,address[],(address,uint256[])[],(address,uint256[],uint256[],bytes)[])": {
        "details": "A Loot Box contract will be counterfactually created, tokens transferred to the ERC721 owner, then destroyed.",
        "params": {
          "erc1155s": "An array of struct defining ERC1155 tokens that should be transferred",
          "erc20s": "An array of ERC20 tokens whose entire balance should be transferred",
          "erc721": "The address of the ERC721",
          "erc721s": "An array of structs defining ERC721 tokens that should be transferred",
          "tokenId": "The ERC721 token id"
        }
      }
    },
    "title": "Allows users to plunder an address associated with an ERC721",
    "version": 1
  },
  "userdoc": {
    "events": {
      "Executed(address,uint256,address)": {
        "notice": "Emitted when a Loot Box is executed"
      },
      "Plundered(address,uint256,address)": {
        "notice": "Emitted when a Loot Box is plundered"
      }
    },
    "kind": "user",
    "methods": {
      "computeAddress(address,uint256)": {
        "notice": "Computes the Loot Box address for a given ERC721 token."
      },
      "constructor": "Constructs a new controller.",
      "executeCalls(address,uint256,(address,uint256,bytes)[])": {
        "notice": "Allows the owner of an ERC721 to execute abitrary calls on behalf of the associated Loot Box."
      },
      "lootBoxInstance()": {
        "notice": "The instance to which all proxies will point"
      },
      "plunder(address,uint256,address[],(address,uint256[])[],(address,uint256[],uint256[],bytes)[])": {
        "notice": "Allows anyone to transfer all given tokens in a Loot Box to the associated ERC721 owner."
      }
    },
    "notice": "Counterfactually instantiates a \"Loot Box\" at an address unique to an ERC721 token.  The address for an ERC721 token can be computed and later plundered by transferring token balances to the ERC721 owner.",
    "version": 1
  },
  "storageLayout": {
    "storage": [
      {
        "astId": 16739,
        "contract": "contracts/LootBoxController.sol:LootBoxController",
        "label": "lootBoxInstance",
        "offset": 0,
        "slot": "0",
        "type": "t_contract(LootBox)16729"
      },
      {
        "astId": 16741,
        "contract": "contracts/LootBoxController.sol:LootBoxController",
        "label": "lootBoxBytecode",
        "offset": 0,
        "slot": "1",
        "type": "t_bytes_storage"
      }
    ],
    "types": {
      "t_bytes_storage": {
        "encoding": "bytes",
        "label": "bytes",
        "numberOfBytes": "32"
      },
      "t_contract(LootBox)16729": {
        "encoding": "inplace",
        "label": "contract LootBox",
        "numberOfBytes": "20"
      }
    }
  },
  "gasEstimates": {
    "creation": {
      "codeDepositCost": "1443000",
      "executionCost": "infinite",
      "totalCost": "infinite"
    },
    "external": {
      "computeAddress(address,uint256)": "infinite",
      "executeCalls(address,uint256,(address,uint256,bytes)[])": "infinite",
      "lootBoxInstance()": "1232",
      "plunder(address,uint256,address[],(address,uint256[])[],(address,uint256[],uint256[],bytes)[])": "infinite"
    },
    "internal": {
      "_createLootBox(address,uint256)": "infinite",
      "_salt(address,uint256)": "infinite"
    }
  }
}