{
  "abi": [
    {
      "anonymous": false,
      "inputs": [
        {
          "indexed": true,
          "internalType": "address",
          "name": "token",
          "type": "address"
        }
      ],
      "name": "ERC721ControlledCreated",
      "type": "event"
    },
    {
      "inputs": [
        {
          "internalType": "string",
          "name": "name",
          "type": "string"
        },
        {
          "internalType": "string",
          "name": "symbol",
          "type": "string"
        },
        {
          "internalType": "string",
          "name": "baseURI",
          "type": "string"
        }
      ],
      "name": "createERC721Controlled",
      "outputs": [
        {
          "internalType": "contract ERC721Controlled",
          "name": "",
          "type": "address"
        }
      ],
      "stateMutability": "nonpayable",
      "type": "function"
    }
  ],
  "address": "0x4E869b3A0978fA61DAbd7Da8F9B272AADc745Fb3",
  "args": [],
  "solcInputHash": "0x26d11f31d042bea37634ef861cef78581f0050a16bb964acfb51cd61ac757ea2",
  "bytecode": "0x608060405234801561001057600080fd5b50614184806100206000396000f3fe608060405234801561001057600080fd5b506004361061002b5760003560e01c80630154b81714610030575b600080fd5b6102176004803603606081101561004657600080fd5b810190808035906020019064010000000081111561006357600080fd5b82018360208201111561007557600080fd5b8035906020019184600183028401116401000000008311171561009757600080fd5b91908080601f016020809104026020016040519081016040528093929190818152602001838380828437600081840152601f19601f820116905080830192505050505050509192919290803590602001906401000000008111156100fa57600080fd5b82018360208201111561010c57600080fd5b8035906020019184600183028401116401000000008311171561012e57600080fd5b91908080601f016020809104026020016040519081016040528093929190818152602001838380828437600081840152601f19601f8201169050808301925050505050505091929192908035906020019064010000000081111561019157600080fd5b8201836020820111156101a357600080fd5b803590602001918460018302840111640100000000831117156101c557600080fd5b91908080601f016020809104026020016040519081016040528093929190818152602001838380828437600081840152601f19601f820116905080830192505050505050509192919290505050610243565b604051808273ffffffffffffffffffffffffffffffffffffffff16815260200191505060405180910390f35b60008060405161025290610487565b604051809103906000f08015801561026e573d6000803e3d6000fd5b5090508073ffffffffffffffffffffffffffffffffffffffff16635c6d8da1868686336040518563ffffffff1660e01b8152600401808060200180602001806020018573ffffffffffffffffffffffffffffffffffffffff168152602001848103845288818151815260200191508051906020019080838360005b838110156103045780820151818401526020810190506102e9565b50505050905090810190601f1680156103315780820380516001836020036101000a031916815260200191505b50848103835287818151815260200191508051906020019080838360005b8381101561036a57808201518184015260208101905061034f565b50505050905090810190601f1680156103975780820380516001836020036101000a031916815260200191505b50848103825286818151815260200191508051906020019080838360005b838110156103d05780820151818401526020810190506103b5565b50505050905090810190601f1680156103fd5780820380516001836020036101000a031916815260200191505b50975050505050505050600060405180830381600087803b15801561042157600080fd5b505af1158015610435573d6000803e3d6000fd5b505050508073ffffffffffffffffffffffffffffffffffffffff167fc23b9b260b803fee172e6b5e46501ed00704743403d3c1fb40f37020f51e66bf60405160405180910390a2809150509392505050565b613cba806104958339019056fe608060405234801561001057600080fd5b50613c9a806100206000396000f3fe608060405234801561001057600080fd5b506004361061018e5760003560e01c80636a627842116100de578063a217fddf11610097578063c87b56dd11610071578063c87b56dd14610c02578063ca15c87314610ca9578063d547741f14610ceb578063e985e9c514610d395761018e565b8063a217fddf14610a8f578063a22cb46514610aad578063b88d4fde14610afd5761018e565b80636a627842146108135780636c0360eb1461086b57806370a08231146108ee5780639010d07c1461094657806391d14854146109a857806395d89b4114610a0c5761018e565b8063248a9ca31161014b57806342842e0e1161012557806342842e0e1461048957806355f804b3146104f75780635c6d8da1146105b25780636352211e146107bb5761018e565b8063248a9ca3146103ab5780632f2ff15d146103ed57806336568abe1461043b5761018e565b806301ffc9a71461019357806306fdde03146101f6578063081812fc14610279578063095ea7b3146102d157806318160ddd1461031f57806323b872dd1461033d575b600080fd5b6101de600480360360208110156101a957600080fd5b8101908080357bffffffffffffffffffffffffffffffffffffffffffffffffffffffff19169060200190929190505050610db3565b60405180821515815260200191505060405180910390f35b6101fe610e1b565b6040518080602001828103825283818151815260200191508051906020019080838360005b8381101561023e578082015181840152602081019050610223565b50505050905090810190601f16801561026b5780820380516001836020036101000a031916815260200191505b509250505060405180910390f35b6102a56004803603602081101561028f57600080fd5b8101908080359060200190929190505050610ebd565b604051808273ffffffffffffffffffffffffffffffffffffffff16815260200191505060405180910390f35b61031d600480360360408110156102e757600080fd5b81019080803573ffffffffffffffffffffffffffffffffffffffff16906020019092919080359060200190929190505050610f58565b005b61032761109c565b6040518082815260200191505060405180910390f35b6103a96004803603606081101561035357600080fd5b81019080803573ffffffffffffffffffffffffffffffffffffffff169060200190929190803573ffffffffffffffffffffffffffffffffffffffff169060200190929190803590602001909291905050506110a6565b005b6103d7600480360360208110156103c157600080fd5b810190808035906020019092919050505061111c565b6040518082815260200191505060405180910390f35b6104396004803603604081101561040357600080fd5b8101908080359060200190929190803573ffffffffffffffffffffffffffffffffffffffff16906020019092919050505061113c565b005b6104876004803603604081101561045157600080fd5b8101908080359060200190929190803573ffffffffffffffffffffffffffffffffffffffff1690602001909291905050506111c6565b005b6104f56004803603606081101561049f57600080fd5b81019080803573ffffffffffffffffffffffffffffffffffffffff169060200190929190803573ffffffffffffffffffffffffffffffffffffffff1690602001909291908035906020019092919050505061125f565b005b6105b06004803603602081101561050d57600080fd5b810190808035906020019064010000000081111561052a57600080fd5b82018360208201111561053c57600080fd5b8035906020019184600183028401116401000000008311171561055e57600080fd5b91908080601f016020809104026020016040519081016040528093929190818152602001838380828437600081840152601f19601f82011690508083019250505050505050919291929050505061127f565b005b6107b9600480360360808110156105c857600080fd5b81019080803590602001906401000000008111156105e557600080fd5b8201836020820111156105f757600080fd5b8035906020019184600183028401116401000000008311171561061957600080fd5b91908080601f016020809104026020016040519081016040528093929190818152602001838380828437600081840152601f19601f8201169050808301925050505050505091929192908035906020019064010000000081111561067c57600080fd5b82018360208201111561068e57600080fd5b803590602001918460018302840111640100000000831117156106b057600080fd5b91908080601f016020809104026020016040519081016040528093929190818152602001838380828437600081840152601f19601f8201169050808301925050505050505091929192908035906020019064010000000081111561071357600080fd5b82018360208201111561072557600080fd5b8035906020019184600183028401116401000000008311171561074757600080fd5b91908080601f016020809104026020016040519081016040528093929190818152602001838380828437600081840152601f19601f820116905080830192505050505050509192919290803573ffffffffffffffffffffffffffffffffffffffff169060200190929190505050611311565b005b6107e7600480360360208110156107d157600080fd5b810190808035906020019092919050505061153c565b604051808273ffffffffffffffffffffffffffffffffffffffff16815260200191505060405180910390f35b6108556004803603602081101561082957600080fd5b81019080803573ffffffffffffffffffffffffffffffffffffffff169060200190929190505050611579565b6040518082815260200191505060405180910390f35b610873611633565b6040518080602001828103825283818151815260200191508051906020019080838360005b838110156108b3578082015181840152602081019050610898565b50505050905090810190601f1680156108e05780820380516001836020036101000a031916815260200191505b509250505060405180910390f35b6109306004803603602081101561090457600080fd5b81019080803573ffffffffffffffffffffffffffffffffffffffff1690602001909291905050506116d5565b6040518082815260200191505060405180910390f35b61097c6004803603604081101561095c57600080fd5b8101908080359060200190929190803590602001909291905050506117a3565b604051808273ffffffffffffffffffffffffffffffffffffffff16815260200191505060405180910390f35b6109f4600480360360408110156109be57600080fd5b8101908080359060200190929190803573ffffffffffffffffffffffffffffffffffffffff1690602001909291905050506117d5565b60405180821515815260200191505060405180910390f35b610a14611807565b6040518080602001828103825283818151815260200191508051906020019080838360005b83811015610a54578082015181840152602081019050610a39565b50505050905090810190601f168015610a815780820380516001836020036101000a031916815260200191505b509250505060405180910390f35b610a976118a9565b6040518082815260200191505060405180910390f35b610afb60048036036040811015610ac357600080fd5b81019080803573ffffffffffffffffffffffffffffffffffffffff1690602001909291908035151590602001909291905050506118b0565b005b610c0060048036036080811015610b1357600080fd5b81019080803573ffffffffffffffffffffffffffffffffffffffff169060200190929190803573ffffffffffffffffffffffffffffffffffffffff1690602001909291908035906020019092919080359060200190640100000000811115610b7a57600080fd5b820183602082011115610b8c57600080fd5b80359060200191846001830284011164010000000083111715610bae57600080fd5b91908080601f016020809104026020016040519081016040528093929190818152602001838380828437600081840152601f19601f820116905080830192505050505050509192919290505050611a66565b005b610c2e60048036036020811015610c1857600080fd5b8101908080359060200190929190505050611ade565b6040518080602001828103825283818151815260200191508051906020019080838360005b83811015610c6e578082015181840152602081019050610c53565b50505050905090810190601f168015610c9b5780820380516001836020036101000a031916815260200191505b509250505060405180910390f35b610cd560048036036020811015610cbf57600080fd5b8101908080359060200190929190505050611dc7565b6040518082815260200191505060405180910390f35b610d3760048036036040811015610d0157600080fd5b8101908080359060200190929190803573ffffffffffffffffffffffffffffffffffffffff169060200190929190505050611dee565b005b610d9b60048036036040811015610d4f57600080fd5b81019080803573ffffffffffffffffffffffffffffffffffffffff169060200190929190803573ffffffffffffffffffffffffffffffffffffffff169060200190929190505050611e78565b60405180821515815260200191505060405180910390f35b600060336000837bffffffffffffffffffffffffffffffffffffffffffffffffffffffff19167bffffffffffffffffffffffffffffffffffffffffffffffffffffffff1916815260200190815260200160002060009054906101000a900460ff169050919050565b606060698054600181600116156101000203166002900480601f016020809104026020016040519081016040528092919081815260200182805460018160011615610100020316600290048015610eb35780601f10610e8857610100808354040283529160200191610eb3565b820191906000526020600020905b815481529060010190602001808311610e9657829003601f168201915b5050505050905090565b6000610ec882611f0c565b610f1d576040517f08c379a000000000000000000000000000000000000000000000000000000000815260040180806020018281038252602c815260200180613b60602c913960400191505060405180910390fd5b6067600083815260200190815260200160002060009054906101000a900473ffffffffffffffffffffffffffffffffffffffff169050919050565b6000610f638261153c565b90508073ffffffffffffffffffffffffffffffffffffffff168373ffffffffffffffffffffffffffffffffffffffff161415610fea576040517f08c379a0000000000000000000000000000000000000000000000000000000008152600401808060200182810382526021815260200180613be46021913960400191505060405180910390fd5b8073ffffffffffffffffffffffffffffffffffffffff16611009611f78565b73ffffffffffffffffffffffffffffffffffffffff161480611038575061103781611032611f78565b611e78565b5b61108d576040517f08c379a0000000000000000000000000000000000000000000000000000000008152600401808060200182810382526038815260200180613ad06038913960400191505060405180910390fd5b6110978383611f80565b505050565b6000609f54905090565b6110b76110b1611f78565b82612039565b61110c576040517f08c379a0000000000000000000000000000000000000000000000000000000008152600401808060200182810382526031815260200180613c056031913960400191505060405180910390fd5b61111783838361212d565b505050565b6000606d6000838152602001908152602001600020600201549050919050565b611163606d60008481526020019081526020016000206002015461115e611f78565b6117d5565b6111b8576040517f08c379a000000000000000000000000000000000000000000000000000000000815260040180806020018281038252602f8152602001806139c9602f913960400191505060405180910390fd5b6111c28282612433565b5050565b6111ce611f78565b73ffffffffffffffffffffffffffffffffffffffff168173ffffffffffffffffffffffffffffffffffffffff1614611251576040517f08c379a000000000000000000000000000000000000000000000000000000000815260040180806020018281038252602f815260200180613c36602f913960400191505060405180910390fd5b61125b82826124c7565b5050565b61127a83838360405180602001604052806000815250611a66565b505050565b6112936000801b61128e611f78565b6117d5565b611305576040517f08c379a000000000000000000000000000000000000000000000000000000000815260040180806020018281038252601b8152602001807f455243373231436f6e74726f6c6c65642f6f6e6c792d61646d696e000000000081525060200191505060405180910390fd5b61130e8161255b565b50565b600060019054906101000a900460ff1680611330575061132f612603565b5b80611346575060008054906101000a900460ff16155b61139b576040517f08c379a000000000000000000000000000000000000000000000000000000000815260040180806020018281038252602e815260200180613b32602e913960400191505060405180910390fd5b60008060019054906101000a900460ff1615905080156113eb576001600060016101000a81548160ff02191690831515021790555060016000806101000a81548160ff0219169083151502179055505b6113f5858561261a565b6113fe8361255b565b61140b6000801b83612734565b7fe9d29247c29487d59c9ceaa4d485328d669ffeb8a859c898d37d91d0f845e0ef8585604051808060200180602001838103835285818151815260200191508051906020019080838360005b83811015611472578082015181840152602081019050611457565b50505050905090810190601f16801561149f5780820380516001836020036101000a031916815260200191505b50838103825284818151815260200191508051906020019080838360005b838110156114d85780820151818401526020810190506114bd565b50505050905090810190601f1680156115055780820380516001836020036101000a031916815260200191505b5094505050505060405180910390a180156115355760008060016101000a81548160ff0219169083151502179055505b5050505050565b60006066600083815260200190815260200160002060009054906101000a900473ffffffffffffffffffffffffffffffffffffffff169050919050565b600061158f6000801b61158a611f78565b6117d5565b611601576040517f08c379a000000000000000000000000000000000000000000000000000000000815260040180806020018281038252601b8152602001807f455243373231436f6e74726f6c6c65642f6f6e6c792d61646d696e000000000081525060200191505060405180910390fd5b6116176001609f5461274290919063ffffffff16565b609f8190555061162982609f546127ca565b609f549050919050565b6060606c8054600181600116156101000203166002900480601f0160208091040260200160405190810160405280929190818152602001828054600181600116156101000203166002900480156116cb5780601f106116a0576101008083540402835291602001916116cb565b820191906000526020600020905b8154815290600101906020018083116116ae57829003601f168201915b5050505050905090565b60008073ffffffffffffffffffffffffffffffffffffffff168273ffffffffffffffffffffffffffffffffffffffff16141561175c576040517f08c379a000000000000000000000000000000000000000000000000000000000815260040180806020018281038252602a815260200180613b08602a913960400191505060405180910390fd5b606560008373ffffffffffffffffffffffffffffffffffffffff1673ffffffffffffffffffffffffffffffffffffffff168152602001908152602001600020549050919050565b60006117cd82606d6000868152602001908152602001600020600001612a3d90919063ffffffff16565b905092915050565b60006117ff82606d6000868152602001908152602001600020600001612a5790919063ffffffff16565b905092915050565b6060606a8054600181600116156101000203166002900480601f01602080910402602001604051908101604052809291908181526020018280546001816001161561010002031660029004801561189f5780601f106118745761010080835404028352916020019161189f565b820191906000526020600020905b81548152906001019060200180831161188257829003601f168201915b5050505050905090565b6000801b81565b6118b8611f78565b73ffffffffffffffffffffffffffffffffffffffff168273ffffffffffffffffffffffffffffffffffffffff161415611959576040517f08c379a00000000000000000000000000000000000000000000000000000000081526004018080602001828103825260198152602001807f4552433732313a20617070726f766520746f2063616c6c65720000000000000081525060200191505060405180910390fd5b8060686000611966611f78565b73ffffffffffffffffffffffffffffffffffffffff1673ffffffffffffffffffffffffffffffffffffffff16815260200190815260200160002060008473ffffffffffffffffffffffffffffffffffffffff1673ffffffffffffffffffffffffffffffffffffffff16815260200190815260200160002060006101000a81548160ff0219169083151502179055508173ffffffffffffffffffffffffffffffffffffffff16611a13611f78565b73ffffffffffffffffffffffffffffffffffffffff167f17307eab39ab6107e8899845ad3d59bd9653f200f220920489ca2b5937696c318360405180821515815260200191505060405180910390a35050565b611a77611a71611f78565b83612039565b611acc576040517f08c379a0000000000000000000000000000000000000000000000000000000008152600401808060200182810382526031815260200180613c056031913960400191505060405180910390fd5b611ad884848484612a87565b50505050565b6060611ae982611f0c565b611b3e576040517f08c379a000000000000000000000000000000000000000000000000000000000815260040180806020018281038252602f815260200180613bb5602f913960400191505060405180910390fd5b6060606b60008481526020019081526020016000208054600181600116156101000203166002900480601f016020809104026020016040519081016040528092919081815260200182805460018160011615610100020316600290048015611be75780601f10611bbc57610100808354040283529160200191611be7565b820191906000526020600020905b815481529060010190602001808311611bca57829003601f168201915b505050505090506000606c8054600181600116156101000203166002900490501415611c165780915050611dc2565b600081511115611cef57606c816040516020018083805460018160011615610100020316600290048015611c815780601f10611c5f576101008083540402835291820191611c81565b820191906000526020600020905b815481529060010190602001808311611c6d575b505082805190602001908083835b60208310611cb25780518252602082019150602081019050602083039250611c8f565b6001836020036101000a03801982511681845116808217855250505050505090500192505050604051602081830303815290604052915050611dc2565b606c611cfa84612af9565b6040516020018083805460018160011615610100020316600290048015611d585780601f10611d36576101008083540402835291820191611d58565b820191906000526020600020905b815481529060010190602001808311611d44575b505082805190602001908083835b60208310611d895780518252602082019150602081019050602083039250611d66565b6001836020036101000a038019825116818451168082178552505050505050905001925050506040516020818303038152906040529150505b919050565b6000611de7606d6000848152602001908152602001600020600001612c40565b9050919050565b611e15606d600084815260200190815260200160002060020154611e10611f78565b6117d5565b611e6a576040517f08c379a0000000000000000000000000000000000000000000000000000000008152600401808060200182810382526030815260200180613aa06030913960400191505060405180910390fd5b611e7482826124c7565b5050565b6000606860008473ffffffffffffffffffffffffffffffffffffffff1673ffffffffffffffffffffffffffffffffffffffff16815260200190815260200160002060008373ffffffffffffffffffffffffffffffffffffffff1673ffffffffffffffffffffffffffffffffffffffff16815260200190815260200160002060009054906101000a900460ff16905092915050565b60008073ffffffffffffffffffffffffffffffffffffffff166066600084815260200190815260200160002060009054906101000a900473ffffffffffffffffffffffffffffffffffffffff1673ffffffffffffffffffffffffffffffffffffffff1614159050919050565b600033905090565b816067600083815260200190815260200160002060006101000a81548173ffffffffffffffffffffffffffffffffffffffff021916908373ffffffffffffffffffffffffffffffffffffffff160217905550808273ffffffffffffffffffffffffffffffffffffffff16611ff38361153c565b73ffffffffffffffffffffffffffffffffffffffff167f8c5be1e5ebec7d5bd14f71427d1e84f3dd0314c0f7b2291e5b200ac8c7c3b92560405160405180910390a45050565b600061204482611f0c565b612099576040517f08c379a000000000000000000000000000000000000000000000000000000000815260040180806020018281038252602c815260200180613a74602c913960400191505060405180910390fd5b60006120a48361153c565b90508073ffffffffffffffffffffffffffffffffffffffff168473ffffffffffffffffffffffffffffffffffffffff16148061211357508373ffffffffffffffffffffffffffffffffffffffff166120fb84610ebd565b73ffffffffffffffffffffffffffffffffffffffff16145b8061212457506121238185611e78565b5b91505092915050565b8273ffffffffffffffffffffffffffffffffffffffff1661214d8261153c565b73ffffffffffffffffffffffffffffffffffffffff16146121b9576040517f08c379a0000000000000000000000000000000000000000000000000000000008152600401808060200182810382526029815260200180613b8c6029913960400191505060405180910390fd5b600073ffffffffffffffffffffffffffffffffffffffff168273ffffffffffffffffffffffffffffffffffffffff16141561223f576040517f08c379a0000000000000000000000000000000000000000000000000000000008152600401808060200182810382526024815260200180613a2a6024913960400191505060405180910390fd5b61224a838383612c55565b612255600082611f80565b6122a86001606560008673ffffffffffffffffffffffffffffffffffffffff1673ffffffffffffffffffffffffffffffffffffffff16815260200190815260200160002054612c5a90919063ffffffff16565b606560008573ffffffffffffffffffffffffffffffffffffffff1673ffffffffffffffffffffffffffffffffffffffff1681526020019081526020016000208190555061233e6001606560008573ffffffffffffffffffffffffffffffffffffffff1673ffffffffffffffffffffffffffffffffffffffff1681526020019081526020016000205461274290919063ffffffff16565b606560008473ffffffffffffffffffffffffffffffffffffffff1673ffffffffffffffffffffffffffffffffffffffff16815260200190815260200160002081905550816066600083815260200190815260200160002060006101000a81548173ffffffffffffffffffffffffffffffffffffffff021916908373ffffffffffffffffffffffffffffffffffffffff160217905550808273ffffffffffffffffffffffffffffffffffffffff168473ffffffffffffffffffffffffffffffffffffffff167fddf252ad1be2c89b69c2b068fc378daa952ba7f163c4a11628f55a4df523b3ef60405160405180910390a4505050565b61245b81606d6000858152602001908152602001600020600001612ca490919063ffffffff16565b156124c357612468611f78565b73ffffffffffffffffffffffffffffffffffffffff168173ffffffffffffffffffffffffffffffffffffffff16837f2f8788117e7eff1d82e926ec794901d17c78024a50270940304540a733656f0d60405160405180910390a45b5050565b6124ef81606d6000858152602001908152602001600020600001612cd490919063ffffffff16565b15612557576124fc611f78565b73ffffffffffffffffffffffffffffffffffffffff168173ffffffffffffffffffffffffffffffffffffffff16837ff6391f5c32d9c69d2a47ea670b442974b53935d1edc7fd64eb21e047a839171b60405160405180910390a45b5050565b61256481612d04565b7f30bdcf23002cf602da83b188394bcc301ab4d549a416248466c09fc88e2252ae816040518080602001828103825283818151815260200191508051906020019080838360005b838110156125c65780820151818401526020810190506125ab565b50505050905090810190601f1680156125f35780820380516001836020036101000a031916815260200191505b509250505060405180910390a150565b6000803090506000813b9050600081149250505090565b600060019054906101000a900460ff16806126395750612638612603565b5b8061264f575060008054906101000a900460ff16155b6126a4576040517f08c379a000000000000000000000000000000000000000000000000000000000815260040180806020018281038252602e815260200180613b32602e913960400191505060405180910390fd5b60008060019054906101000a900460ff1615905080156126f4576001600060016101000a81548160ff02191690831515021790555060016000806101000a81548160ff0219169083151502179055505b6126fc612d1e565b612704612e1c565b61270e8383612f2a565b801561272f5760008060016101000a81548160ff0219169083151502179055505b505050565b61273e8282612433565b5050565b6000808284019050838110156127c0576040517f08c379a000000000000000000000000000000000000000000000000000000000815260040180806020018281038252601b8152602001807f536166654d6174683a206164646974696f6e206f766572666c6f77000000000081525060200191505060405180910390fd5b8091505092915050565b600073ffffffffffffffffffffffffffffffffffffffff168273ffffffffffffffffffffffffffffffffffffffff16141561286d576040517f08c379a00000000000000000000000000000000000000000000000000000000081526004018080602001828103825260208152602001807f4552433732313a206d696e7420746f20746865207a65726f206164647265737381525060200191505060405180910390fd5b61287681611f0c565b156128e9576040517f08c379a000000000000000000000000000000000000000000000000000000000815260040180806020018281038252601c8152602001807f4552433732313a20746f6b656e20616c7265616479206d696e7465640000000081525060200191505060405180910390fd5b6128f560008383612c55565b6129486001606560008573ffffffffffffffffffffffffffffffffffffffff1673ffffffffffffffffffffffffffffffffffffffff1681526020019081526020016000205461274290919063ffffffff16565b606560008473ffffffffffffffffffffffffffffffffffffffff1673ffffffffffffffffffffffffffffffffffffffff16815260200190815260200160002081905550816066600083815260200190815260200160002060006101000a81548173ffffffffffffffffffffffffffffffffffffffff021916908373ffffffffffffffffffffffffffffffffffffffff160217905550808273ffffffffffffffffffffffffffffffffffffffff16600073ffffffffffffffffffffffffffffffffffffffff167fddf252ad1be2c89b69c2b068fc378daa952ba7f163c4a11628f55a4df523b3ef60405160405180910390a45050565b6000612a4c8360000183613078565b60001c905092915050565b6000612a7f836000018373ffffffffffffffffffffffffffffffffffffffff1660001b6130fb565b905092915050565b612a9284848461212d565b612a9e8484848461311e565b612af3576040517f08c379a00000000000000000000000000000000000000000000000000000000081526004018080602001828103825260328152602001806139f86032913960400191505060405180910390fd5b50505050565b60606000821415612b41576040518060400160405280600181526020017f30000000000000000000000000000000000000000000000000000000000000008152509050612c3b565b600082905060005b60008214612b6b578080600101915050600a8281612b6357fe5b049150612b49565b60608167ffffffffffffffff81118015612b8457600080fd5b506040519080825280601f01601f191660200182016040528015612bb75781602001600182028036833780820191505090505b50905060006001830390508593505b60008414612c3357600a8481612bd857fe5b0660300160f81b82828060019003935081518110612bf257fe5b60200101907effffffffffffffffffffffffffffffffffffffffffffffffffffffffffffff1916908160001a905350600a8481612c2b57fe5b049350612bc6565b819450505050505b919050565b6000612c4e82600001613337565b9050919050565b505050565b6000612c9c83836040518060400160405280601e81526020017f536166654d6174683a207375627472616374696f6e206f766572666c6f770000815250613348565b905092915050565b6000612ccc836000018373ffffffffffffffffffffffffffffffffffffffff1660001b613408565b905092915050565b6000612cfc836000018373ffffffffffffffffffffffffffffffffffffffff1660001b613478565b905092915050565b80606c9080519060200190612d1a929190613909565b5050565b600060019054906101000a900460ff1680612d3d5750612d3c612603565b5b80612d53575060008054906101000a900460ff16155b612da8576040517f08c379a000000000000000000000000000000000000000000000000000000000815260040180806020018281038252602e815260200180613b32602e913960400191505060405180910390fd5b60008060019054906101000a900460ff161590508015612df8576001600060016101000a81548160ff02191690831515021790555060016000806101000a81548160ff0219169083151502179055505b8015612e195760008060016101000a81548160ff0219169083151502179055505b50565b600060019054906101000a900460ff1680612e3b5750612e3a612603565b5b80612e51575060008054906101000a900460ff16155b612ea6576040517f08c379a000000000000000000000000000000000000000000000000000000000815260040180806020018281038252602e815260200180613b32602e913960400191505060405180910390fd5b60008060019054906101000a900460ff161590508015612ef6576001600060016101000a81548160ff02191690831515021790555060016000806101000a81548160ff0219169083151502179055505b612f066301ffc9a760e01b613560565b8015612f275760008060016101000a81548160ff0219169083151502179055505b50565b600060019054906101000a900460ff1680612f495750612f48612603565b5b80612f5f575060008054906101000a900460ff16155b612fb4576040517f08c379a000000000000000000000000000000000000000000000000000000000815260040180806020018281038252602e815260200180613b32602e913960400191505060405180910390fd5b60008060019054906101000a900460ff161590508015613004576001600060016101000a81548160ff02191690831515021790555060016000806101000a81548160ff0219169083151502179055505b826069908051906020019061301a929190613909565b5081606a9080519060200190613031929190613909565b506130426380ac58cd60e01b613560565b613052635b5e139f60e01b613560565b80156130735760008060016101000a81548160ff0219169083151502179055505b505050565b6000818360000180549050116130d9576040517f08c379a00000000000000000000000000000000000000000000000000000000081526004018080602001828103825260228152602001806139a76022913960400191505060405180910390fd5b8260000182815481106130e857fe5b9060005260206000200154905092915050565b600080836001016000848152602001908152602001600020541415905092915050565b600061313f8473ffffffffffffffffffffffffffffffffffffffff16613669565b61314c576001905061332f565b60606132b663150b7a0260e01b613161611f78565b888787604051602401808573ffffffffffffffffffffffffffffffffffffffff1681526020018473ffffffffffffffffffffffffffffffffffffffff16815260200183815260200180602001828103825283818151815260200191508051906020019080838360005b838110156131e55780820151818401526020810190506131ca565b50505050905090810190601f1680156132125780820380516001836020036101000a031916815260200191505b5095505050505050604051602081830303815290604052907bffffffffffffffffffffffffffffffffffffffffffffffffffffffff19166020820180517bffffffffffffffffffffffffffffffffffffffffffffffffffffffff83818316178352505050506040518060600160405280603281526020016139f8603291398773ffffffffffffffffffffffffffffffffffffffff1661367c9092919063ffffffff16565b905060008180602001905160208110156132cf57600080fd5b8101908080519060200190929190505050905063150b7a0260e01b7bffffffffffffffffffffffffffffffffffffffffffffffffffffffff1916817bffffffffffffffffffffffffffffffffffffffffffffffffffffffff191614925050505b949350505050565b600081600001805490509050919050565b60008383111582906133f5576040517f08c379a00000000000000000000000000000000000000000000000000000000081526004018080602001828103825283818151815260200191508051906020019080838360005b838110156133ba57808201518184015260208101905061339f565b50505050905090810190601f1680156133e75780820380516001836020036101000a031916815260200191505b509250505060405180910390fd5b5060008385039050809150509392505050565b600061341483836130fb565b61346d578260000182908060018154018082558091505060019003906000526020600020016000909190919091505582600001805490508360010160008481526020019081526020016000208190555060019050613472565b600090505b92915050565b6000808360010160008481526020019081526020016000205490506000811461355457600060018203905060006001866000018054905003905060008660000182815481106134c357fe5b90600052602060002001549050808760000184815481106134e057fe5b906000526020600020018190555060018301876001016000838152602001908152602001600020819055508660000180548061351857fe5b6001900381819060005260206000200160009055905586600101600087815260200190815260200160002060009055600194505050505061355a565b60009150505b92915050565b63ffffffff60e01b817bffffffffffffffffffffffffffffffffffffffffffffffffffffffff191614156135fc576040517f08c379a000000000000000000000000000000000000000000000000000000000815260040180806020018281038252601c8152602001807f4552433136353a20696e76616c696420696e746572666163652069640000000081525060200191505060405180910390fd5b600160336000837bffffffffffffffffffffffffffffffffffffffffffffffffffffffff19167bffffffffffffffffffffffffffffffffffffffffffffffffffffffff1916815260200190815260200160002060006101000a81548160ff02191690831515021790555050565b600080823b905060008111915050919050565b606061368b8484600085613694565b90509392505050565b6060824710156136ef576040517f08c379a0000000000000000000000000000000000000000000000000000000008152600401808060200182810382526026815260200180613a4e6026913960400191505060405180910390fd5b6136f885613669565b61376a576040517f08c379a000000000000000000000000000000000000000000000000000000000815260040180806020018281038252601d8152602001807f416464726573733a2063616c6c20746f206e6f6e2d636f6e747261637400000081525060200191505060405180910390fd5b600060608673ffffffffffffffffffffffffffffffffffffffff1685876040518082805190602001908083835b602083106137ba5780518252602082019150602081019050602083039250613797565b6001836020036101000a03801982511681845116808217855250505050505090500191505060006040518083038185875af1925050503d806000811461381c576040519150601f19603f3d011682016040523d82523d6000602084013e613821565b606091505b509150915061383182828661383d565b92505050949350505050565b6060831561384d57829050613902565b6000835111156138605782518084602001fd5b816040517f08c379a00000000000000000000000000000000000000000000000000000000081526004018080602001828103825283818151815260200191508051906020019080838360005b838110156138c75780820151818401526020810190506138ac565b50505050905090810190601f1680156138f45780820380516001836020036101000a031916815260200191505b509250505060405180910390fd5b9392505050565b828054600181600116156101000203166002900490600052602060002090601f016020900481019282601f1061394a57805160ff1916838001178555613978565b82800160010185558215613978579182015b8281111561397757825182559160200191906001019061395c565b5b5090506139859190613989565b5090565b5b808211156139a257600081600090555060010161398a565b509056fe456e756d657261626c655365743a20696e646578206f7574206f6620626f756e6473416363657373436f6e74726f6c3a2073656e646572206d75737420626520616e2061646d696e20746f206772616e744552433732313a207472616e7366657220746f206e6f6e20455243373231526563656976657220696d706c656d656e7465724552433732313a207472616e7366657220746f20746865207a65726f2061646472657373416464726573733a20696e73756666696369656e742062616c616e636520666f722063616c6c4552433732313a206f70657261746f7220717565727920666f72206e6f6e6578697374656e7420746f6b656e416363657373436f6e74726f6c3a2073656e646572206d75737420626520616e2061646d696e20746f207265766f6b654552433732313a20617070726f76652063616c6c6572206973206e6f74206f776e6572206e6f7220617070726f76656420666f7220616c6c4552433732313a2062616c616e636520717565727920666f7220746865207a65726f2061646472657373496e697469616c697a61626c653a20636f6e747261637420697320616c726561647920696e697469616c697a65644552433732313a20617070726f76656420717565727920666f72206e6f6e6578697374656e7420746f6b656e4552433732313a207472616e73666572206f6620746f6b656e2074686174206973206e6f74206f776e4552433732314d657461646174613a2055524920717565727920666f72206e6f6e6578697374656e7420746f6b656e4552433732313a20617070726f76616c20746f2063757272656e74206f776e65724552433732313a207472616e736665722063616c6c6572206973206e6f74206f776e6572206e6f7220617070726f766564416363657373436f6e74726f6c3a2063616e206f6e6c792072656e6f756e636520726f6c657320666f722073656c66a26469706673582212204e4d8189ed977eb2cecb96dadc58ef4c20fb7b4e065b2f94bdcd1671c4565ed764736f6c634300060c0033a2646970667358221220b90ca5af50926f5c7e6253c3d3fbe213771a7020f95f3a50308e5f81c0782a1864736f6c634300060c0033",
  "devdoc": {
    "author": "Brendan Asselstine <brendan@pooltogether.com>",
    "kind": "dev",
    "methods": {
      "createERC721Controlled(string,string,string)": {
        "returns": {
          "_0": "The address of the newly created ERC721Controlled"
        }
      }
    },
    "title": "Factory to create ERC721Controlled tokens",
    "version": 1
  },
  "userdoc": {
    "events": {
      "ERC721ControlledCreated(address)": {
        "notice": "Emitted when a ERC721Controlled is created"
      }
    },
    "kind": "user",
    "methods": {
      "createERC721Controlled(string,string,string)": {
        "notice": "Creates an ERC721Controlled contract"
      }
    },
    "notice": "Creates new ERC721Controlled tokens using the minimal proxy pattern.",
    "version": 1
  },
  "storageLayout": {
    "storage": [],
    "types": null
  },
  "gasEstimates": {
    "creation": {
      "codeDepositCost": "3354400",
      "executionCost": "3739",
      "totalCost": "3358139"
    },
    "external": {
      "createERC721Controlled(string,string,string)": "infinite"
    }
  }
}