{
  "abi": [
    {
      "inputs": [
        {
          "internalType": "string",
          "name": "name",
          "type": "string"
        },
        {
          "internalType": "string",
          "name": "symbol",
          "type": "string"
        },
        {
          "internalType": "string",
          "name": "baseURI",
          "type": "string"
        }
      ],
      "stateMutability": "nonpayable",
      "type": "constructor"
    },
    {
      "anonymous": false,
      "inputs": [
        {
          "indexed": true,
          "internalType": "address",
          "name": "owner",
          "type": "address"
        },
        {
          "indexed": true,
          "internalType": "address",
          "name": "approved",
          "type": "address"
        },
        {
          "indexed": true,
          "internalType": "uint256",
          "name": "tokenId",
          "type": "uint256"
        }
      ],
      "name": "Approval",
      "type": "event"
    },
    {
      "anonymous": false,
      "inputs": [
        {
          "indexed": true,
          "internalType": "address",
          "name": "owner",
          "type": "address"
        },
        {
          "indexed": true,
          "internalType": "address",
          "name": "operator",
          "type": "address"
        },
        {
          "indexed": false,
          "internalType": "bool",
          "name": "approved",
          "type": "bool"
        }
      ],
      "name": "ApprovalForAll",
      "type": "event"
    },
    {
      "anonymous": false,
      "inputs": [
        {
          "indexed": false,
          "internalType": "string",
          "name": "baseURI",
          "type": "string"
        }
      ],
      "name": "ERC721OwnableBaseURISet",
      "type": "event"
    },
    {
      "anonymous": false,
      "inputs": [
        {
          "indexed": false,
          "internalType": "string",
          "name": "name",
          "type": "string"
        },
        {
          "indexed": false,
          "internalType": "string",
          "name": "symbol",
          "type": "string"
        }
      ],
      "name": "ERC721OwnableInitialized",
      "type": "event"
    },
    {
      "anonymous": false,
      "inputs": [
        {
          "indexed": true,
          "internalType": "address",
          "name": "previousOwner",
          "type": "address"
        },
        {
          "indexed": true,
          "internalType": "address",
          "name": "newOwner",
          "type": "address"
        }
      ],
      "name": "OwnershipTransferred",
      "type": "event"
    },
    {
      "anonymous": false,
      "inputs": [
        {
          "indexed": true,
          "internalType": "address",
          "name": "from",
          "type": "address"
        },
        {
          "indexed": true,
          "internalType": "address",
          "name": "to",
          "type": "address"
        },
        {
          "indexed": true,
          "internalType": "uint256",
          "name": "tokenId",
          "type": "uint256"
        }
      ],
      "name": "Transfer",
      "type": "event"
    },
    {
      "inputs": [
        {
          "internalType": "address",
          "name": "to",
          "type": "address"
        },
        {
          "internalType": "uint256",
          "name": "tokenId",
          "type": "uint256"
        }
      ],
      "name": "approve",
      "outputs": [],
      "stateMutability": "nonpayable",
      "type": "function"
    },
    {
      "inputs": [
        {
          "internalType": "address",
          "name": "owner",
          "type": "address"
        }
      ],
      "name": "balanceOf",
      "outputs": [
        {
          "internalType": "uint256",
          "name": "",
          "type": "uint256"
        }
      ],
      "stateMutability": "view",
      "type": "function"
    },
    {
      "inputs": [],
      "name": "baseURI",
      "outputs": [
        {
          "internalType": "string",
          "name": "",
          "type": "string"
        }
      ],
      "stateMutability": "view",
      "type": "function"
    },
    {
      "inputs": [
        {
          "internalType": "uint256",
          "name": "tokenId",
          "type": "uint256"
        }
      ],
      "name": "getApproved",
      "outputs": [
        {
          "internalType": "address",
          "name": "",
          "type": "address"
        }
      ],
      "stateMutability": "view",
      "type": "function"
    },
    {
      "inputs": [
        {
          "internalType": "address",
          "name": "owner",
          "type": "address"
        },
        {
          "internalType": "address",
          "name": "operator",
          "type": "address"
        }
      ],
      "name": "isApprovedForAll",
      "outputs": [
        {
          "internalType": "bool",
          "name": "",
          "type": "bool"
        }
      ],
      "stateMutability": "view",
      "type": "function"
    },
    {
      "inputs": [
        {
          "internalType": "address",
          "name": "to",
          "type": "address"
        }
      ],
      "name": "mint",
      "outputs": [
        {
          "internalType": "uint256",
          "name": "",
          "type": "uint256"
        }
      ],
      "stateMutability": "nonpayable",
      "type": "function"
    },
    {
      "inputs": [],
      "name": "name",
      "outputs": [
        {
          "internalType": "string",
          "name": "",
          "type": "string"
        }
      ],
      "stateMutability": "view",
      "type": "function"
    },
    {
      "inputs": [],
      "name": "owner",
      "outputs": [
        {
          "internalType": "address",
          "name": "",
          "type": "address"
        }
      ],
      "stateMutability": "view",
      "type": "function"
    },
    {
      "inputs": [
        {
          "internalType": "uint256",
          "name": "tokenId",
          "type": "uint256"
        }
      ],
      "name": "ownerOf",
      "outputs": [
        {
          "internalType": "address",
          "name": "",
          "type": "address"
        }
      ],
      "stateMutability": "view",
      "type": "function"
    },
    {
      "inputs": [],
      "name": "renounceOwnership",
      "outputs": [],
      "stateMutability": "nonpayable",
      "type": "function"
    },
    {
      "inputs": [
        {
          "internalType": "address",
          "name": "from",
          "type": "address"
        },
        {
          "internalType": "address",
          "name": "to",
          "type": "address"
        },
        {
          "internalType": "uint256",
          "name": "tokenId",
          "type": "uint256"
        }
      ],
      "name": "safeTransferFrom",
      "outputs": [],
      "stateMutability": "nonpayable",
      "type": "function"
    },
    {
      "inputs": [
        {
          "internalType": "address",
          "name": "from",
          "type": "address"
        },
        {
          "internalType": "address",
          "name": "to",
          "type": "address"
        },
        {
          "internalType": "uint256",
          "name": "tokenId",
          "type": "uint256"
        },
        {
          "internalType": "bytes",
          "name": "_data",
          "type": "bytes"
        }
      ],
      "name": "safeTransferFrom",
      "outputs": [],
      "stateMutability": "nonpayable",
      "type": "function"
    },
    {
      "inputs": [
        {
          "internalType": "address",
          "name": "operator",
          "type": "address"
        },
        {
          "internalType": "bool",
          "name": "approved",
          "type": "bool"
        }
      ],
      "name": "setApprovalForAll",
      "outputs": [],
      "stateMutability": "nonpayable",
      "type": "function"
    },
    {
      "inputs": [
        {
          "internalType": "string",
          "name": "_baseURI",
          "type": "string"
        }
      ],
      "name": "setBaseURI",
      "outputs": [],
      "stateMutability": "nonpayable",
      "type": "function"
    },
    {
      "inputs": [
        {
          "internalType": "bytes4",
          "name": "interfaceId",
          "type": "bytes4"
        }
      ],
      "name": "supportsInterface",
      "outputs": [
        {
          "internalType": "bool",
          "name": "",
          "type": "bool"
        }
      ],
      "stateMutability": "view",
      "type": "function"
    },
    {
      "inputs": [],
      "name": "symbol",
      "outputs": [
        {
          "internalType": "string",
          "name": "",
          "type": "string"
        }
      ],
      "stateMutability": "view",
      "type": "function"
    },
    {
      "inputs": [
        {
          "internalType": "uint256",
          "name": "tokenId",
          "type": "uint256"
        }
      ],
      "name": "tokenURI",
      "outputs": [
        {
          "internalType": "string",
          "name": "",
          "type": "string"
        }
      ],
      "stateMutability": "view",
      "type": "function"
    },
    {
      "inputs": [],
      "name": "totalSupply",
      "outputs": [
        {
          "internalType": "uint256",
          "name": "",
          "type": "uint256"
        }
      ],
      "stateMutability": "view",
      "type": "function"
    },
    {
      "inputs": [
        {
          "internalType": "address",
          "name": "from",
          "type": "address"
        },
        {
          "internalType": "address",
          "name": "to",
          "type": "address"
        },
        {
          "internalType": "uint256",
          "name": "tokenId",
          "type": "uint256"
        }
      ],
      "name": "transferFrom",
      "outputs": [],
      "stateMutability": "nonpayable",
      "type": "function"
    },
    {
      "inputs": [
        {
          "internalType": "address",
          "name": "newOwner",
          "type": "address"
        }
      ],
      "name": "transferOwnership",
      "outputs": [],
      "stateMutability": "nonpayable",
      "type": "function"
    }
  ],
  "address": "0xC5B84025E49e1ED2a61b8DB7340fDA576F300288",
  "args": [
    "PoolTogether Loot Box",
    "LOOTY",
    "https://erc721.pooltogether.com/"
  ],
  "solcInputHash": "0xa1cca0ed256bc3e0b6f8a180366cae8c2625d6a010edbba3e2952ed759b8c951",
  "bytecode": "0x60806040523480156200001157600080fd5b506040516200349638038062003496833981810160405260608110156200003757600080fd5b81019080805160405193929190846401000000008211156200005857600080fd5b838201915060208201858111156200006f57600080fd5b82518660018202830111640100000000821117156200008d57600080fd5b8083526020830192505050908051906020019080838360005b83811015620000c3578082015181840152602081019050620000a6565b50505050905090810190601f168015620000f15780820380516001836020036101000a031916815260200191505b50604052602001805160405193929190846401000000008211156200011557600080fd5b838201915060208201858111156200012c57600080fd5b82518660018202830111640100000000821117156200014a57600080fd5b8083526020830192505050908051906020019080838360005b838110156200018057808201518184015260208101905062000163565b50505050905090810190601f168015620001ae5780820380516001836020036101000a031916815260200191505b5060405260200180516040519392919084640100000000821115620001d257600080fd5b83820191506020820185811115620001e957600080fd5b82518660018202830111640100000000821117156200020757600080fd5b8083526020830192505050908051906020019080838360005b838110156200023d57808201518184015260208101905062000220565b50505050905090810190601f1680156200026b5780820380516001836020036101000a031916815260200191505b5060405250505082826200028c6301ffc9a760e01b620004ca60201b60201c565b8160059080519060200190620002a49291906200077d565b508060069080519060200190620002bd9291906200077d565b50620002d66380ac58cd60e01b620004ca60201b60201c565b620002ee635b5e139f60e01b620004ca60201b60201c565b5050600062000302620005d360201b60201c565b905080600960006101000a81548173ffffffffffffffffffffffffffffffffffffffff021916908373ffffffffffffffffffffffffffffffffffffffff1602179055508073ffffffffffffffffffffffffffffffffffffffff16600073ffffffffffffffffffffffffffffffffffffffff167f8be0079c531659141344cd1fd0a4f28419497f9722a3daafe3b4186f6b6457e060405160405180910390a350620003b281620005db60201b60201c565b7fd2bab340442e86d061fa13ed8b5d8526468a8b7cdf33a1d8518ffda2abc8546d8383604051808060200180602001838103835285818151815260200191508051906020019080838360005b838110156200041b578082015181840152602081019050620003fe565b50505050905090810190601f168015620004495780820380516001836020036101000a031916815260200191505b50838103825284818151815260200191508051906020019080838360005b838110156200048457808201518184015260208101905062000467565b50505050905090810190601f168015620004b25780820380516001836020036101000a031916815260200191505b5094505050505060405180910390a150505062000823565b63ffffffff60e01b817bffffffffffffffffffffffffffffffffffffffffffffffffffffffff1916141562000567576040517f08c379a000000000000000000000000000000000000000000000000000000000815260040180806020018281038252601c8152602001807f4552433136353a20696e76616c696420696e746572666163652069640000000081525060200191505060405180910390fd5b6001600080837bffffffffffffffffffffffffffffffffffffffffffffffffffffffff19167bffffffffffffffffffffffffffffffffffffffffffffffffffffffff1916815260200190815260200160002060006101000a81548160ff02191690831515021790555050565b600033905090565b620005eb620005d360201b60201c565b73ffffffffffffffffffffffffffffffffffffffff16600960009054906101000a900473ffffffffffffffffffffffffffffffffffffffff1673ffffffffffffffffffffffffffffffffffffffff1614620006ae576040517f08c379a00000000000000000000000000000000000000000000000000000000081526004018080602001828103825260208152602001807f4f776e61626c653a2063616c6c6572206973206e6f7420746865206f776e657281525060200191505060405180910390fd5b620006bf816200076160201b60201c565b7f511a2d5eadb5369092f7693278c813cea345007187d4b85dc8b3d2169d66877f816040518080602001828103825283818151815260200191508051906020019080838360005b838110156200072357808201518184015260208101905062000706565b50505050905090810190601f168015620007515780820380516001836020036101000a031916815260200191505b509250505060405180910390a150565b8060089080519060200190620007799291906200077d565b5050565b828054600181600116156101000203166002900490600052602060002090601f016020900481019282601f10620007c057805160ff1916838001178555620007f1565b82800160010185558215620007f1579182015b82811115620007f0578251825591602001919060010190620007d3565b5b50905062000800919062000804565b5090565b5b808211156200081f57600081600090555060010162000805565b5090565b612c6380620008336000396000f3fe608060405234801561001057600080fd5b506004361061012c5760003560e01c80636c0360eb116100ad578063a22cb46511610071578063a22cb465146106be578063b88d4fde1461070e578063c87b56dd14610813578063e985e9c5146108ba578063f2fde38b146109345761012c565b80636c0360eb1461052257806370a08231146105a5578063715018a6146105fd5780638da5cb5b1461060757806395d89b411461063b5761012c565b806323b872dd116100f457806323b872dd146102db57806342842e0e1461034957806355f804b3146103b75780636352211e146104725780636a627842146104ca5761012c565b806301ffc9a71461013157806306fdde0314610194578063081812fc14610217578063095ea7b31461026f57806318160ddd146102bd575b600080fd5b61017c6004803603602081101561014757600080fd5b8101908080357bffffffffffffffffffffffffffffffffffffffffffffffffffffffff19169060200190929190505050610978565b60405180821515815260200191505060405180910390f35b61019c6109df565b6040518080602001828103825283818151815260200191508051906020019080838360005b838110156101dc5780820151818401526020810190506101c1565b50505050905090810190601f1680156102095780820380516001836020036101000a031916815260200191505b509250505060405180910390f35b6102436004803603602081101561022d57600080fd5b8101908080359060200190929190505050610a81565b604051808273ffffffffffffffffffffffffffffffffffffffff16815260200191505060405180910390f35b6102bb6004803603604081101561028557600080fd5b81019080803573ffffffffffffffffffffffffffffffffffffffff16906020019092919080359060200190929190505050610b1c565b005b6102c5610c60565b6040518082815260200191505060405180910390f35b610347600480360360608110156102f157600080fd5b81019080803573ffffffffffffffffffffffffffffffffffffffff169060200190929190803573ffffffffffffffffffffffffffffffffffffffff16906020019092919080359060200190929190505050610c6a565b005b6103b56004803603606081101561035f57600080fd5b81019080803573ffffffffffffffffffffffffffffffffffffffff169060200190929190803573ffffffffffffffffffffffffffffffffffffffff16906020019092919080359060200190929190505050610ce0565b005b610470600480360360208110156103cd57600080fd5b81019080803590602001906401000000008111156103ea57600080fd5b8201836020820111156103fc57600080fd5b8035906020019184600183028401116401000000008311171561041e57600080fd5b91908080601f016020809104026020016040519081016040528093929190818152602001838380828437600081840152601f19601f820116905080830192505050505050509192919290505050610d00565b005b61049e6004803603602081101561048857600080fd5b8101908080359060200190929190505050610e72565b604051808273ffffffffffffffffffffffffffffffffffffffff16815260200191505060405180910390f35b61050c600480360360208110156104e057600080fd5b81019080803573ffffffffffffffffffffffffffffffffffffffff169060200190929190505050610eaf565b6040518082815260200191505060405180910390f35b61052a610ee3565b6040518080602001828103825283818151815260200191508051906020019080838360005b8381101561056a57808201518184015260208101905061054f565b50505050905090810190601f1680156105975780820380516001836020036101000a031916815260200191505b509250505060405180910390f35b6105e7600480360360208110156105bb57600080fd5b81019080803573ffffffffffffffffffffffffffffffffffffffff169060200190929190505050610f85565b6040518082815260200191505060405180910390f35b610605611053565b005b61060f6111de565b604051808273ffffffffffffffffffffffffffffffffffffffff16815260200191505060405180910390f35b610643611208565b6040518080602001828103825283818151815260200191508051906020019080838360005b83811015610683578082015181840152602081019050610668565b50505050905090810190601f1680156106b05780820380516001836020036101000a031916815260200191505b509250505060405180910390f35b61070c600480360360408110156106d457600080fd5b81019080803573ffffffffffffffffffffffffffffffffffffffff1690602001909291908035151590602001909291905050506112aa565b005b6108116004803603608081101561072457600080fd5b81019080803573ffffffffffffffffffffffffffffffffffffffff169060200190929190803573ffffffffffffffffffffffffffffffffffffffff169060200190929190803590602001909291908035906020019064010000000081111561078b57600080fd5b82018360208201111561079d57600080fd5b803590602001918460018302840111640100000000831117156107bf57600080fd5b91908080601f016020809104026020016040519081016040528093929190818152602001838380828437600081840152601f19601f820116905080830192505050505050509192919290505050611460565b005b61083f6004803603602081101561082957600080fd5b81019080803590602001909291905050506114d8565b6040518080602001828103825283818151815260200191508051906020019080838360005b8381101561087f578082015181840152602081019050610864565b50505050905090810190601f1680156108ac5780820380516001836020036101000a031916815260200191505b509250505060405180910390f35b61091c600480360360408110156108d057600080fd5b81019080803573ffffffffffffffffffffffffffffffffffffffff169060200190929190803573ffffffffffffffffffffffffffffffffffffffff1690602001909291905050506117c1565b60405180821515815260200191505060405180910390f35b6109766004803603602081101561094a57600080fd5b81019080803573ffffffffffffffffffffffffffffffffffffffff169060200190929190505050611855565b005b6000806000837bffffffffffffffffffffffffffffffffffffffffffffffffffffffff19167bffffffffffffffffffffffffffffffffffffffffffffffffffffffff1916815260200190815260200160002060009054906101000a900460ff169050919050565b606060058054600181600116156101000203166002900480601f016020809104026020016040519081016040528092919081815260200182805460018160011615610100020316600290048015610a775780601f10610a4c57610100808354040283529160200191610a77565b820191906000526020600020905b815481529060010190602001808311610a5a57829003601f168201915b5050505050905090565b6000610a8c82611a65565b610ae1576040517f08c379a000000000000000000000000000000000000000000000000000000000815260040180806020018281038252602c815260200180612b58602c913960400191505060405180910390fd5b6003600083815260200190815260200160002060009054906101000a900473ffffffffffffffffffffffffffffffffffffffff169050919050565b6000610b2782610e72565b90508073ffffffffffffffffffffffffffffffffffffffff168373ffffffffffffffffffffffffffffffffffffffff161415610bae576040517f08c379a0000000000000000000000000000000000000000000000000000000008152600401808060200182810382526021815260200180612bdc6021913960400191505060405180910390fd5b8073ffffffffffffffffffffffffffffffffffffffff16610bcd611ad1565b73ffffffffffffffffffffffffffffffffffffffff161480610bfc5750610bfb81610bf6611ad1565b6117c1565b5b610c51576040517f08c379a0000000000000000000000000000000000000000000000000000000008152600401808060200182810382526038815260200180612af66038913960400191505060405180910390fd5b610c5b8383611ad9565b505050565b6000600a54905090565b610c7b610c75611ad1565b82611b92565b610cd0576040517f08c379a0000000000000000000000000000000000000000000000000000000008152600401808060200182810382526031815260200180612bfd6031913960400191505060405180910390fd5b610cdb838383611c86565b505050565b610cfb83838360405180602001604052806000815250611460565b505050565b610d08611ad1565b73ffffffffffffffffffffffffffffffffffffffff16600960009054906101000a900473ffffffffffffffffffffffffffffffffffffffff1673ffffffffffffffffffffffffffffffffffffffff1614610dca576040517f08c379a00000000000000000000000000000000000000000000000000000000081526004018080602001828103825260208152602001807f4f776e61626c653a2063616c6c6572206973206e6f7420746865206f776e657281525060200191505060405180910390fd5b610dd381611f8a565b7f511a2d5eadb5369092f7693278c813cea345007187d4b85dc8b3d2169d66877f816040518080602001828103825283818151815260200191508051906020019080838360005b83811015610e35578082015181840152602081019050610e1a565b50505050905090810190601f168015610e625780820380516001836020036101000a031916815260200191505b509250505060405180910390a150565b60006002600083815260200190815260200160002060009054906101000a900473ffffffffffffffffffffffffffffffffffffffff169050919050565b6000610ec76001600a54611fa490919063ffffffff16565b600a81905550610ed982600a5461202c565b600a549050919050565b606060088054600181600116156101000203166002900480601f016020809104026020016040519081016040528092919081815260200182805460018160011615610100020316600290048015610f7b5780601f10610f5057610100808354040283529160200191610f7b565b820191906000526020600020905b815481529060010190602001808311610f5e57829003601f168201915b5050505050905090565b60008073ffffffffffffffffffffffffffffffffffffffff168273ffffffffffffffffffffffffffffffffffffffff16141561100c576040517f08c379a000000000000000000000000000000000000000000000000000000000815260040180806020018281038252602a815260200180612b2e602a913960400191505060405180910390fd5b600160008373ffffffffffffffffffffffffffffffffffffffff1673ffffffffffffffffffffffffffffffffffffffff168152602001908152602001600020549050919050565b61105b611ad1565b73ffffffffffffffffffffffffffffffffffffffff16600960009054906101000a900473ffffffffffffffffffffffffffffffffffffffff1673ffffffffffffffffffffffffffffffffffffffff161461111d576040517f08c379a00000000000000000000000000000000000000000000000000000000081526004018080602001828103825260208152602001807f4f776e61626c653a2063616c6c6572206973206e6f7420746865206f776e657281525060200191505060405180910390fd5b600073ffffffffffffffffffffffffffffffffffffffff16600960009054906101000a900473ffffffffffffffffffffffffffffffffffffffff1673ffffffffffffffffffffffffffffffffffffffff167f8be0079c531659141344cd1fd0a4f28419497f9722a3daafe3b4186f6b6457e060405160405180910390a36000600960006101000a81548173ffffffffffffffffffffffffffffffffffffffff021916908373ffffffffffffffffffffffffffffffffffffffff160217905550565b6000600960009054906101000a900473ffffffffffffffffffffffffffffffffffffffff16905090565b606060068054600181600116156101000203166002900480601f0160208091040260200160405190810160405280929190818152602001828054600181600116156101000203166002900480156112a05780601f10611275576101008083540402835291602001916112a0565b820191906000526020600020905b81548152906001019060200180831161128357829003601f168201915b5050505050905090565b6112b2611ad1565b73ffffffffffffffffffffffffffffffffffffffff168273ffffffffffffffffffffffffffffffffffffffff161415611353576040517f08c379a00000000000000000000000000000000000000000000000000000000081526004018080602001828103825260198152602001807f4552433732313a20617070726f766520746f2063616c6c65720000000000000081525060200191505060405180910390fd5b8060046000611360611ad1565b73ffffffffffffffffffffffffffffffffffffffff1673ffffffffffffffffffffffffffffffffffffffff16815260200190815260200160002060008473ffffffffffffffffffffffffffffffffffffffff1673ffffffffffffffffffffffffffffffffffffffff16815260200190815260200160002060006101000a81548160ff0219169083151502179055508173ffffffffffffffffffffffffffffffffffffffff1661140d611ad1565b73ffffffffffffffffffffffffffffffffffffffff167f17307eab39ab6107e8899845ad3d59bd9653f200f220920489ca2b5937696c318360405180821515815260200191505060405180910390a35050565b61147161146b611ad1565b83611b92565b6114c6576040517f08c379a0000000000000000000000000000000000000000000000000000000008152600401808060200182810382526031815260200180612bfd6031913960400191505060405180910390fd5b6114d28484848461229e565b50505050565b60606114e382611a65565b611538576040517f08c379a000000000000000000000000000000000000000000000000000000000815260040180806020018281038252602f815260200180612bad602f913960400191505060405180910390fd5b6060600760008481526020019081526020016000208054600181600116156101000203166002900480601f0160208091040260200160405190810160405280929190818152602001828054600181600116156101000203166002900480156115e15780601f106115b6576101008083540402835291602001916115e1565b820191906000526020600020905b8154815290600101906020018083116115c457829003601f168201915b5050505050905060006008805460018160011615610100020316600290049050141561161057809150506117bc565b6000815111156116e957600881604051602001808380546001816001161561010002031660029004801561167b5780601f1061165957610100808354040283529182019161167b565b820191906000526020600020905b815481529060010190602001808311611667575b505082805190602001908083835b602083106116ac5780518252602082019150602081019050602083039250611689565b6001836020036101000a038019825116818451168082178552505050505050905001925050506040516020818303038152906040529150506117bc565b60086116f484612310565b60405160200180838054600181600116156101000203166002900480156117525780601f10611730576101008083540402835291820191611752565b820191906000526020600020905b81548152906001019060200180831161173e575b505082805190602001908083835b602083106117835780518252602082019150602081019050602083039250611760565b6001836020036101000a038019825116818451168082178552505050505050905001925050506040516020818303038152906040529150505b919050565b6000600460008473ffffffffffffffffffffffffffffffffffffffff1673ffffffffffffffffffffffffffffffffffffffff16815260200190815260200160002060008373ffffffffffffffffffffffffffffffffffffffff1673ffffffffffffffffffffffffffffffffffffffff16815260200190815260200160002060009054906101000a900460ff16905092915050565b61185d611ad1565b73ffffffffffffffffffffffffffffffffffffffff16600960009054906101000a900473ffffffffffffffffffffffffffffffffffffffff1673ffffffffffffffffffffffffffffffffffffffff161461191f576040517f08c379a00000000000000000000000000000000000000000000000000000000081526004018080602001828103825260208152602001807f4f776e61626c653a2063616c6c6572206973206e6f7420746865206f776e657281525060200191505060405180910390fd5b600073ffffffffffffffffffffffffffffffffffffffff168173ffffffffffffffffffffffffffffffffffffffff1614156119a5576040517f08c379a0000000000000000000000000000000000000000000000000000000008152600401808060200182810382526026815260200180612a806026913960400191505060405180910390fd5b8073ffffffffffffffffffffffffffffffffffffffff16600960009054906101000a900473ffffffffffffffffffffffffffffffffffffffff1673ffffffffffffffffffffffffffffffffffffffff167f8be0079c531659141344cd1fd0a4f28419497f9722a3daafe3b4186f6b6457e060405160405180910390a380600960006101000a81548173ffffffffffffffffffffffffffffffffffffffff021916908373ffffffffffffffffffffffffffffffffffffffff16021790555050565b60008073ffffffffffffffffffffffffffffffffffffffff166002600084815260200190815260200160002060009054906101000a900473ffffffffffffffffffffffffffffffffffffffff1673ffffffffffffffffffffffffffffffffffffffff1614159050919050565b600033905090565b816003600083815260200190815260200160002060006101000a81548173ffffffffffffffffffffffffffffffffffffffff021916908373ffffffffffffffffffffffffffffffffffffffff160217905550808273ffffffffffffffffffffffffffffffffffffffff16611b4c83610e72565b73ffffffffffffffffffffffffffffffffffffffff167f8c5be1e5ebec7d5bd14f71427d1e84f3dd0314c0f7b2291e5b200ac8c7c3b92560405160405180910390a45050565b6000611b9d82611a65565b611bf2576040517f08c379a000000000000000000000000000000000000000000000000000000000815260040180806020018281038252602c815260200180612aca602c913960400191505060405180910390fd5b6000611bfd83610e72565b90508073ffffffffffffffffffffffffffffffffffffffff168473ffffffffffffffffffffffffffffffffffffffff161480611c6c57508373ffffffffffffffffffffffffffffffffffffffff16611c5484610a81565b73ffffffffffffffffffffffffffffffffffffffff16145b80611c7d5750611c7c81856117c1565b5b91505092915050565b8273ffffffffffffffffffffffffffffffffffffffff16611ca682610e72565b73ffffffffffffffffffffffffffffffffffffffff1614611d12576040517f08c379a0000000000000000000000000000000000000000000000000000000008152600401808060200182810382526029815260200180612b846029913960400191505060405180910390fd5b600073ffffffffffffffffffffffffffffffffffffffff168273ffffffffffffffffffffffffffffffffffffffff161415611d98576040517f08c379a0000000000000000000000000000000000000000000000000000000008152600401808060200182810382526024815260200180612aa66024913960400191505060405180910390fd5b611da3838383612457565b611dae600082611ad9565b611e0060018060008673ffffffffffffffffffffffffffffffffffffffff1673ffffffffffffffffffffffffffffffffffffffff1681526020019081526020016000205461245c90919063ffffffff16565b600160008573ffffffffffffffffffffffffffffffffffffffff1673ffffffffffffffffffffffffffffffffffffffff16815260200190815260200160002081905550611e9560018060008573ffffffffffffffffffffffffffffffffffffffff1673ffffffffffffffffffffffffffffffffffffffff16815260200190815260200160002054611fa490919063ffffffff16565b600160008473ffffffffffffffffffffffffffffffffffffffff1673ffffffffffffffffffffffffffffffffffffffff16815260200190815260200160002081905550816002600083815260200190815260200160002060006101000a81548173ffffffffffffffffffffffffffffffffffffffff021916908373ffffffffffffffffffffffffffffffffffffffff160217905550808273ffffffffffffffffffffffffffffffffffffffff168473ffffffffffffffffffffffffffffffffffffffff167fddf252ad1be2c89b69c2b068fc378daa952ba7f163c4a11628f55a4df523b3ef60405160405180910390a4505050565b8060089080519060200190611fa09291906129b0565b5050565b600080828401905083811015612022576040517f08c379a000000000000000000000000000000000000000000000000000000000815260040180806020018281038252601b8152602001807f536166654d6174683a206164646974696f6e206f766572666c6f77000000000081525060200191505060405180910390fd5b8091505092915050565b600073ffffffffffffffffffffffffffffffffffffffff168273ffffffffffffffffffffffffffffffffffffffff1614156120cf576040517f08c379a00000000000000000000000000000000000000000000000000000000081526004018080602001828103825260208152602001807f4552433732313a206d696e7420746f20746865207a65726f206164647265737381525060200191505060405180910390fd5b6120d881611a65565b1561214b576040517f08c379a000000000000000000000000000000000000000000000000000000000815260040180806020018281038252601c8152602001807f4552433732313a20746f6b656e20616c7265616479206d696e7465640000000081525060200191505060405180910390fd5b61215760008383612457565b6121a960018060008573ffffffffffffffffffffffffffffffffffffffff1673ffffffffffffffffffffffffffffffffffffffff16815260200190815260200160002054611fa490919063ffffffff16565b600160008473ffffffffffffffffffffffffffffffffffffffff1673ffffffffffffffffffffffffffffffffffffffff16815260200190815260200160002081905550816002600083815260200190815260200160002060006101000a81548173ffffffffffffffffffffffffffffffffffffffff021916908373ffffffffffffffffffffffffffffffffffffffff160217905550808273ffffffffffffffffffffffffffffffffffffffff16600073ffffffffffffffffffffffffffffffffffffffff167fddf252ad1be2c89b69c2b068fc378daa952ba7f163c4a11628f55a4df523b3ef60405160405180910390a45050565b6122a9848484611c86565b6122b5848484846124a6565b61230a576040517f08c379a0000000000000000000000000000000000000000000000000000000008152600401808060200182810382526032815260200180612a4e6032913960400191505060405180910390fd5b50505050565b60606000821415612358576040518060400160405280600181526020017f30000000000000000000000000000000000000000000000000000000000000008152509050612452565b600082905060005b60008214612382578080600101915050600a828161237a57fe5b049150612360565b60608167ffffffffffffffff8111801561239b57600080fd5b506040519080825280601f01601f1916602001820160405280156123ce5781602001600182028036833780820191505090505b50905060006001830390508593505b6000841461244a57600a84816123ef57fe5b0660300160f81b8282806001900393508151811061240957fe5b60200101907effffffffffffffffffffffffffffffffffffffffffffffffffffffffffffff1916908160001a905350600a848161244257fe5b0493506123dd565b819450505050505b919050565b505050565b600061249e83836040518060400160405280601e81526020017f536166654d6174683a207375627472616374696f6e206f766572666c6f7700008152506126bf565b905092915050565b60006124c78473ffffffffffffffffffffffffffffffffffffffff1661277f565b6124d457600190506126b7565b606061263e63150b7a0260e01b6124e9611ad1565b888787604051602401808573ffffffffffffffffffffffffffffffffffffffff1681526020018473ffffffffffffffffffffffffffffffffffffffff16815260200183815260200180602001828103825283818151815260200191508051906020019080838360005b8381101561256d578082015181840152602081019050612552565b50505050905090810190601f16801561259a5780820380516001836020036101000a031916815260200191505b5095505050505050604051602081830303815290604052907bffffffffffffffffffffffffffffffffffffffffffffffffffffffff19166020820180517bffffffffffffffffffffffffffffffffffffffffffffffffffffffff8381831617835250505050604051806060016040528060328152602001612a4e603291398773ffffffffffffffffffffffffffffffffffffffff166127929092919063ffffffff16565b9050600081806020019051602081101561265757600080fd5b8101908080519060200190929190505050905063150b7a0260e01b7bffffffffffffffffffffffffffffffffffffffffffffffffffffffff1916817bffffffffffffffffffffffffffffffffffffffffffffffffffffffff191614925050505b949350505050565b600083831115829061276c576040517f08c379a00000000000000000000000000000000000000000000000000000000081526004018080602001828103825283818151815260200191508051906020019080838360005b83811015612731578082015181840152602081019050612716565b50505050905090810190601f16801561275e5780820380516001836020036101000a031916815260200191505b509250505060405180910390fd5b5060008385039050809150509392505050565b600080823b905060008111915050919050565b60606127a184846000856127aa565b90509392505050565b60606127b58561277f565b612827576040517f08c379a000000000000000000000000000000000000000000000000000000000815260040180806020018281038252601d8152602001807f416464726573733a2063616c6c20746f206e6f6e2d636f6e747261637400000081525060200191505060405180910390fd5b600060608673ffffffffffffffffffffffffffffffffffffffff1685876040518082805190602001908083835b602083106128775780518252602082019150602081019050602083039250612854565b6001836020036101000a03801982511681845116808217855250505050505090500191505060006040518083038185875af1925050503d80600081146128d9576040519150601f19603f3d011682016040523d82523d6000602084013e6128de565b606091505b509150915081156128f35780925050506129a8565b6000815111156129065780518082602001fd5b836040517f08c379a00000000000000000000000000000000000000000000000000000000081526004018080602001828103825283818151815260200191508051906020019080838360005b8381101561296d578082015181840152602081019050612952565b50505050905090810190601f16801561299a5780820380516001836020036101000a031916815260200191505b509250505060405180910390fd5b949350505050565b828054600181600116156101000203166002900490600052602060002090601f016020900481019282601f106129f157805160ff1916838001178555612a1f565b82800160010185558215612a1f579182015b82811115612a1e578251825591602001919060010190612a03565b5b509050612a2c9190612a30565b5090565b5b80821115612a49576000816000905550600101612a31565b509056fe4552433732313a207472616e7366657220746f206e6f6e20455243373231526563656976657220696d706c656d656e7465724f776e61626c653a206e6577206f776e657220697320746865207a65726f20616464726573734552433732313a207472616e7366657220746f20746865207a65726f20616464726573734552433732313a206f70657261746f7220717565727920666f72206e6f6e6578697374656e7420746f6b656e4552433732313a20617070726f76652063616c6c6572206973206e6f74206f776e6572206e6f7220617070726f76656420666f7220616c6c4552433732313a2062616c616e636520717565727920666f7220746865207a65726f20616464726573734552433732313a20617070726f76656420717565727920666f72206e6f6e6578697374656e7420746f6b656e4552433732313a207472616e73666572206f6620746f6b656e2074686174206973206e6f74206f776e4552433732314d657461646174613a2055524920717565727920666f72206e6f6e6578697374656e7420746f6b656e4552433732313a20617070726f76616c20746f2063757272656e74206f776e65724552433732313a207472616e736665722063616c6c6572206973206e6f74206f776e6572206e6f7220617070726f766564a264697066735822122051a2786515e65e65e64fbbcd6321077ef45c59988453df44fe1c66c46e91347f64736f6c634300060c0033",
  "devdoc": {
    "author": "Brendan Asselstine",
    "kind": "dev",
    "methods": {
      "approve(address,uint256)": {
        "details": "See {IERC721-approve}."
      },
      "balanceOf(address)": {
        "details": "See {IERC721-balanceOf}."
      },
      "baseURI()": {
        "details": "Returns the base URI set via {_setBaseURI}. This will be automatically added as a prefix in {tokenURI} to each token's URI, or to the token ID if no specific URI is set for that token ID."
      },
      "getApproved(uint256)": {
        "details": "See {IERC721-getApproved}."
      },
      "isApprovedForAll(address,address)": {
        "details": "See {IERC721-isApprovedForAll}."
      },
      "name()": {
        "details": "See {IERC721Metadata-name}."
      },
      "owner()": {
        "details": "Returns the address of the current owner."
      },
      "ownerOf(uint256)": {
        "details": "See {IERC721-ownerOf}."
      },
      "renounceOwnership()": {
        "details": "Leaves the contract without owner. It will not be possible to call `onlyOwner` functions anymore. Can only be called by the current owner. NOTE: Renouncing ownership will leave the contract without an owner, thereby removing any functionality that is only available to the owner."
      },
      "safeTransferFrom(address,address,uint256)": {
        "details": "See {IERC721-safeTransferFrom}."
      },
      "safeTransferFrom(address,address,uint256,bytes)": {
        "details": "See {IERC721-safeTransferFrom}."
      },
      "setApprovalForAll(address,bool)": {
        "details": "See {IERC721-setApprovalForAll}."
      },
      "supportsInterface(bytes4)": {
        "details": "See {IERC165-supportsInterface}. Time complexity O(1), guaranteed to always use less than 30 000 gas."
      },
      "symbol()": {
        "details": "See {IERC721Metadata-symbol}."
      },
      "tokenURI(uint256)": {
        "details": "See {IERC721Metadata-tokenURI}."
      },
      "transferFrom(address,address,uint256)": {
        "details": "See {IERC721-transferFrom}."
      },
      "transferOwnership(address)": {
        "details": "Transfers ownership of the contract to a new account (`newOwner`). Can only be called by the current owner."
      }
    },
    "title": "An ownable ERC721",
    "version": 1
  },
  "userdoc": {
    "events": {
      "ERC721OwnableBaseURISet(string)": {
        "notice": "Emitted when the base URI is set"
      },
      "ERC721OwnableInitialized(string,string)": {
        "notice": "Emitted when the token is constructed"
      }
    },
    "kind": "user",
    "methods": {},
    "notice": "The owner may change the base URI",
    "version": 1
  },
  "storageLayout": {
    "storage": [
      {
        "astId": 145,
        "contract": "contracts/ERC721Ownable.sol:ERC721Ownable",
        "label": "_supportedInterfaces",
        "offset": 0,
        "slot": "0",
        "type": "t_mapping(t_bytes4,t_bool)"
      },
      {
        "astId": 6728,
        "contract": "contracts/ERC721Ownable.sol:ERC721Ownable",
        "label": "_tokenCounts",
        "offset": 0,
        "slot": "1",
        "type": "t_mapping(t_address,t_uint256)"
      },
      {
        "astId": 6732,
        "contract": "contracts/ERC721Ownable.sol:ERC721Ownable",
        "label": "_tokenOwners",
        "offset": 0,
        "slot": "2",
        "type": "t_mapping(t_uint256,t_address)"
      },
      {
        "astId": 6736,
        "contract": "contracts/ERC721Ownable.sol:ERC721Ownable",
        "label": "_tokenApprovals",
        "offset": 0,
        "slot": "3",
        "type": "t_mapping(t_uint256,t_address)"
      },
      {
        "astId": 6742,
        "contract": "contracts/ERC721Ownable.sol:ERC721Ownable",
        "label": "_operatorApprovals",
        "offset": 0,
        "slot": "4",
        "type": "t_mapping(t_address,t_mapping(t_address,t_bool))"
      },
      {
        "astId": 6744,
        "contract": "contracts/ERC721Ownable.sol:ERC721Ownable",
        "label": "_name",
        "offset": 0,
        "slot": "5",
        "type": "t_string_storage"
      },
      {
        "astId": 6746,
        "contract": "contracts/ERC721Ownable.sol:ERC721Ownable",
        "label": "_symbol",
        "offset": 0,
        "slot": "6",
        "type": "t_string_storage"
      },
      {
        "astId": 6750,
        "contract": "contracts/ERC721Ownable.sol:ERC721Ownable",
        "label": "_tokenURIs",
        "offset": 0,
        "slot": "7",
        "type": "t_mapping(t_uint256,t_string_storage)"
      },
      {
        "astId": 6752,
        "contract": "contracts/ERC721Ownable.sol:ERC721Ownable",
        "label": "_baseURI",
        "offset": 0,
        "slot": "8",
        "type": "t_string_storage"
      },
      {
        "astId": 30,
        "contract": "contracts/ERC721Ownable.sol:ERC721Ownable",
        "label": "_owner",
        "offset": 0,
        "slot": "9",
        "type": "t_address"
      },
      {
        "astId": 5955,
        "contract": "contracts/ERC721Ownable.sol:ERC721Ownable",
        "label": "_totalSupply",
        "offset": 0,
        "slot": "10",
        "type": "t_uint256"
      }
    ],
    "types": {
      "t_address": {
        "encoding": "inplace",
        "label": "address",
        "numberOfBytes": "20"
      },
      "t_bool": {
        "encoding": "inplace",
        "label": "bool",
        "numberOfBytes": "1"
      },
      "t_bytes4": {
        "encoding": "inplace",
        "label": "bytes4",
        "numberOfBytes": "4"
      },
      "t_mapping(t_address,t_bool)": {
        "encoding": "mapping",
        "key": "t_address",
        "label": "mapping(address => bool)",
        "numberOfBytes": "32",
        "value": "t_bool"
      },
      "t_mapping(t_address,t_mapping(t_address,t_bool))": {
        "encoding": "mapping",
        "key": "t_address",
        "label": "mapping(address => mapping(address => bool))",
        "numberOfBytes": "32",
        "value": "t_mapping(t_address,t_bool)"
      },
      "t_mapping(t_address,t_uint256)": {
        "encoding": "mapping",
        "key": "t_address",
        "label": "mapping(address => uint256)",
        "numberOfBytes": "32",
        "value": "t_uint256"
      },
      "t_mapping(t_bytes4,t_bool)": {
        "encoding": "mapping",
        "key": "t_bytes4",
        "label": "mapping(bytes4 => bool)",
        "numberOfBytes": "32",
        "value": "t_bool"
      },
      "t_mapping(t_uint256,t_address)": {
        "encoding": "mapping",
        "key": "t_uint256",
        "label": "mapping(uint256 => address)",
        "numberOfBytes": "32",
        "value": "t_address"
      },
      "t_mapping(t_uint256,t_string_storage)": {
        "encoding": "mapping",
        "key": "t_uint256",
        "label": "mapping(uint256 => string)",
        "numberOfBytes": "32",
        "value": "t_string_storage"
      },
      "t_string_storage": {
        "encoding": "bytes",
        "label": "string",
        "numberOfBytes": "32"
      },
      "t_uint256": {
        "encoding": "inplace",
        "label": "uint256",
        "numberOfBytes": "32"
      }
    }
  },
  "gasEstimates": {
    "creation": {
      "codeDepositCost": "2272600",
      "executionCost": "infinite",
      "totalCost": "infinite"
    },
    "external": {
      "approve(address,uint256)": "infinite",
      "balanceOf(address)": "infinite",
      "baseURI()": "infinite",
      "getApproved(uint256)": "infinite",
      "isApprovedForAll(address,address)": "1451",
      "mint(address)": "infinite",
      "name()": "infinite",
      "owner()": "1144",
      "ownerOf(uint256)": "1309",
      "renounceOwnership()": "24364",
      "safeTransferFrom(address,address,uint256)": "infinite",
      "safeTransferFrom(address,address,uint256,bytes)": "infinite",
      "setApprovalForAll(address,bool)": "infinite",
      "setBaseURI(string)": "infinite",
      "supportsInterface(bytes4)": "1271",
      "symbol()": "infinite",
      "tokenURI(uint256)": "infinite",
      "totalSupply()": "1125",
      "transferFrom(address,address,uint256)": "infinite",
      "transferOwnership(address)": "infinite"
    }
  }
}