{
  "abi": [
    {
      "anonymous": false,
      "inputs": [
        {
          "indexed": true,
          "internalType": "contract LootBoxPrizeStrategyListener",
          "name": "listener",
          "type": "address"
        }
      ],
      "name": "CreatedListener",
      "type": "event"
    },
    {
      "inputs": [
        {
          "internalType": "address",
          "name": "owner",
          "type": "address"
        }
      ],
      "name": "create",
      "outputs": [
        {
          "internalType": "contract LootBoxPrizeStrategyListener",
          "name": "",
          "type": "address"
        }
      ],
      "stateMutability": "nonpayable",
      "type": "function"
    }
  ],
  "address": "0x25e6a78D93D2935A638fDbd684e7b39565d0B7eA",
  "args": [],
  "solcInputHash": "0x26d11f31d042bea37634ef861cef78581f0050a16bb964acfb51cd61ac757ea2",
  "bytecode": "0x608060405234801561001057600080fd5b50611624806100206000396000f3fe608060405234801561001057600080fd5b506004361061002b5760003560e01c80639ed9331814610030575b600080fd5b6100726004803603602081101561004657600080fd5b81019080803573ffffffffffffffffffffffffffffffffffffffff16906020019092919050505061009e565b604051808273ffffffffffffffffffffffffffffffffffffffff16815260200191505060405180910390f35b6000806040516100ad90610199565b604051809103906000f0801580156100c9573d6000803e3d6000fd5b5090508073ffffffffffffffffffffffffffffffffffffffff1663c4d66de8846040518263ffffffff1660e01b8152600401808273ffffffffffffffffffffffffffffffffffffffff168152602001915050600060405180830381600087803b15801561013557600080fd5b505af1158015610149573d6000803e3d6000fd5b505050508073ffffffffffffffffffffffffffffffffffffffff167faf4d9e6f761589aec5ea54c8fc4a8740064c59ecb32a96db50a3615333b7e88560405160405180910390a280915050919050565b611448806101a78339019056fe608060405234801561001057600080fd5b50611428806100206000396000f3fe608060405234801561001057600080fd5b50600436106100ce5760003560e01c80639010d07c1161008c578063c4d66de811610066578063c4d66de814610394578063ca15c873146103d8578063d547741f1461041a578063d85fd03c14610468576100ce565b80639010d07c146102b057806391d1485414610312578063a217fddf14610376576100ce565b806215264b146100d357806301ffc9a714610137578063248a9ca31461019a5780632f2ff15d146101dc57806336568abe1461022a578063575072c614610278575b600080fd5b610135600480360360408110156100e957600080fd5b81019080803573ffffffffffffffffffffffffffffffffffffffff169060200190929190803573ffffffffffffffffffffffffffffffffffffffff1690602001909291905050506104d6565b005b6101826004803603602081101561014d57600080fd5b8101908080357bffffffffffffffffffffffffffffffffffffffffffffffffffffffff1916906020019092919050505061075e565b60405180821515815260200191505060405180910390f35b6101c6600480360360208110156101b057600080fd5b81019080803590602001909291905050506107fe565b6040518082815260200191505060405180910390f35b610228600480360360408110156101f257600080fd5b8101908080359060200190929190803573ffffffffffffffffffffffffffffffffffffffff16906020019092919050505061081e565b005b6102766004803603604081101561024057600080fd5b8101908080359060200190929190803573ffffffffffffffffffffffffffffffffffffffff1690602001909291905050506108a8565b005b6102ae6004803603604081101561028e57600080fd5b810190808035906020019092919080359060200190929190505050610941565b005b6102e6600480360360408110156102c657600080fd5b810190808035906020019092919080359060200190929190505050610c40565b604051808273ffffffffffffffffffffffffffffffffffffffff16815260200191505060405180910390f35b61035e6004803603604081101561032857600080fd5b8101908080359060200190929190803573ffffffffffffffffffffffffffffffffffffffff169060200190929190505050610c72565b60405180821515815260200191505060405180910390f35b61037e610ca4565b6040518082815260200191505060405180910390f35b6103d6600480360360208110156103aa57600080fd5b81019080803573ffffffffffffffffffffffffffffffffffffffff169060200190929190505050610cab565b005b610404600480360360208110156103ee57600080fd5b8101908080359060200190929190505050610db7565b6040518082815260200191505060405180910390f35b6104666004803603604081101561043057600080fd5b8101908080359060200190929190803573ffffffffffffffffffffffffffffffffffffffff169060200190929190505050610dde565b005b6104aa6004803603602081101561047e57600080fd5b81019080803573ffffffffffffffffffffffffffffffffffffffff169060200190929190505050610e68565b604051808273ffffffffffffffffffffffffffffffffffffffff16815260200191505060405180910390f35b6104e36000801b33610c72565b610538576040517f08c379a000000000000000000000000000000000000000000000000000000000815260040180806020018281038252602781526020018061139d6027913960400191505060405180910390fd5b600073ffffffffffffffffffffffffffffffffffffffff168173ffffffffffffffffffffffffffffffffffffffff16148061061c57508073ffffffffffffffffffffffffffffffffffffffff166391d148546000801b306040518363ffffffff1660e01b8152600401808381526020018273ffffffffffffffffffffffffffffffffffffffff1681526020019250505060206040518083038186803b1580156105e057600080fd5b505afa1580156105f4573d6000803e3d6000fd5b505050506040513d602081101561060a57600080fd5b81019080805190602001909291905050505b610671576040517f08c379a000000000000000000000000000000000000000000000000000000000815260040180806020018281038252602f815260200180611340602f913960400191505060405180910390fd5b80606560008473ffffffffffffffffffffffffffffffffffffffff1673ffffffffffffffffffffffffffffffffffffffff16815260200190815260200160002060006101000a81548173ffffffffffffffffffffffffffffffffffffffff021916908373ffffffffffffffffffffffffffffffffffffffff1602179055507f13d4c6f527eb021f2d84872cdc97d700cae352e4b7c67be69f2478f134d5a32c8282604051808373ffffffffffffffffffffffffffffffffffffffff1681526020018273ffffffffffffffffffffffffffffffffffffffff1681526020019250505060405180910390a15050565b60006301ffc9a760e01b7bffffffffffffffffffffffffffffffffffffffffffffffffffffffff1916827bffffffffffffffffffffffffffffffffffffffffffffffffffffffff191614806107f7575063575072c660e01b7bffffffffffffffffffffffffffffffffffffffffffffffffffffffff1916827bffffffffffffffffffffffffffffffffffffffffffffffffffffffff1916145b9050919050565b600060336000838152602001908152602001600020600201549050919050565b6108456033600084815260200190815260200160002060020154610840610e9b565b610c72565b61089a576040517f08c379a000000000000000000000000000000000000000000000000000000000815260040180806020018281038252602f8152602001806112e1602f913960400191505060405180910390fd5b6108a48282610ea3565b5050565b6108b0610e9b565b73ffffffffffffffffffffffffffffffffffffffff168173ffffffffffffffffffffffffffffffffffffffff1614610933576040517f08c379a000000000000000000000000000000000000000000000000000000000815260040180806020018281038252602f8152602001806113c4602f913960400191505060405180910390fd5b61093d8282610f37565b5050565b6000606560003373ffffffffffffffffffffffffffffffffffffffff1673ffffffffffffffffffffffffffffffffffffffff16815260200190815260200160002060009054906101000a900473ffffffffffffffffffffffffffffffffffffffff169050600073ffffffffffffffffffffffffffffffffffffffff168173ffffffffffffffffffffffffffffffffffffffff1614156109e05750610c3c565b60003390506060600167ffffffffffffffff811180156109ff57600080fd5b50604051908082528060200260200182016040528015610a2e5781602001602082028036833780820191505090505b5090508273ffffffffffffffffffffffffffffffffffffffff16636a6278428373ffffffffffffffffffffffffffffffffffffffff1663719ce73e6040518163ffffffff1660e01b815260040160206040518083038186803b158015610a9357600080fd5b505afa158015610aa7573d6000803e3d6000fd5b505050506040513d6020811015610abd57600080fd5b81019080805190602001909291905050506040518263ffffffff1660e01b8152600401808273ffffffffffffffffffffffffffffffffffffffff168152602001915050602060405180830381600087803b158015610b1a57600080fd5b505af1158015610b2e573d6000803e3d6000fd5b505050506040513d6020811015610b4457600080fd5b810190808051906020019092919050505081600081518110610b6257fe5b6020026020010181815250508173ffffffffffffffffffffffffffffffffffffffff1663c48ddbcb84836040518363ffffffff1660e01b8152600401808373ffffffffffffffffffffffffffffffffffffffff16815260200180602001828103825283818151815260200191508051906020019060200280838360005b83811015610bfa578082015181840152602081019050610bdf565b505050509050019350505050600060405180830381600087803b158015610c2057600080fd5b505af1158015610c34573d6000803e3d6000fd5b505050505050505b5050565b6000610c6a8260336000868152602001908152602001600020600001610fcb90919063ffffffff16565b905092915050565b6000610c9c8260336000868152602001908152602001600020600001610fe590919063ffffffff16565b905092915050565b6000801b81565b600060019054906101000a900460ff1680610cca5750610cc9611015565b5b80610ce0575060008054906101000a900460ff16155b610d35576040517f08c379a000000000000000000000000000000000000000000000000000000000815260040180806020018281038252602e81526020018061136f602e913960400191505060405180910390fd5b60008060019054906101000a900460ff161590508015610d85576001600060016101000a81548160ff02191690831515021790555060016000806101000a81548160ff0219169083151502179055505b610d926000801b8361102c565b8015610db35760008060016101000a81548160ff0219169083151502179055505b5050565b6000610dd76033600084815260200190815260200160002060000161103a565b9050919050565b610e056033600084815260200190815260200160002060020154610e00610e9b565b610c72565b610e5a576040517f08c379a00000000000000000000000000000000000000000000000000000000081526004018080602001828103825260308152602001806113106030913960400191505060405180910390fd5b610e648282610f37565b5050565b60656020528060005260406000206000915054906101000a900473ffffffffffffffffffffffffffffffffffffffff1681565b600033905090565b610ecb816033600085815260200190815260200160002060000161104f90919063ffffffff16565b15610f3357610ed8610e9b565b73ffffffffffffffffffffffffffffffffffffffff168173ffffffffffffffffffffffffffffffffffffffff16837f2f8788117e7eff1d82e926ec794901d17c78024a50270940304540a733656f0d60405160405180910390a45b5050565b610f5f816033600085815260200190815260200160002060000161107f90919063ffffffff16565b15610fc757610f6c610e9b565b73ffffffffffffffffffffffffffffffffffffffff168173ffffffffffffffffffffffffffffffffffffffff16837ff6391f5c32d9c69d2a47ea670b442974b53935d1edc7fd64eb21e047a839171b60405160405180910390a45b5050565b6000610fda83600001836110af565b60001c905092915050565b600061100d836000018373ffffffffffffffffffffffffffffffffffffffff1660001b611132565b905092915050565b6000803090506000813b9050600081149250505090565b6110368282610ea3565b5050565b600061104882600001611155565b9050919050565b6000611077836000018373ffffffffffffffffffffffffffffffffffffffff1660001b611166565b905092915050565b60006110a7836000018373ffffffffffffffffffffffffffffffffffffffff1660001b6111d6565b905092915050565b600081836000018054905011611110576040517f08c379a00000000000000000000000000000000000000000000000000000000081526004018080602001828103825260228152602001806112bf6022913960400191505060405180910390fd5b82600001828154811061111f57fe5b9060005260206000200154905092915050565b600080836001016000848152602001908152602001600020541415905092915050565b600081600001805490509050919050565b60006111728383611132565b6111cb5782600001829080600181540180825580915050600190039060005260206000200160009091909190915055826000018054905083600101600084815260200190815260200160002081905550600190506111d0565b600090505b92915050565b600080836001016000848152602001908152602001600020549050600081146112b2576000600182039050600060018660000180549050039050600086600001828154811061122157fe5b906000526020600020015490508087600001848154811061123e57fe5b906000526020600020018190555060018301876001016000838152602001908152602001600020819055508660000180548061127657fe5b600190038181906000526020600020016000905590558660010160008781526020019081526020016000206000905560019450505050506112b8565b60009150505b9291505056fe456e756d657261626c655365743a20696e646578206f7574206f6620626f756e6473416363657373436f6e74726f6c3a2073656e646572206d75737420626520616e2061646d696e20746f206772616e74416363657373436f6e74726f6c3a2073656e646572206d75737420626520616e2061646d696e20746f207265766f6b654c6f6f74426f785072697a6553747261746567794c697374656e65722f6d697373696e672d61646d696e2d726f6c65496e697469616c697a61626c653a20636f6e747261637420697320616c726561647920696e697469616c697a65644c6f6f74426f785072697a6553747261746567794c697374656e65722f6f6e6c792d61646d696e416363657373436f6e74726f6c3a2063616e206f6e6c792072656e6f756e636520726f6c657320666f722073656c66a2646970667358221220d3e6d88c812a7de13c3e1bcb675271b19207d2e9466c89d595e30d6a723c043264736f6c634300060c0033a26469706673582212204c82a68c7dbcfae3ea71146e5120daa2b0674a40dc30e32b0073b33cf1582a9964736f6c634300060c0033",
  "devdoc": {
    "author": "Brendan Asselstine",
    "kind": "dev",
    "methods": {},
    "title": "Allows users to plunder an address associated with an ERC721",
    "version": 1
  },
  "userdoc": {
    "kind": "user",
    "methods": {},
    "notice": "Counterfactually instantiates a \"Loot Box\" at an address unique to an ERC721 token.  The address for an ERC721 token can be computed and later plundered by transferring token balances to the ERC721 owner.",
    "version": 1
  },
  "storageLayout": {
    "storage": [],
    "types": null
  },
  "gasEstimates": {
    "creation": {
      "codeDepositCost": "1133600",
      "executionCost": "1180",
      "totalCost": "1134780"
    },
    "external": {
      "create(address)": "infinite"
    }
  }
}